{
  "_format": "hh-sol-artifact-1",
  "contractName": "CHAINLINK",
  "sourceName": "contracts/ERC721A.sol",
  "abi": [
    {
      "inputs": [
        {
          "internalType": "string",
          "name": "name",
          "type": "string"
        },
        {
          "internalType": "string",
          "name": "symbol",
          "type": "string"
        },
        {
          "internalType": "bytes32",
          "name": "_root",
          "type": "bytes32"
        }
      ],
      "stateMutability": "nonpayable",
      "type": "constructor"
    },
    {
      "inputs": [],
      "name": "ApprovalCallerNotOwnerNorApproved",
      "type": "error"
    },
    {
      "inputs": [],
      "name": "ApprovalQueryForNonexistentToken",
      "type": "error"
    },
    {
      "inputs": [],
      "name": "BalanceQueryForZeroAddress",
      "type": "error"
    },
    {
      "inputs": [],
      "name": "MintERC2309QuantityExceedsLimit",
      "type": "error"
    },
    {
      "inputs": [],
      "name": "MintToZeroAddress",
      "type": "error"
    },
    {
      "inputs": [],
      "name": "MintZeroQuantity",
      "type": "error"
    },
    {
      "inputs": [],
      "name": "OwnerQueryForNonexistentToken",
      "type": "error"
    },
    {
      "inputs": [],
      "name": "OwnershipNotInitializedForExtraData",
      "type": "error"
    },
    {
      "inputs": [],
      "name": "TransferCallerNotOwnerNorApproved",
      "type": "error"
    },
    {
      "inputs": [],
      "name": "TransferFromIncorrectOwner",
      "type": "error"
    },
    {
      "inputs": [],
      "name": "TransferToNonERC721ReceiverImplementer",
      "type": "error"
    },
    {
      "inputs": [],
      "name": "TransferToZeroAddress",
      "type": "error"
    },
    {
      "inputs": [],
      "name": "URIQueryForNonexistentToken",
      "type": "error"
    },
    {
      "anonymous": false,
      "inputs": [
        {
          "indexed": true,
          "internalType": "address",
          "name": "owner",
          "type": "address"
        },
        {
          "indexed": true,
          "internalType": "address",
          "name": "approved",
          "type": "address"
        },
        {
          "indexed": true,
          "internalType": "uint256",
          "name": "tokenId",
          "type": "uint256"
        }
      ],
      "name": "Approval",
      "type": "event"
    },
    {
      "anonymous": false,
      "inputs": [
        {
          "indexed": true,
          "internalType": "address",
          "name": "owner",
          "type": "address"
        },
        {
          "indexed": true,
          "internalType": "address",
          "name": "operator",
          "type": "address"
        },
        {
          "indexed": false,
          "internalType": "bool",
          "name": "approved",
          "type": "bool"
        }
      ],
      "name": "ApprovalForAll",
      "type": "event"
    },
    {
      "anonymous": false,
      "inputs": [
        {
          "indexed": true,
          "internalType": "uint256",
          "name": "fromTokenId",
          "type": "uint256"
        },
        {
          "indexed": false,
          "internalType": "uint256",
          "name": "toTokenId",
          "type": "uint256"
        },
        {
          "indexed": true,
          "internalType": "address",
          "name": "from",
          "type": "address"
        },
        {
          "indexed": true,
          "internalType": "address",
          "name": "to",
          "type": "address"
        }
      ],
      "name": "ConsecutiveTransfer",
      "type": "event"
    },
    {
      "anonymous": false,
      "inputs": [
        {
          "indexed": true,
          "internalType": "address",
          "name": "from",
          "type": "address"
        },
        {
          "indexed": true,
          "internalType": "address",
          "name": "to",
          "type": "address"
        },
        {
          "indexed": true,
          "internalType": "uint256",
          "name": "tokenId",
          "type": "uint256"
        }
      ],
      "name": "Transfer",
      "type": "event"
    },
    {
      "anonymous": false,
      "inputs": [
        {
          "indexed": false,
          "internalType": "bytes32[]",
          "name": "proof",
          "type": "bytes32[]"
        },
        {
          "indexed": false,
          "internalType": "address",
          "name": "addr",
          "type": "address"
        },
        {
          "indexed": false,
          "internalType": "uint256",
          "name": "amount",
          "type": "uint256"
        }
      ],
      "name": "verifyMerkleTreeEvent",
      "type": "event"
    },
    {
      "inputs": [
        {
          "internalType": "address",
          "name": "to",
          "type": "address"
        },
        {
          "internalType": "uint256",
          "name": "tokenId",
          "type": "uint256"
        }
      ],
      "name": "approve",
      "outputs": [],
      "stateMutability": "payable",
      "type": "function"
    },
    {
      "inputs": [
        {
          "internalType": "address",
          "name": "owner",
          "type": "address"
        }
      ],
      "name": "balanceOf",
      "outputs": [
        {
          "internalType": "uint256",
          "name": "",
          "type": "uint256"
        }
      ],
      "stateMutability": "view",
      "type": "function"
    },
    {
      "inputs": [
        {
          "internalType": "uint256",
          "name": "tokenId",
          "type": "uint256"
        }
      ],
      "name": "getApproved",
      "outputs": [
        {
          "internalType": "address",
          "name": "",
          "type": "address"
        }
      ],
      "stateMutability": "view",
      "type": "function"
    },
    {
      "inputs": [],
      "name": "getRoot",
      "outputs": [
        {
          "internalType": "bytes32",
          "name": "",
          "type": "bytes32"
        }
      ],
      "stateMutability": "view",
      "type": "function"
    },
    {
      "inputs": [
        {
          "internalType": "address",
          "name": "owner",
          "type": "address"
        },
        {
          "internalType": "address",
          "name": "operator",
          "type": "address"
        }
      ],
      "name": "isApprovedForAll",
      "outputs": [
        {
          "internalType": "bool",
          "name": "",
          "type": "bool"
        }
      ],
      "stateMutability": "view",
      "type": "function"
    },
    {
      "inputs": [
        {
          "internalType": "uint256",
          "name": "quantity",
          "type": "uint256"
        },
        {
          "internalType": "bytes32[]",
          "name": "proof",
          "type": "bytes32[]"
        }
      ],
      "name": "mint",
      "outputs": [],
      "stateMutability": "payable",
      "type": "function"
    },
    {
      "inputs": [],
      "name": "name",
      "outputs": [
        {
          "internalType": "string",
          "name": "",
          "type": "string"
        }
      ],
      "stateMutability": "view",
      "type": "function"
    },
    {
      "inputs": [
        {
          "internalType": "uint256",
          "name": "tokenId",
          "type": "uint256"
        }
      ],
      "name": "ownerOf",
      "outputs": [
        {
          "internalType": "address",
          "name": "",
          "type": "address"
        }
      ],
      "stateMutability": "view",
      "type": "function"
    },
    {
      "inputs": [
        {
          "internalType": "address",
          "name": "from",
          "type": "address"
        },
        {
          "internalType": "address",
          "name": "to",
          "type": "address"
        },
        {
          "internalType": "uint256",
          "name": "tokenId",
          "type": "uint256"
        }
      ],
      "name": "safeTransferFrom",
      "outputs": [],
      "stateMutability": "payable",
      "type": "function"
    },
    {
      "inputs": [
        {
          "internalType": "address",
          "name": "from",
          "type": "address"
        },
        {
          "internalType": "address",
          "name": "to",
          "type": "address"
        },
        {
          "internalType": "uint256",
          "name": "tokenId",
          "type": "uint256"
        },
        {
          "internalType": "bytes",
          "name": "_data",
          "type": "bytes"
        }
      ],
      "name": "safeTransferFrom",
      "outputs": [],
      "stateMutability": "payable",
      "type": "function"
    },
    {
      "inputs": [
        {
          "internalType": "address",
          "name": "operator",
          "type": "address"
        },
        {
          "internalType": "bool",
          "name": "approved",
          "type": "bool"
        }
      ],
      "name": "setApprovalForAll",
      "outputs": [],
      "stateMutability": "nonpayable",
      "type": "function"
    },
    {
      "inputs": [
        {
          "internalType": "bytes32",
          "name": "_root",
          "type": "bytes32"
        }
      ],
      "name": "setRoot",
      "outputs": [],
      "stateMutability": "nonpayable",
      "type": "function"
    },
    {
      "inputs": [
        {
          "internalType": "bytes4",
          "name": "interfaceId",
          "type": "bytes4"
        }
      ],
      "name": "supportsInterface",
      "outputs": [
        {
          "internalType": "bool",
          "name": "",
          "type": "bool"
        }
      ],
      "stateMutability": "view",
      "type": "function"
    },
    {
      "inputs": [],
      "name": "symbol",
      "outputs": [
        {
          "internalType": "string",
          "name": "",
          "type": "string"
        }
      ],
      "stateMutability": "view",
      "type": "function"
    },
    {
      "inputs": [
        {
          "internalType": "uint256",
          "name": "tokenId",
          "type": "uint256"
        }
      ],
      "name": "tokenURI",
      "outputs": [
        {
          "internalType": "string",
          "name": "",
          "type": "string"
        }
      ],
      "stateMutability": "view",
      "type": "function"
    },
    {
      "inputs": [],
      "name": "totalSupply",
      "outputs": [
        {
          "internalType": "uint256",
          "name": "",
          "type": "uint256"
        }
      ],
      "stateMutability": "view",
      "type": "function"
    },
    {
      "inputs": [
        {
          "internalType": "address",
          "name": "from",
          "type": "address"
        },
        {
          "internalType": "address",
          "name": "to",
          "type": "address"
        },
        {
          "internalType": "uint256",
          "name": "tokenId",
          "type": "uint256"
        }
      ],
      "name": "transferFrom",
      "outputs": [],
      "stateMutability": "payable",
      "type": "function"
    },
    {
      "inputs": [
        {
          "internalType": "bytes32[]",
          "name": "proof",
          "type": "bytes32[]"
        },
        {
          "internalType": "address",
          "name": "addr",
          "type": "address"
        },
        {
          "internalType": "uint256",
          "name": "amount",
          "type": "uint256"
        }
      ],
      "name": "verifyMerkleTree",
      "outputs": [],
      "stateMutability": "view",
      "type": "function"
    }
  ],
  "bytecode": "0x60806040523480156200001157600080fd5b5060405162002ad238038062002ad2833981810160405281019062000037919062000299565b828281600290816200004a91906200057e565b5080600390816200005c91906200057e565b506200006d620000c660201b60201c565b60008190555050508060088190555033600960006101000a81548173ffffffffffffffffffffffffffffffffffffffff021916908373ffffffffffffffffffffffffffffffffffffffff16021790555050505062000665565b600090565b6000604051905090565b600080fd5b600080fd5b600080fd5b600080fd5b6000601f19601f8301169050919050565b7f4e487b7100000000000000000000000000000000000000000000000000000000600052604160045260246000fd5b6200013482620000e9565b810181811067ffffffffffffffff82111715620001565762000155620000fa565b5b80604052505050565b60006200016b620000cb565b905062000179828262000129565b919050565b600067ffffffffffffffff8211156200019c576200019b620000fa565b5b620001a782620000e9565b9050602081019050919050565b60005b83811015620001d4578082015181840152602081019050620001b7565b60008484015250505050565b6000620001f7620001f1846200017e565b6200015f565b905082815260208101848484011115620002165762000215620000e4565b5b62000223848285620001b4565b509392505050565b600082601f830112620002435762000242620000df565b5b815162000255848260208601620001e0565b91505092915050565b6000819050919050565b62000273816200025e565b81146200027f57600080fd5b50565b600081519050620002938162000268565b92915050565b600080600060608486031215620002b557620002b4620000d5565b5b600084015167ffffffffffffffff811115620002d657620002d5620000da565b5b620002e4868287016200022b565b935050602084015167ffffffffffffffff811115620003085762000307620000da565b5b62000316868287016200022b565b9250506040620003298682870162000282565b9150509250925092565b600081519050919050565b7f4e487b7100000000000000000000000000000000000000000000000000000000600052602260045260246000fd5b600060028204905060018216806200038657607f821691505b6020821081036200039c576200039b6200033e565b5b50919050565b60008190508160005260206000209050919050565b60006020601f8301049050919050565b600082821b905092915050565b600060088302620004067fffffffffffffffffffffffffffffffffffffffffffffffffffffffffffffffff82620003c7565b620004128683620003c7565b95508019841693508086168417925050509392505050565b6000819050919050565b6000819050919050565b60006200045f6200045962000453846200042a565b62000434565b6200042a565b9050919050565b6000819050919050565b6200047b836200043e565b620004936200048a8262000466565b848454620003d4565b825550505050565b600090565b620004aa6200049b565b620004b781848462000470565b505050565b5b81811015620004df57620004d3600082620004a0565b600181019050620004bd565b5050565b601f8211156200052e57620004f881620003a2565b6200050384620003b7565b8101602085101562000513578190505b6200052b6200052285620003b7565b830182620004bc565b50505b505050565b600082821c905092915050565b6000620005536000198460080262000533565b1980831691505092915050565b60006200056e838362000540565b9150826002028217905092915050565b620005898262000333565b67ffffffffffffffff811115620005a557620005a4620000fa565b5b620005b182546200036d565b620005be828285620004e3565b600060209050601f831160018114620005f65760008415620005e1578287015190505b620005ed858262000560565b8655506200065d565b601f1984166200060686620003a2565b60005b82811015620006305784890151825560018201915060208501945060208101905062000609565b868310156200065057848901516200064c601f89168262000540565b8355505b6001600288020188555050505b505050505050565b61245d80620006756000396000f3fe6080604052600436106101095760003560e01c80636352211e11610095578063b88d4fde11610064578063b88d4fde14610354578063ba41b0c614610370578063c87b56dd1461038c578063dab5f340146103c9578063e985e9c5146103f257610109565b80636352211e1461028657806370a08231146102c357806395d89b4114610300578063a22cb4651461032b57610109565b8063095ea7b3116100dc578063095ea7b3146101dc57806318160ddd146101f857806323b872dd1461022357806342842e0e1461023f5780635ca1e1651461025b57610109565b806301ffc9a71461010e578063031caedd1461014b57806306fdde0314610174578063081812fc1461019f575b600080fd5b34801561011a57600080fd5b50610135600480360381019061013091906117a5565b61042f565b60405161014291906117ed565b60405180910390f35b34801561015757600080fd5b50610172600480360381019061016d9190611a2b565b6104c1565b005b34801561018057600080fd5b50610189610566565b6040516101969190611b19565b60405180910390f35b3480156101ab57600080fd5b506101c660048036038101906101c19190611b3b565b6105f8565b6040516101d39190611b77565b60405180910390f35b6101f660048036038101906101f19190611b92565b610677565b005b34801561020457600080fd5b5061020d6107bb565b60405161021a9190611be1565b60405180910390f35b61023d60048036038101906102389190611bfc565b6107d2565b005b61025960048036038101906102549190611bfc565b610af4565b005b34801561026757600080fd5b50610270610b14565b60405161027d9190611c5e565b60405180910390f35b34801561029257600080fd5b506102ad60048036038101906102a89190611b3b565b610b1e565b6040516102ba9190611b77565b60405180910390f35b3480156102cf57600080fd5b506102ea60048036038101906102e59190611c79565b610b30565b6040516102f79190611be1565b60405180910390f35b34801561030c57600080fd5b50610315610be8565b6040516103229190611b19565b60405180910390f35b34801561033757600080fd5b50610352600480360381019061034d9190611cd2565b610c7a565b005b61036e60048036038101906103699190611dc7565b610d85565b005b61038a60048036038101906103859190611e4a565b610df8565b005b34801561039857600080fd5b506103b360048036038101906103ae9190611b3b565b610f31565b6040516103c09190611b19565b60405180910390f35b3480156103d557600080fd5b506103f060048036038101906103eb9190611ea6565b610fcf565b005b3480156103fe57600080fd5b5061041960048036038101906104149190611ed3565b611069565b60405161042691906117ed565b60405180910390f35b60006301ffc9a760e01b827bffffffffffffffffffffffffffffffffffffffffffffffffffffffff1916148061048a57506380ac58cd60e01b827bffffffffffffffffffffffffffffffffffffffffffffffffffffffff1916145b806104ba5750635b5e139f60e01b827bffffffffffffffffffffffffffffffffffffffffffffffffffffffff1916145b9050919050565b600082826040516020016104d6929190611f13565b604051602081830303815290604052805190602001206040516020016104fc9190611f5d565b60405160208183030381529060405280519060200120905061052184600854836110fd565b610560576040517f08c379a000000000000000000000000000000000000000000000000000000000815260040161055790611fc4565b60405180910390fd5b50505050565b60606002805461057590612013565b80601f01602080910402602001604051908101604052809291908181526020018280546105a190612013565b80156105ee5780601f106105c3576101008083540402835291602001916105ee565b820191906000526020600020905b8154815290600101906020018083116105d157829003601f168201915b5050505050905090565b600061060382611114565b610639576040517fcf4700e400000000000000000000000000000000000000000000000000000000815260040160405180910390fd5b6006600083815260200190815260200160002060000160009054906101000a900473ffffffffffffffffffffffffffffffffffffffff169050919050565b600061068282610b1e565b90508073ffffffffffffffffffffffffffffffffffffffff166106a3611173565b73ffffffffffffffffffffffffffffffffffffffff1614610706576106cf816106ca611173565b611069565b610705576040517fcfb3b94200000000000000000000000000000000000000000000000000000000815260040160405180910390fd5b5b826006600084815260200190815260200160002060000160006101000a81548173ffffffffffffffffffffffffffffffffffffffff021916908373ffffffffffffffffffffffffffffffffffffffff160217905550818373ffffffffffffffffffffffffffffffffffffffff168273ffffffffffffffffffffffffffffffffffffffff167f8c5be1e5ebec7d5bd14f71427d1e84f3dd0314c0f7b2291e5b200ac8c7c3b92560405160405180910390a4505050565b60006107c561117b565b6001546000540303905090565b60006107dd82611180565b90508373ffffffffffffffffffffffffffffffffffffffff168173ffffffffffffffffffffffffffffffffffffffff1614610844576040517fa114810000000000000000000000000000000000000000000000000000000000815260040160405180910390fd5b6000806108508461124c565b915091506108668187610861611173565b611273565b6108b25761087b86610876611173565b611069565b6108b1576040517f59c896be00000000000000000000000000000000000000000000000000000000815260040160405180910390fd5b5b600073ffffffffffffffffffffffffffffffffffffffff168573ffffffffffffffffffffffffffffffffffffffff1603610918576040517fea553b3400000000000000000000000000000000000000000000000000000000815260040160405180910390fd5b61092586868660016112b7565b801561093057600082555b600560008773ffffffffffffffffffffffffffffffffffffffff1673ffffffffffffffffffffffffffffffffffffffff168152602001908152602001600020600081546001900391905081905550600560008673ffffffffffffffffffffffffffffffffffffffff1673ffffffffffffffffffffffffffffffffffffffff16815260200190815260200160002060008154600101919050819055506109fe856109da8888876112bd565b7c0200000000000000000000000000000000000000000000000000000000176112e5565b600460008681526020019081526020016000208190555060007c0200000000000000000000000000000000000000000000000000000000841603610a845760006001850190506000600460008381526020019081526020016000205403610a82576000548114610a81578360046000838152602001908152602001600020819055505b5b505b838573ffffffffffffffffffffffffffffffffffffffff168773ffffffffffffffffffffffffffffffffffffffff167fddf252ad1be2c89b69c2b068fc378daa952ba7f163c4a11628f55a4df523b3ef60405160405180910390a4610aec8686866001611310565b505050505050565b610b0f83838360405180602001604052806000815250610d85565b505050565b6000600854905090565b6000610b2982611180565b9050919050565b60008073ffffffffffffffffffffffffffffffffffffffff168273ffffffffffffffffffffffffffffffffffffffff1603610b97576040517f8f4eb60400000000000000000000000000000000000000000000000000000000815260040160405180910390fd5b67ffffffffffffffff600560008473ffffffffffffffffffffffffffffffffffffffff1673ffffffffffffffffffffffffffffffffffffffff16815260200190815260200160002054169050919050565b606060038054610bf790612013565b80601f0160208091040260200160405190810160405280929190818152602001828054610c2390612013565b8015610c705780601f10610c4557610100808354040283529160200191610c70565b820191906000526020600020905b815481529060010190602001808311610c5357829003601f168201915b5050505050905090565b8060076000610c87611173565b73ffffffffffffffffffffffffffffffffffffffff1673ffffffffffffffffffffffffffffffffffffffff16815260200190815260200160002060008473ffffffffffffffffffffffffffffffffffffffff1673ffffffffffffffffffffffffffffffffffffffff16815260200190815260200160002060006101000a81548160ff0219169083151502179055508173ffffffffffffffffffffffffffffffffffffffff16610d34611173565b73ffffffffffffffffffffffffffffffffffffffff167f17307eab39ab6107e8899845ad3d59bd9653f200f220920489ca2b5937696c3183604051610d7991906117ed565b60405180910390a35050565b610d908484846107d2565b60008373ffffffffffffffffffffffffffffffffffffffff163b14610df257610dbb84848484611316565b610df1576040517fd1a57ed600000000000000000000000000000000000000000000000000000000815260040160405180910390fd5b5b50505050565b600a60003373ffffffffffffffffffffffffffffffffffffffff1673ffffffffffffffffffffffffffffffffffffffff16815260200190815260200160002060009054906101000a900460ff1615610e85576040517f08c379a0000000000000000000000000000000000000000000000000000000008152600401610e7c90612090565b60405180910390fd5b7fe1a05e664a1fe26ce4c5abd6444142fbfa003e9870e16eaaa21017fd6eee6c0f813384604051610eb89392919061216e565b60405180910390a1610ecb8133846104c1565b610ed53383611466565b6001600a60003373ffffffffffffffffffffffffffffffffffffffff1673ffffffffffffffffffffffffffffffffffffffff16815260200190815260200160002060006101000a81548160ff0219169083151502179055505050565b6060610f3c82611114565b610f72576040517fa14c4b5000000000000000000000000000000000000000000000000000000000815260040160405180910390fd5b6000610f7c611621565b90506000815103610f9c5760405180602001604052806000815250610fc7565b80610fa684611638565b604051602001610fb79291906121e8565b6040516020818303038152906040525b915050919050565b600960009054906101000a900473ffffffffffffffffffffffffffffffffffffffff1673ffffffffffffffffffffffffffffffffffffffff163373ffffffffffffffffffffffffffffffffffffffff161461105f576040517f08c379a00000000000000000000000000000000000000000000000000000000081526004016110569061227e565b60405180910390fd5b8060088190555050565b6000600760008473ffffffffffffffffffffffffffffffffffffffff1673ffffffffffffffffffffffffffffffffffffffff16815260200190815260200160002060008373ffffffffffffffffffffffffffffffffffffffff1673ffffffffffffffffffffffffffffffffffffffff16815260200190815260200160002060009054906101000a900460ff16905092915050565b60008261110a8584611688565b1490509392505050565b60008161111f61117b565b1115801561112e575060005482105b801561116c575060007c0100000000000000000000000000000000000000000000000000000000600460008581526020019081526020016000205416145b9050919050565b600033905090565b600090565b6000808290508061118f61117b565b11611215576000548110156112145760006004600083815260200190815260200160002054905060007c0100000000000000000000000000000000000000000000000000000000821603611212575b600081036112085760046000836001900393508381526020019081526020016000205490506111de565b8092505050611247565b505b5b6040517fdf2d9b4200000000000000000000000000000000000000000000000000000000815260040160405180910390fd5b919050565b60008060006006600085815260200190815260200160002090508092508254915050915091565b600073ffffffffffffffffffffffffffffffffffffffff8316925073ffffffffffffffffffffffffffffffffffffffff821691508382148383141790509392505050565b50505050565b60008060e883901c905060e86112d48686846116de565b62ffffff16901b9150509392505050565b600073ffffffffffffffffffffffffffffffffffffffff83169250814260a01b178317905092915050565b50505050565b60008373ffffffffffffffffffffffffffffffffffffffff1663150b7a0261133c611173565b8786866040518563ffffffff1660e01b815260040161135e94939291906122f3565b6020604051808303816000875af192505050801561139a57506040513d601f19601f820116820180604052508101906113979190612354565b60015b611413573d80600081146113ca576040519150601f19603f3d011682016040523d82523d6000602084013e6113cf565b606091505b50600081510361140b576040517fd1a57ed600000000000000000000000000000000000000000000000000000000815260040160405180910390fd5b805181602001fd5b63150b7a0260e01b7bffffffffffffffffffffffffffffffffffffffffffffffffffffffff1916817bffffffffffffffffffffffffffffffffffffffffffffffffffffffff191614915050949350505050565b600080549050600082036114a6576040517fb562e8dd00000000000000000000000000000000000000000000000000000000815260040160405180910390fd5b6114b360008483856112b7565b600160406001901b178202600560008573ffffffffffffffffffffffffffffffffffffffff1673ffffffffffffffffffffffffffffffffffffffff1681526020019081526020016000206000828254019250508190555061152a8361151b60008660006112bd565b611524856116e7565b176112e5565b6004600083815260200190815260200160002081905550600080838301905073ffffffffffffffffffffffffffffffffffffffff85169150828260007fddf252ad1be2c89b69c2b068fc378daa952ba7f163c4a11628f55a4df523b3ef600080a4600183015b8181146115cb57808360007fddf252ad1be2c89b69c2b068fc378daa952ba7f163c4a11628f55a4df523b3ef600080a4600181019050611590565b5060008203611606576040517f2e07630000000000000000000000000000000000000000000000000000000000815260040160405180910390fd5b80600081905550505061161c6000848385611310565b505050565b606060405180602001604052806000815250905090565b606060a060405101806040526020810391506000825281835b60011561167357600184039350600a81066030018453600a8104905080611651575b50828103602084039350808452505050919050565b60008082905060005b84518110156116d3576116be828683815181106116b1576116b0612381565b5b60200260200101516116f7565b915080806116cb906123df565b915050611691565b508091505092915050565b60009392505050565b60006001821460e11b9050919050565b600081831061170f5761170a8284611722565b61171a565b6117198383611722565b5b905092915050565b600082600052816020526040600020905092915050565b6000604051905090565b600080fd5b600080fd5b60007fffffffff0000000000000000000000000000000000000000000000000000000082169050919050565b6117828161174d565b811461178d57600080fd5b50565b60008135905061179f81611779565b92915050565b6000602082840312156117bb576117ba611743565b5b60006117c984828501611790565b91505092915050565b60008115159050919050565b6117e7816117d2565b82525050565b600060208201905061180260008301846117de565b92915050565b600080fd5b6000601f19601f8301169050919050565b7f4e487b7100000000000000000000000000000000000000000000000000000000600052604160045260246000fd5b6118568261180d565b810181811067ffffffffffffffff821117156118755761187461181e565b5b80604052505050565b6000611888611739565b9050611894828261184d565b919050565b600067ffffffffffffffff8211156118b4576118b361181e565b5b602082029050602081019050919050565b600080fd5b6000819050919050565b6118dd816118ca565b81146118e857600080fd5b50565b6000813590506118fa816118d4565b92915050565b600061191361190e84611899565b61187e565b90508083825260208201905060208402830185811115611936576119356118c5565b5b835b8181101561195f578061194b88826118eb565b845260208401935050602081019050611938565b5050509392505050565b600082601f83011261197e5761197d611808565b5b813561198e848260208601611900565b91505092915050565b600073ffffffffffffffffffffffffffffffffffffffff82169050919050565b60006119c282611997565b9050919050565b6119d2816119b7565b81146119dd57600080fd5b50565b6000813590506119ef816119c9565b92915050565b6000819050919050565b611a08816119f5565b8114611a1357600080fd5b50565b600081359050611a25816119ff565b92915050565b600080600060608486031215611a4457611a43611743565b5b600084013567ffffffffffffffff811115611a6257611a61611748565b5b611a6e86828701611969565b9350506020611a7f868287016119e0565b9250506040611a9086828701611a16565b9150509250925092565b600081519050919050565b600082825260208201905092915050565b60005b83811015611ad4578082015181840152602081019050611ab9565b60008484015250505050565b6000611aeb82611a9a565b611af58185611aa5565b9350611b05818560208601611ab6565b611b0e8161180d565b840191505092915050565b60006020820190508181036000830152611b338184611ae0565b905092915050565b600060208284031215611b5157611b50611743565b5b6000611b5f84828501611a16565b91505092915050565b611b71816119b7565b82525050565b6000602082019050611b8c6000830184611b68565b92915050565b60008060408385031215611ba957611ba8611743565b5b6000611bb7858286016119e0565b9250506020611bc885828601611a16565b9150509250929050565b611bdb816119f5565b82525050565b6000602082019050611bf66000830184611bd2565b92915050565b600080600060608486031215611c1557611c14611743565b5b6000611c23868287016119e0565b9350506020611c34868287016119e0565b9250506040611c4586828701611a16565b9150509250925092565b611c58816118ca565b82525050565b6000602082019050611c736000830184611c4f565b92915050565b600060208284031215611c8f57611c8e611743565b5b6000611c9d848285016119e0565b91505092915050565b611caf816117d2565b8114611cba57600080fd5b50565b600081359050611ccc81611ca6565b92915050565b60008060408385031215611ce957611ce8611743565b5b6000611cf7858286016119e0565b9250506020611d0885828601611cbd565b9150509250929050565b600080fd5b600067ffffffffffffffff821115611d3257611d3161181e565b5b611d3b8261180d565b9050602081019050919050565b82818337600083830152505050565b6000611d6a611d6584611d17565b61187e565b905082815260208101848484011115611d8657611d85611d12565b5b611d91848285611d48565b509392505050565b600082601f830112611dae57611dad611808565b5b8135611dbe848260208601611d57565b91505092915050565b60008060008060808587031215611de157611de0611743565b5b6000611def878288016119e0565b9450506020611e00878288016119e0565b9350506040611e1187828801611a16565b925050606085013567ffffffffffffffff811115611e3257611e31611748565b5b611e3e87828801611d99565b91505092959194509250565b60008060408385031215611e6157611e60611743565b5b6000611e6f85828601611a16565b925050602083013567ffffffffffffffff811115611e9057611e8f611748565b5b611e9c85828601611969565b9150509250929050565b600060208284031215611ebc57611ebb611743565b5b6000611eca848285016118eb565b91505092915050565b60008060408385031215611eea57611ee9611743565b5b6000611ef8858286016119e0565b9250506020611f09858286016119e0565b9150509250929050565b6000604082019050611f286000830185611b68565b611f356020830184611bd2565b9392505050565b6000819050919050565b611f57611f52826118ca565b611f3c565b82525050565b6000611f698284611f46565b60208201915081905092915050565b7f496e76616c69642070726f6f6600000000000000000000000000000000000000600082015250565b6000611fae600d83611aa5565b9150611fb982611f78565b602082019050919050565b60006020820190508181036000830152611fdd81611fa1565b9050919050565b7f4e487b7100000000000000000000000000000000000000000000000000000000600052602260045260246000fd5b6000600282049050600182168061202b57607f821691505b60208210810361203e5761203d611fe4565b5b50919050565b7f416c7265616479206d696e746564000000000000000000000000000000000000600082015250565b600061207a600e83611aa5565b915061208582612044565b602082019050919050565b600060208201905081810360008301526120a98161206d565b9050919050565b600081519050919050565b600082825260208201905092915050565b6000819050602082019050919050565b6120e5816118ca565b82525050565b60006120f783836120dc565b60208301905092915050565b6000602082019050919050565b600061211b826120b0565b61212581856120bb565b9350612130836120cc565b8060005b8381101561216157815161214888826120eb565b975061215383612103565b925050600181019050612134565b5085935050505092915050565b600060608201905081810360008301526121888186612110565b90506121976020830185611b68565b6121a46040830184611bd2565b949350505050565b600081905092915050565b60006121c282611a9a565b6121cc81856121ac565b93506121dc818560208601611ab6565b80840191505092915050565b60006121f482856121b7565b915061220082846121b7565b91508190509392505050565b7f4f6e6c79206f776e65722063616e2063616c6c20746869732066756e6374696f60008201527f6e2e000000000000000000000000000000000000000000000000000000000000602082015250565b6000612268602283611aa5565b91506122738261220c565b604082019050919050565b600060208201905081810360008301526122978161225b565b9050919050565b600081519050919050565b600082825260208201905092915050565b60006122c58261229e565b6122cf81856122a9565b93506122df818560208601611ab6565b6122e88161180d565b840191505092915050565b60006080820190506123086000830187611b68565b6123156020830186611b68565b6123226040830185611bd2565b818103606083015261233481846122ba565b905095945050505050565b60008151905061234e81611779565b92915050565b60006020828403121561236a57612369611743565b5b60006123788482850161233f565b91505092915050565b7f4e487b7100000000000000000000000000000000000000000000000000000000600052603260045260246000fd5b7f4e487b7100000000000000000000000000000000000000000000000000000000600052601160045260246000fd5b60006123ea826119f5565b91507fffffffffffffffffffffffffffffffffffffffffffffffffffffffffffffffff820361241c5761241b6123b0565b5b60018201905091905056fea2646970667358221220d8de3f853552bea2dbadbf0cf165011db37a04b2785e0bd5cd8254ac042be60c64736f6c63430008130033",
  "linkReferences": {},
  "deployedLinkReferences": {}
}