{
  "_format": "hh-sol-artifact-1",
  "contractName": "LINK2",
  "sourceName": "contracts/NFT-test.sol",
  "abi": [
    {
      "inputs": [
        {
          "internalType": "string",
          "name": "name_",
          "type": "string"
        },
        {
          "internalType": "string",
          "name": "symbol_",
          "type": "string"
        }
      ],
      "stateMutability": "nonpayable",
      "type": "constructor"
    },
    {
      "anonymous": false,
      "inputs": [
        {
          "indexed": true,
          "internalType": "address",
          "name": "owner",
          "type": "address"
        },
        {
          "indexed": true,
          "internalType": "address",
          "name": "approved",
          "type": "address"
        },
        {
          "indexed": true,
          "internalType": "uint256",
          "name": "tokenId",
          "type": "uint256"
        }
      ],
      "name": "Approval",
      "type": "event"
    },
    {
      "anonymous": false,
      "inputs": [
        {
          "indexed": true,
          "internalType": "address",
          "name": "owner",
          "type": "address"
        },
        {
          "indexed": true,
          "internalType": "address",
          "name": "operator",
          "type": "address"
        },
        {
          "indexed": false,
          "internalType": "bool",
          "name": "approved",
          "type": "bool"
        }
      ],
      "name": "ApprovalForAll",
      "type": "event"
    },
    {
      "anonymous": false,
      "inputs": [
        {
          "indexed": true,
          "internalType": "address",
          "name": "from",
          "type": "address"
        },
        {
          "indexed": true,
          "internalType": "address",
          "name": "to",
          "type": "address"
        },
        {
          "indexed": true,
          "internalType": "uint256",
          "name": "tokenId",
          "type": "uint256"
        }
      ],
      "name": "Transfer",
      "type": "event"
    },
    {
      "inputs": [],
      "name": "MAX_LINK",
      "outputs": [
        {
          "internalType": "uint256",
          "name": "",
          "type": "uint256"
        }
      ],
      "stateMutability": "view",
      "type": "function"
    },
    {
      "inputs": [
        {
          "internalType": "address",
          "name": "to",
          "type": "address"
        },
        {
          "internalType": "uint256",
          "name": "tokenId",
          "type": "uint256"
        }
      ],
      "name": "approve",
      "outputs": [],
      "stateMutability": "nonpayable",
      "type": "function"
    },
    {
      "inputs": [
        {
          "internalType": "address",
          "name": "owner",
          "type": "address"
        }
      ],
      "name": "balanceOf",
      "outputs": [
        {
          "internalType": "uint256",
          "name": "",
          "type": "uint256"
        }
      ],
      "stateMutability": "view",
      "type": "function"
    },
    {
      "inputs": [
        {
          "internalType": "uint256",
          "name": "tokenId",
          "type": "uint256"
        }
      ],
      "name": "getApproved",
      "outputs": [
        {
          "internalType": "address",
          "name": "",
          "type": "address"
        }
      ],
      "stateMutability": "view",
      "type": "function"
    },
    {
      "inputs": [
        {
          "internalType": "address",
          "name": "owner",
          "type": "address"
        },
        {
          "internalType": "address",
          "name": "operator",
          "type": "address"
        }
      ],
      "name": "isApprovedForAll",
      "outputs": [
        {
          "internalType": "bool",
          "name": "",
          "type": "bool"
        }
      ],
      "stateMutability": "view",
      "type": "function"
    },
    {
      "inputs": [
        {
          "internalType": "address",
          "name": "to",
          "type": "address"
        },
        {
          "internalType": "uint256",
          "name": "tokenId",
          "type": "uint256"
        }
      ],
      "name": "mint",
      "outputs": [],
      "stateMutability": "nonpayable",
      "type": "function"
    },
    {
      "inputs": [
        {
          "internalType": "address",
          "name": "",
          "type": "address"
        }
      ],
      "name": "mintedAddress",
      "outputs": [
        {
          "internalType": "bool",
          "name": "",
          "type": "bool"
        }
      ],
      "stateMutability": "view",
      "type": "function"
    },
    {
      "inputs": [],
      "name": "name",
      "outputs": [
        {
          "internalType": "string",
          "name": "",
          "type": "string"
        }
      ],
      "stateMutability": "view",
      "type": "function"
    },
    {
      "inputs": [
        {
          "internalType": "uint256",
          "name": "tokenId",
          "type": "uint256"
        }
      ],
      "name": "ownerOf",
      "outputs": [
        {
          "internalType": "address",
          "name": "owner",
          "type": "address"
        }
      ],
      "stateMutability": "view",
      "type": "function"
    },
    {
      "inputs": [
        {
          "internalType": "address",
          "name": "from",
          "type": "address"
        },
        {
          "internalType": "address",
          "name": "to",
          "type": "address"
        },
        {
          "internalType": "uint256",
          "name": "tokenId",
          "type": "uint256"
        }
      ],
      "name": "safeTransferFrom",
      "outputs": [],
      "stateMutability": "nonpayable",
      "type": "function"
    },
    {
      "inputs": [
        {
          "internalType": "address",
          "name": "from",
          "type": "address"
        },
        {
          "internalType": "address",
          "name": "to",
          "type": "address"
        },
        {
          "internalType": "uint256",
          "name": "tokenId",
          "type": "uint256"
        },
        {
          "internalType": "bytes",
          "name": "_data",
          "type": "bytes"
        }
      ],
      "name": "safeTransferFrom",
      "outputs": [],
      "stateMutability": "nonpayable",
      "type": "function"
    },
    {
      "inputs": [
        {
          "internalType": "address",
          "name": "operator",
          "type": "address"
        },
        {
          "internalType": "bool",
          "name": "approved",
          "type": "bool"
        }
      ],
      "name": "setApprovalForAll",
      "outputs": [],
      "stateMutability": "nonpayable",
      "type": "function"
    },
    {
      "inputs": [
        {
          "internalType": "bytes4",
          "name": "interfaceId",
          "type": "bytes4"
        }
      ],
      "name": "supportsInterface",
      "outputs": [
        {
          "internalType": "bool",
          "name": "",
          "type": "bool"
        }
      ],
      "stateMutability": "pure",
      "type": "function"
    },
    {
      "inputs": [],
      "name": "symbol",
      "outputs": [
        {
          "internalType": "string",
          "name": "",
          "type": "string"
        }
      ],
      "stateMutability": "view",
      "type": "function"
    },
    {
      "inputs": [
        {
          "internalType": "uint256",
          "name": "tokenId",
          "type": "uint256"
        }
      ],
      "name": "tokenURI",
      "outputs": [
        {
          "internalType": "string",
          "name": "",
          "type": "string"
        }
      ],
      "stateMutability": "view",
      "type": "function"
    },
    {
      "inputs": [
        {
          "internalType": "address",
          "name": "from",
          "type": "address"
        },
        {
          "internalType": "address",
          "name": "to",
          "type": "address"
        },
        {
          "internalType": "uint256",
          "name": "tokenId",
          "type": "uint256"
        }
      ],
      "name": "transferFrom",
      "outputs": [],
      "stateMutability": "nonpayable",
      "type": "function"
    }
  ],
  "bytecode": "0x60806040526127106007553480156200001757600080fd5b5060405162002ef638038062002ef683398181016040528101906200003d91906200048d565b818181600090816200005091906200075d565b5080600190816200006291906200075d565b5050506200013e6040518060400160405280600781526020017f6e616d652069730000000000000000000000000000000000000000000000000081525060008054620000ae906200054c565b80601f0160208091040260200160405190810160405280929190818152602001828054620000dc906200054c565b80156200012d5780601f1062000101576101008083540402835291602001916200012d565b820191906000526020600020905b8154815290600101906020018083116200010f57829003601f168201915b50505050506200018d60201b60201c565b620001856040518060400160405280600981526020017f73656e6465722069730000000000000000000000000000000000000000000000815250336200023360201b60201c565b50506200094a565b6200022f8282604051602401620001a692919062000896565b6040516020818303038152906040527f4b5c4277000000000000000000000000000000000000000000000000000000007bffffffffffffffffffffffffffffffffffffffffffffffffffffffff19166020820180517bffffffffffffffffffffffffffffffffffffffffffffffffffffffff8381831617835250505050620002d960201b60201c565b5050565b620002d582826040516024016200024c92919062000916565b6040516020818303038152906040527f319af333000000000000000000000000000000000000000000000000000000007bffffffffffffffffffffffffffffffffffffffffffffffffffffffff19166020820180517bffffffffffffffffffffffffffffffffffffffffffffffffffffffff8381831617835250505050620002d960201b60201c565b5050565b60006a636f6e736f6c652e6c6f679050600080835160208501845afa505050565b6000604051905090565b600080fd5b600080fd5b600080fd5b600080fd5b6000601f19601f8301169050919050565b7f4e487b7100000000000000000000000000000000000000000000000000000000600052604160045260246000fd5b620003638262000318565b810181811067ffffffffffffffff8211171562000385576200038462000329565b5b80604052505050565b60006200039a620002fa565b9050620003a8828262000358565b919050565b600067ffffffffffffffff821115620003cb57620003ca62000329565b5b620003d68262000318565b9050602081019050919050565b60005b8381101562000403578082015181840152602081019050620003e6565b60008484015250505050565b6000620004266200042084620003ad565b6200038e565b90508281526020810184848401111562000445576200044462000313565b5b62000452848285620003e3565b509392505050565b600082601f8301126200047257620004716200030e565b5b8151620004848482602086016200040f565b91505092915050565b60008060408385031215620004a757620004a662000304565b5b600083015167ffffffffffffffff811115620004c857620004c762000309565b5b620004d6858286016200045a565b925050602083015167ffffffffffffffff811115620004fa57620004f962000309565b5b62000508858286016200045a565b9150509250929050565b600081519050919050565b7f4e487b7100000000000000000000000000000000000000000000000000000000600052602260045260246000fd5b600060028204905060018216806200056557607f821691505b6020821081036200057b576200057a6200051d565b5b50919050565b60008190508160005260206000209050919050565b60006020601f8301049050919050565b600082821b905092915050565b600060088302620005e57fffffffffffffffffffffffffffffffffffffffffffffffffffffffffffffffff82620005a6565b620005f18683620005a6565b95508019841693508086168417925050509392505050565b6000819050919050565b6000819050919050565b60006200063e62000638620006328462000609565b62000613565b62000609565b9050919050565b6000819050919050565b6200065a836200061d565b62000672620006698262000645565b848454620005b3565b825550505050565b600090565b620006896200067a565b620006968184846200064f565b505050565b5b81811015620006be57620006b26000826200067f565b6001810190506200069c565b5050565b601f8211156200070d57620006d78162000581565b620006e28462000596565b81016020851015620006f2578190505b6200070a620007018562000596565b8301826200069b565b50505b505050565b600082821c905092915050565b6000620007326000198460080262000712565b1980831691505092915050565b60006200074d83836200071f565b9150826002028217905092915050565b620007688262000512565b67ffffffffffffffff81111562000784576200078362000329565b5b6200079082546200054c565b6200079d828285620006c2565b600060209050601f831160018114620007d55760008415620007c0578287015190505b620007cc85826200073f565b8655506200083c565b601f198416620007e58662000581565b60005b828110156200080f57848901518255600182019150602085019450602081019050620007e8565b868310156200082f57848901516200082b601f8916826200071f565b8355505b6001600288020188555050505b505050505050565b600082825260208201905092915050565b6000620008628262000512565b6200086e818562000844565b935062000880818560208601620003e3565b6200088b8162000318565b840191505092915050565b60006040820190508181036000830152620008b2818562000855565b90508181036020830152620008c8818462000855565b90509392505050565b600073ffffffffffffffffffffffffffffffffffffffff82169050919050565b6000620008fe82620008d1565b9050919050565b6200091081620008f1565b82525050565b6000604082019050818103600083015262000932818562000855565b905062000943602083018462000905565b9392505050565b61259c806200095a6000396000f3fe608060405234801561001057600080fd5b50600436106101005760003560e01c80636352211e11610097578063a22cb46511610066578063a22cb465146102bf578063b88d4fde146102db578063c87b56dd146102f7578063e985e9c51461032757610100565b80636352211e1461022357806370a08231146102535780638e1ab3a01461028357806395d89b41146102a157610100565b806323b872dd116100d357806323b872dd1461019f57806340c10f19146101bb57806342842e0e146101d7578063630303c6146101f357610100565b806301ffc9a71461010557806306fdde0314610135578063081812fc14610153578063095ea7b314610183575b600080fd5b61011f600480360381019061011a91906117c6565b610357565b60405161012c919061180e565b60405180910390f35b61013d610491565b60405161014a91906118b9565b60405180910390f35b61016d60048036038101906101689190611911565b61051f565b60405161017a919061197f565b60405180910390f35b61019d600480360381019061019891906119c6565b6105fd565b005b6101b960048036038101906101b49190611a06565b610744565b005b6101d560048036038101906101d091906119c6565b6107ad565b005b6101f160048036038101906101ec9190611a06565b6108f1565b005b61020d60048036038101906102089190611a59565b610911565b60405161021a919061180e565b60405180910390f35b61023d60048036038101906102389190611911565b610931565b60405161024a919061197f565b60405180910390f35b61026d60048036038101906102689190611a59565b6109dd565b60405161027a9190611a95565b60405180910390f35b61028b610a94565b6040516102989190611a95565b60405180910390f35b6102a9610a9a565b6040516102b691906118b9565b60405180910390f35b6102d960048036038101906102d49190611adc565b610b28565b005b6102f560048036038101906102f09190611c51565b610c25565b005b610311600480360381019061030c9190611911565b610c90565b60405161031e91906118b9565b60405180910390f35b610341600480360381019061033c9190611cd4565b610d91565b60405161034e919061180e565b60405180910390f35b60007f80ac58cd000000000000000000000000000000000000000000000000000000007bffffffffffffffffffffffffffffffffffffffffffffffffffffffff1916827bffffffffffffffffffffffffffffffffffffffffffffffffffffffff1916148061042257507f01ffc9a7000000000000000000000000000000000000000000000000000000007bffffffffffffffffffffffffffffffffffffffffffffffffffffffff1916827bffffffffffffffffffffffffffffffffffffffffffffffffffffffff1916145b8061048a57507f5b5e139f000000000000000000000000000000000000000000000000000000007bffffffffffffffffffffffffffffffffffffffffffffffffffffffff1916827bffffffffffffffffffffffffffffffffffffffffffffffffffffffff1916145b9050919050565b6000805461049e90611d43565b80601f01602080910402602001604051908101604052809291908181526020018280546104ca90611d43565b80156105175780601f106104ec57610100808354040283529160200191610517565b820191906000526020600020905b8154815290600101906020018083116104fa57829003601f168201915b505050505081565b60008073ffffffffffffffffffffffffffffffffffffffff166002600084815260200190815260200160002060009054906101000a900473ffffffffffffffffffffffffffffffffffffffff1673ffffffffffffffffffffffffffffffffffffffff16036105c2576040517f08c379a00000000000000000000000000000000000000000000000000000000081526004016105b990611dc0565b60405180910390fd5b6004600083815260200190815260200160002060009054906101000a900473ffffffffffffffffffffffffffffffffffffffff169050919050565b60006002600083815260200190815260200160002060009054906101000a900473ffffffffffffffffffffffffffffffffffffffff1690508073ffffffffffffffffffffffffffffffffffffffff163373ffffffffffffffffffffffffffffffffffffffff1614806106f55750600560008273ffffffffffffffffffffffffffffffffffffffff1673ffffffffffffffffffffffffffffffffffffffff16815260200190815260200160002060003373ffffffffffffffffffffffffffffffffffffffff1673ffffffffffffffffffffffffffffffffffffffff16815260200190815260200160002060009054906101000a900460ff165b610734576040517f08c379a000000000000000000000000000000000000000000000000000000000815260040161072b90611e2c565b60405180910390fd5b61073f818484610e25565b505050565b600061074f82610931565b905061075c813384610ed7565b61079b576040517f08c379a000000000000000000000000000000000000000000000000000000000815260040161079290611e98565b60405180910390fd5b6107a78185858561100b565b50505050565b600660008373ffffffffffffffffffffffffffffffffffffffff1673ffffffffffffffffffffffffffffffffffffffff16815260200190815260200160002060009054906101000a900460ff161561083a576040517f08c379a000000000000000000000000000000000000000000000000000000000815260040161083190611f04565b60405180910390fd5b6000811015801561084c575060075481105b61088b576040517f08c379a000000000000000000000000000000000000000000000000000000000815260040161088290611f70565b60405180910390fd5b6001600660008473ffffffffffffffffffffffffffffffffffffffff1673ffffffffffffffffffffffffffffffffffffffff16815260200190815260200160002060006101000a81548160ff0219169083151502179055506108ed8282611255565b5050565b61090c83838360405180602001604052806000815250610c25565b505050565b60066020528060005260406000206000915054906101000a900460ff1681565b60006002600083815260200190815260200160002060009054906101000a900473ffffffffffffffffffffffffffffffffffffffff169050600073ffffffffffffffffffffffffffffffffffffffff168173ffffffffffffffffffffffffffffffffffffffff16036109d8576040517f08c379a00000000000000000000000000000000000000000000000000000000081526004016109cf90611dc0565b60405180910390fd5b919050565b60008073ffffffffffffffffffffffffffffffffffffffff168273ffffffffffffffffffffffffffffffffffffffff1603610a4d576040517f08c379a0000000000000000000000000000000000000000000000000000000008152600401610a4490611fdc565b60405180910390fd5b600360008373ffffffffffffffffffffffffffffffffffffffff1673ffffffffffffffffffffffffffffffffffffffff168152602001908152602001600020549050919050565b60075481565b60018054610aa790611d43565b80601f0160208091040260200160405190810160405280929190818152602001828054610ad390611d43565b8015610b205780601f10610af557610100808354040283529160200191610b20565b820191906000526020600020905b815481529060010190602001808311610b0357829003601f168201915b505050505081565b80600560003373ffffffffffffffffffffffffffffffffffffffff1673ffffffffffffffffffffffffffffffffffffffff16815260200190815260200160002060008473ffffffffffffffffffffffffffffffffffffffff1673ffffffffffffffffffffffffffffffffffffffff16815260200190815260200160002060006101000a81548160ff0219169083151502179055508173ffffffffffffffffffffffffffffffffffffffff163373ffffffffffffffffffffffffffffffffffffffff167f17307eab39ab6107e8899845ad3d59bd9653f200f220920489ca2b5937696c3183604051610c19919061180e565b60405180910390a35050565b6000610c3083610931565b9050610c3d813385610ed7565b610c7c576040517f08c379a0000000000000000000000000000000000000000000000000000000008152600401610c7390611e98565b60405180910390fd5b610c89818686868661146f565b5050505050565b6060600073ffffffffffffffffffffffffffffffffffffffff166002600084815260200190815260200160002060009054906101000a900473ffffffffffffffffffffffffffffffffffffffff1673ffffffffffffffffffffffffffffffffffffffff1603610d34576040517f08c379a0000000000000000000000000000000000000000000000000000000008152600401610d2b90612048565b60405180910390fd5b6000610d3e6114cd565b90506000815111610d5e5760405180602001604052806000815250610d89565b80610d68846114e4565b604051602001610d799291906120a4565b6040516020818303038152906040525b915050919050565b6000600560008473ffffffffffffffffffffffffffffffffffffffff1673ffffffffffffffffffffffffffffffffffffffff16815260200190815260200160002060008373ffffffffffffffffffffffffffffffffffffffff1673ffffffffffffffffffffffffffffffffffffffff16815260200190815260200160002060009054906101000a900460ff16905092915050565b816004600083815260200190815260200160002060006101000a81548173ffffffffffffffffffffffffffffffffffffffff021916908373ffffffffffffffffffffffffffffffffffffffff160217905550808273ffffffffffffffffffffffffffffffffffffffff168473ffffffffffffffffffffffffffffffffffffffff167f8c5be1e5ebec7d5bd14f71427d1e84f3dd0314c0f7b2291e5b200ac8c7c3b92560405160405180910390a4505050565b60008373ffffffffffffffffffffffffffffffffffffffff168373ffffffffffffffffffffffffffffffffffffffff161480610f7157508273ffffffffffffffffffffffffffffffffffffffff166004600084815260200190815260200160002060009054906101000a900473ffffffffffffffffffffffffffffffffffffffff1673ffffffffffffffffffffffffffffffffffffffff16145b806110025750600560008573ffffffffffffffffffffffffffffffffffffffff1673ffffffffffffffffffffffffffffffffffffffff16815260200190815260200160002060008473ffffffffffffffffffffffffffffffffffffffff1673ffffffffffffffffffffffffffffffffffffffff16815260200190815260200160002060009054906101000a900460ff165b90509392505050565b8373ffffffffffffffffffffffffffffffffffffffff168373ffffffffffffffffffffffffffffffffffffffff1614611079576040517f08c379a000000000000000000000000000000000000000000000000000000000815260040161107090612114565b60405180910390fd5b600073ffffffffffffffffffffffffffffffffffffffff168273ffffffffffffffffffffffffffffffffffffffff16036110e8576040517f08c379a00000000000000000000000000000000000000000000000000000000081526004016110df90612180565b60405180910390fd5b6110f484600083610e25565b6001600360008573ffffffffffffffffffffffffffffffffffffffff1673ffffffffffffffffffffffffffffffffffffffff168152602001908152602001600020600082825461114491906121cf565b925050819055506001600360008473ffffffffffffffffffffffffffffffffffffffff1673ffffffffffffffffffffffffffffffffffffffff168152602001908152602001600020600082825461119b9190612203565b92505081905550816002600083815260200190815260200160002060006101000a81548173ffffffffffffffffffffffffffffffffffffffff021916908373ffffffffffffffffffffffffffffffffffffffff160217905550808273ffffffffffffffffffffffffffffffffffffffff168473ffffffffffffffffffffffffffffffffffffffff167fddf252ad1be2c89b69c2b068fc378daa952ba7f163c4a11628f55a4df523b3ef60405160405180910390a450505050565b600073ffffffffffffffffffffffffffffffffffffffff168273ffffffffffffffffffffffffffffffffffffffff16036112c4576040517f08c379a00000000000000000000000000000000000000000000000000000000081526004016112bb90612283565b60405180910390fd5b600073ffffffffffffffffffffffffffffffffffffffff166002600083815260200190815260200160002060009054906101000a900473ffffffffffffffffffffffffffffffffffffffff1673ffffffffffffffffffffffffffffffffffffffff1614611366576040517f08c379a000000000000000000000000000000000000000000000000000000000815260040161135d906122ef565b60405180910390fd5b6001600360008473ffffffffffffffffffffffffffffffffffffffff1673ffffffffffffffffffffffffffffffffffffffff16815260200190815260200160002060008282546113b69190612203565b92505081905550816002600083815260200190815260200160002060006101000a81548173ffffffffffffffffffffffffffffffffffffffff021916908373ffffffffffffffffffffffffffffffffffffffff160217905550808273ffffffffffffffffffffffffffffffffffffffff16600073ffffffffffffffffffffffffffffffffffffffff167fddf252ad1be2c89b69c2b068fc378daa952ba7f163c4a11628f55a4df523b3ef60405160405180910390a45050565b61147b8585858561100b565b61148784848484611644565b6114c6576040517f08c379a00000000000000000000000000000000000000000000000000000000081526004016114bd9061235b565b60405180910390fd5b5050505050565b606060405180602001604052806000815250905090565b60606000820361152b576040518060400160405280600181526020017f3000000000000000000000000000000000000000000000000000000000000000815250905061163f565b600082905060005b6000821461155d5780806115469061237b565b915050600a8261155691906123f2565b9150611533565b60008167ffffffffffffffff81111561157957611578611b26565b5b6040519080825280601f01601f1916602001820160405280156115ab5781602001600182028036833780820191505090505b5090505b60008514611638576001826115c491906121cf565b9150600a856115d39190612423565b60306115df9190612203565b60f81b8183815181106115f5576115f4612454565b5b60200101907effffffffffffffffffffffffffffffffffffffffffffffffffffffffffffff1916908160001a905350600a8561163191906123f2565b94506115af565b8093505050505b919050565b60006116658473ffffffffffffffffffffffffffffffffffffffff16611747565b1561173a5763150b7a0260e01b7bffffffffffffffffffffffffffffffffffffffffffffffffffffffff19168473ffffffffffffffffffffffffffffffffffffffff1663150b7a02338887876040518563ffffffff1660e01b81526004016116d094939291906124d8565b6020604051808303816000875af11580156116ef573d6000803e3d6000fd5b505050506040513d601f19601f820116820180604052508101906117139190612539565b7bffffffffffffffffffffffffffffffffffffffffffffffffffffffff191614905061173f565b600190505b949350505050565b600080823b905060008111915050919050565b6000604051905090565b600080fd5b600080fd5b60007fffffffff0000000000000000000000000000000000000000000000000000000082169050919050565b6117a38161176e565b81146117ae57600080fd5b50565b6000813590506117c08161179a565b92915050565b6000602082840312156117dc576117db611764565b5b60006117ea848285016117b1565b91505092915050565b60008115159050919050565b611808816117f3565b82525050565b600060208201905061182360008301846117ff565b92915050565b600081519050919050565b600082825260208201905092915050565b60005b83811015611863578082015181840152602081019050611848565b60008484015250505050565b6000601f19601f8301169050919050565b600061188b82611829565b6118958185611834565b93506118a5818560208601611845565b6118ae8161186f565b840191505092915050565b600060208201905081810360008301526118d38184611880565b905092915050565b6000819050919050565b6118ee816118db565b81146118f957600080fd5b50565b60008135905061190b816118e5565b92915050565b60006020828403121561192757611926611764565b5b6000611935848285016118fc565b91505092915050565b600073ffffffffffffffffffffffffffffffffffffffff82169050919050565b60006119698261193e565b9050919050565b6119798161195e565b82525050565b60006020820190506119946000830184611970565b92915050565b6119a38161195e565b81146119ae57600080fd5b50565b6000813590506119c08161199a565b92915050565b600080604083850312156119dd576119dc611764565b5b60006119eb858286016119b1565b92505060206119fc858286016118fc565b9150509250929050565b600080600060608486031215611a1f57611a1e611764565b5b6000611a2d868287016119b1565b9350506020611a3e868287016119b1565b9250506040611a4f868287016118fc565b9150509250925092565b600060208284031215611a6f57611a6e611764565b5b6000611a7d848285016119b1565b91505092915050565b611a8f816118db565b82525050565b6000602082019050611aaa6000830184611a86565b92915050565b611ab9816117f3565b8114611ac457600080fd5b50565b600081359050611ad681611ab0565b92915050565b60008060408385031215611af357611af2611764565b5b6000611b01858286016119b1565b9250506020611b1285828601611ac7565b9150509250929050565b600080fd5b600080fd5b7f4e487b7100000000000000000000000000000000000000000000000000000000600052604160045260246000fd5b611b5e8261186f565b810181811067ffffffffffffffff82111715611b7d57611b7c611b26565b5b80604052505050565b6000611b9061175a565b9050611b9c8282611b55565b919050565b600067ffffffffffffffff821115611bbc57611bbb611b26565b5b611bc58261186f565b9050602081019050919050565b82818337600083830152505050565b6000611bf4611bef84611ba1565b611b86565b905082815260208101848484011115611c1057611c0f611b21565b5b611c1b848285611bd2565b509392505050565b600082601f830112611c3857611c37611b1c565b5b8135611c48848260208601611be1565b91505092915050565b60008060008060808587031215611c6b57611c6a611764565b5b6000611c79878288016119b1565b9450506020611c8a878288016119b1565b9350506040611c9b878288016118fc565b925050606085013567ffffffffffffffff811115611cbc57611cbb611769565b5b611cc887828801611c23565b91505092959194509250565b60008060408385031215611ceb57611cea611764565b5b6000611cf9858286016119b1565b9250506020611d0a858286016119b1565b9150509250929050565b7f4e487b7100000000000000000000000000000000000000000000000000000000600052602260045260246000fd5b60006002820490506001821680611d5b57607f821691505b602082108103611d6e57611d6d611d14565b5b50919050565b7f746f6b656e20646f65736e277420657869737400000000000000000000000000600082015250565b6000611daa601383611834565b9150611db582611d74565b602082019050919050565b60006020820190508181036000830152611dd981611d9d565b9050919050565b7f6e6f74206f776e6572206e6f7220617070726f76656420666f7220616c6c0000600082015250565b6000611e16601e83611834565b9150611e2182611de0565b602082019050919050565b60006020820190508181036000830152611e4581611e09565b9050919050565b7f6e6f74206f776e6572206e6f7220617070726f76656400000000000000000000600082015250565b6000611e82601683611834565b9150611e8d82611e4c565b602082019050919050565b60006020820190508181036000830152611eb181611e75565b9050919050565b7f416c7265616479206d696e746564210000000000000000000000000000000000600082015250565b6000611eee600f83611834565b9150611ef982611eb8565b602082019050919050565b60006020820190508181036000830152611f1d81611ee1565b9050919050565b7f546f6b656e4964206f7574206f662072616e6765210000000000000000000000600082015250565b6000611f5a601583611834565b9150611f6582611f24565b602082019050919050565b60006020820190508181036000830152611f8981611f4d565b9050919050565b7f6f776e6572203d207a65726f2061646472657373000000000000000000000000600082015250565b6000611fc6601483611834565b9150611fd182611f90565b602082019050919050565b60006020820190508181036000830152611ff581611fb9565b9050919050565b7f546f6b656e204e6f742045786973740000000000000000000000000000000000600082015250565b6000612032600f83611834565b915061203d82611ffc565b602082019050919050565b6000602082019050818103600083015261206181612025565b9050919050565b600081905092915050565b600061207e82611829565b6120888185612068565b9350612098818560208601611845565b80840191505092915050565b60006120b08285612073565b91506120bc8284612073565b91508190509392505050565b7f6e6f74206f776e65720000000000000000000000000000000000000000000000600082015250565b60006120fe600983611834565b9150612109826120c8565b602082019050919050565b6000602082019050818103600083015261212d816120f1565b9050919050565b7f7472616e7366657220746f20746865207a65726f206164647265737300000000600082015250565b600061216a601c83611834565b915061217582612134565b602082019050919050565b600060208201905081810360008301526121998161215d565b9050919050565b7f4e487b7100000000000000000000000000000000000000000000000000000000600052601160045260246000fd5b60006121da826118db565b91506121e5836118db565b92508282039050818111156121fd576121fc6121a0565b5b92915050565b600061220e826118db565b9150612219836118db565b9250828201905080821115612231576122306121a0565b5b92915050565b7f6d696e7420746f207a65726f2061646472657373000000000000000000000000600082015250565b600061226d601483611834565b915061227882612237565b602082019050919050565b6000602082019050818103600083015261229c81612260565b9050919050565b7f746f6b656e20616c7265616479206d696e746564000000000000000000000000600082015250565b60006122d9601483611834565b91506122e4826122a3565b602082019050919050565b60006020820190508181036000830152612308816122cc565b9050919050565b7f6e6f742045524337323152656365697665720000000000000000000000000000600082015250565b6000612345601283611834565b91506123508261230f565b602082019050919050565b6000602082019050818103600083015261237481612338565b9050919050565b6000612386826118db565b91507fffffffffffffffffffffffffffffffffffffffffffffffffffffffffffffffff82036123b8576123b76121a0565b5b600182019050919050565b7f4e487b7100000000000000000000000000000000000000000000000000000000600052601260045260246000fd5b60006123fd826118db565b9150612408836118db565b925082612418576124176123c3565b5b828204905092915050565b600061242e826118db565b9150612439836118db565b925082612449576124486123c3565b5b828206905092915050565b7f4e487b7100000000000000000000000000000000000000000000000000000000600052603260045260246000fd5b600081519050919050565b600082825260208201905092915050565b60006124aa82612483565b6124b4818561248e565b93506124c4818560208601611845565b6124cd8161186f565b840191505092915050565b60006080820190506124ed6000830187611970565b6124fa6020830186611970565b6125076040830185611a86565b8181036060830152612519818461249f565b905095945050505050565b6000815190506125338161179a565b92915050565b60006020828403121561254f5761254e611764565b5b600061255d84828501612524565b9150509291505056fea2646970667358221220a5584f1d23667513d8db1fe897535b9e30b6945efb4b877c7680c55584a51bf664736f6c63430008130033",
  "linkReferences": {},
  "deployedLinkReferences": {}
}