{
  "_format": "hh-sol-artifact-1",
  "contractName": "testERC1155",
  "sourceName": "contracts/ERC1155.sol",
  "abi": [
    {
      "inputs": [],
      "stateMutability": "nonpayable",
      "type": "constructor"
    },
    {
      "anonymous": false,
      "inputs": [
        {
          "indexed": true,
          "internalType": "address",
          "name": "account",
          "type": "address"
        },
        {
          "indexed": true,
          "internalType": "address",
          "name": "operator",
          "type": "address"
        },
        {
          "indexed": false,
          "internalType": "bool",
          "name": "approved",
          "type": "bool"
        }
      ],
      "name": "ApprovalForAll",
      "type": "event"
    },
    {
      "anonymous": false,
      "inputs": [
        {
          "indexed": true,
          "internalType": "address",
          "name": "previousOwner",
          "type": "address"
        },
        {
          "indexed": true,
          "internalType": "address",
          "name": "newOwner",
          "type": "address"
        }
      ],
      "name": "OwnershipTransferred",
      "type": "event"
    },
    {
      "anonymous": false,
      "inputs": [
        {
          "indexed": true,
          "internalType": "address",
          "name": "operator",
          "type": "address"
        },
        {
          "indexed": true,
          "internalType": "address",
          "name": "from",
          "type": "address"
        },
        {
          "indexed": true,
          "internalType": "address",
          "name": "to",
          "type": "address"
        },
        {
          "indexed": false,
          "internalType": "uint256[]",
          "name": "ids",
          "type": "uint256[]"
        },
        {
          "indexed": false,
          "internalType": "uint256[]",
          "name": "values",
          "type": "uint256[]"
        }
      ],
      "name": "TransferBatch",
      "type": "event"
    },
    {
      "anonymous": false,
      "inputs": [
        {
          "indexed": true,
          "internalType": "address",
          "name": "operator",
          "type": "address"
        },
        {
          "indexed": true,
          "internalType": "address",
          "name": "from",
          "type": "address"
        },
        {
          "indexed": true,
          "internalType": "address",
          "name": "to",
          "type": "address"
        },
        {
          "indexed": false,
          "internalType": "uint256",
          "name": "id",
          "type": "uint256"
        },
        {
          "indexed": false,
          "internalType": "uint256",
          "name": "value",
          "type": "uint256"
        }
      ],
      "name": "TransferSingle",
      "type": "event"
    },
    {
      "anonymous": false,
      "inputs": [
        {
          "indexed": false,
          "internalType": "string",
          "name": "value",
          "type": "string"
        },
        {
          "indexed": true,
          "internalType": "uint256",
          "name": "id",
          "type": "uint256"
        }
      ],
      "name": "URI",
      "type": "event"
    },
    {
      "inputs": [],
      "name": "GOLD",
      "outputs": [
        {
          "internalType": "uint256",
          "name": "",
          "type": "uint256"
        }
      ],
      "stateMutability": "view",
      "type": "function"
    },
    {
      "inputs": [],
      "name": "PLATINUM",
      "outputs": [
        {
          "internalType": "uint256",
          "name": "",
          "type": "uint256"
        }
      ],
      "stateMutability": "view",
      "type": "function"
    },
    {
      "inputs": [],
      "name": "SILVER",
      "outputs": [
        {
          "internalType": "uint256",
          "name": "",
          "type": "uint256"
        }
      ],
      "stateMutability": "view",
      "type": "function"
    },
    {
      "inputs": [
        {
          "internalType": "address",
          "name": "account",
          "type": "address"
        },
        {
          "internalType": "uint256",
          "name": "id",
          "type": "uint256"
        }
      ],
      "name": "balanceOf",
      "outputs": [
        {
          "internalType": "uint256",
          "name": "",
          "type": "uint256"
        }
      ],
      "stateMutability": "view",
      "type": "function"
    },
    {
      "inputs": [
        {
          "internalType": "address[]",
          "name": "accounts",
          "type": "address[]"
        },
        {
          "internalType": "uint256[]",
          "name": "ids",
          "type": "uint256[]"
        }
      ],
      "name": "balanceOfBatch",
      "outputs": [
        {
          "internalType": "uint256[]",
          "name": "",
          "type": "uint256[]"
        }
      ],
      "stateMutability": "view",
      "type": "function"
    },
    {
      "inputs": [
        {
          "internalType": "address",
          "name": "from",
          "type": "address"
        },
        {
          "internalType": "uint256",
          "name": "id",
          "type": "uint256"
        },
        {
          "internalType": "uint256",
          "name": "amount",
          "type": "uint256"
        }
      ],
      "name": "burn",
      "outputs": [],
      "stateMutability": "nonpayable",
      "type": "function"
    },
    {
      "inputs": [
        {
          "internalType": "address",
          "name": "account",
          "type": "address"
        },
        {
          "internalType": "address",
          "name": "operator",
          "type": "address"
        }
      ],
      "name": "isApprovedForAll",
      "outputs": [
        {
          "internalType": "bool",
          "name": "",
          "type": "bool"
        }
      ],
      "stateMutability": "view",
      "type": "function"
    },
    {
      "inputs": [
        {
          "internalType": "address",
          "name": "to",
          "type": "address"
        },
        {
          "internalType": "uint256",
          "name": "id",
          "type": "uint256"
        },
        {
          "internalType": "uint256",
          "name": "amount",
          "type": "uint256"
        }
      ],
      "name": "mint",
      "outputs": [],
      "stateMutability": "nonpayable",
      "type": "function"
    },
    {
      "inputs": [],
      "name": "owner",
      "outputs": [
        {
          "internalType": "address",
          "name": "",
          "type": "address"
        }
      ],
      "stateMutability": "view",
      "type": "function"
    },
    {
      "inputs": [],
      "name": "renounceOwnership",
      "outputs": [],
      "stateMutability": "nonpayable",
      "type": "function"
    },
    {
      "inputs": [
        {
          "internalType": "address",
          "name": "from",
          "type": "address"
        },
        {
          "internalType": "address",
          "name": "to",
          "type": "address"
        },
        {
          "internalType": "uint256[]",
          "name": "ids",
          "type": "uint256[]"
        },
        {
          "internalType": "uint256[]",
          "name": "amounts",
          "type": "uint256[]"
        },
        {
          "internalType": "bytes",
          "name": "data",
          "type": "bytes"
        }
      ],
      "name": "safeBatchTransferFrom",
      "outputs": [],
      "stateMutability": "nonpayable",
      "type": "function"
    },
    {
      "inputs": [
        {
          "internalType": "address",
          "name": "from",
          "type": "address"
        },
        {
          "internalType": "address",
          "name": "to",
          "type": "address"
        },
        {
          "internalType": "uint256",
          "name": "id",
          "type": "uint256"
        },
        {
          "internalType": "uint256",
          "name": "amount",
          "type": "uint256"
        },
        {
          "internalType": "bytes",
          "name": "data",
          "type": "bytes"
        }
      ],
      "name": "safeTransferFrom",
      "outputs": [],
      "stateMutability": "nonpayable",
      "type": "function"
    },
    {
      "inputs": [
        {
          "internalType": "address",
          "name": "operator",
          "type": "address"
        },
        {
          "internalType": "bool",
          "name": "approved",
          "type": "bool"
        }
      ],
      "name": "setApprovalForAll",
      "outputs": [],
      "stateMutability": "nonpayable",
      "type": "function"
    },
    {
      "inputs": [
        {
          "internalType": "bytes4",
          "name": "interfaceId",
          "type": "bytes4"
        }
      ],
      "name": "supportsInterface",
      "outputs": [
        {
          "internalType": "bool",
          "name": "",
          "type": "bool"
        }
      ],
      "stateMutability": "view",
      "type": "function"
    },
    {
      "inputs": [
        {
          "internalType": "address",
          "name": "newOwner",
          "type": "address"
        }
      ],
      "name": "transferOwnership",
      "outputs": [],
      "stateMutability": "nonpayable",
      "type": "function"
    },
    {
      "inputs": [
        {
          "internalType": "uint256",
          "name": "",
          "type": "uint256"
        }
      ],
      "name": "uri",
      "outputs": [
        {
          "internalType": "string",
          "name": "",
          "type": "string"
        }
      ],
      "stateMutability": "view",
      "type": "function"
    }
  ],
  "bytecode": "0x60806040523480156200001157600080fd5b50604051806060016040528060228152602001620040d6602291396200003d816200013960201b60201c565b506200005e620000526200014e60201b60201c565b6200015660201b60201c565b620000833360006064604051806020016040528060008152506200021c60201b60201c565b620000a9336001612710604051806020016040528060008152506200021c60201b60201c565b620000ce3360026001604051806020016040528060008152506200021c60201b60201c565b620001013360016002620000e39190620006e4565b6001604051806020016040528060008152506200021c60201b60201c565b6200013333600280620001159190620006e4565b6001604051806020016040528060008152506200021c60201b60201c565b62001005565b80600290816200014a91906200098f565b5050565b600033905090565b6000600360009054906101000a900473ffffffffffffffffffffffffffffffffffffffff16905081600360006101000a81548173ffffffffffffffffffffffffffffffffffffffff021916908373ffffffffffffffffffffffffffffffffffffffff1602179055508173ffffffffffffffffffffffffffffffffffffffff168173ffffffffffffffffffffffffffffffffffffffff167f8be0079c531659141344cd1fd0a4f28419497f9722a3daafe3b4186f6b6457e060405160405180910390a35050565b600073ffffffffffffffffffffffffffffffffffffffff168473ffffffffffffffffffffffffffffffffffffffff16036200028e576040517f08c379a0000000000000000000000000000000000000000000000000000000008152600401620002859062000afd565b60405180910390fd5b6000620002a06200014e60201b60201c565b90506000620002b5856200040360201b60201c565b90506000620002ca856200040360201b60201c565b9050620002e3836000898585896200048460201b60201c565b8460008088815260200190815260200160002060008973ffffffffffffffffffffffffffffffffffffffff1673ffffffffffffffffffffffffffffffffffffffff1681526020019081526020016000206000828254620003449190620006e4565b925050819055508673ffffffffffffffffffffffffffffffffffffffff16600073ffffffffffffffffffffffffffffffffffffffff168473ffffffffffffffffffffffffffffffffffffffff167fc3d58168c5ae7397731d063d5bbf3d657854427343f4c083240f7aacaa2d0f628989604051620003c492919062000b30565b60405180910390a4620003e3836000898585896200048c60201b60201c565b620003fa836000898989896200049460201b60201c565b50505050505050565b60606000600167ffffffffffffffff8111156200042557620004246200072a565b5b604051908082528060200260200182016040528015620004545781602001602082028036833780820191505090505b50905082816000815181106200046f576200046e62000b5d565b5b60200260200101818152505080915050919050565b505050505050565b505050505050565b620004bb8473ffffffffffffffffffffffffffffffffffffffff166200068860201b60201c565b1562000680578373ffffffffffffffffffffffffffffffffffffffff1663f23a6e6187878686866040518663ffffffff1660e01b81526004016200050495949392919062000c6b565b6020604051808303816000875af19250505080156200054357506040513d601f19601f8201168201806040525081019062000540919062000d3b565b60015b620005f4576200055262000d7a565b806308c379a003620005b557506200056962000dd5565b80620005765750620005b7565b806040517f08c379a0000000000000000000000000000000000000000000000000000000008152600401620005ac919062000eb1565b60405180910390fd5b505b6040517f08c379a0000000000000000000000000000000000000000000000000000000008152600401620005eb9062000f4b565b60405180910390fd5b63f23a6e6160e01b7bffffffffffffffffffffffffffffffffffffffffffffffffffffffff1916817bffffffffffffffffffffffffffffffffffffffffffffffffffffffff1916146200067e576040517f08c379a0000000000000000000000000000000000000000000000000000000008152600401620006759062000fe3565b60405180910390fd5b505b505050505050565b6000808273ffffffffffffffffffffffffffffffffffffffff163b119050919050565b6000819050919050565b7f4e487b7100000000000000000000000000000000000000000000000000000000600052601160045260246000fd5b6000620006f182620006ab565b9150620006fe83620006ab565b9250828201905080821115620007195762000718620006b5565b5b92915050565b600081519050919050565b7f4e487b7100000000000000000000000000000000000000000000000000000000600052604160045260246000fd5b7f4e487b7100000000000000000000000000000000000000000000000000000000600052602260045260246000fd5b60006002820490506001821680620007a157607f821691505b602082108103620007b757620007b662000759565b5b50919050565b60008190508160005260206000209050919050565b60006020601f8301049050919050565b600082821b905092915050565b600060088302620008217fffffffffffffffffffffffffffffffffffffffffffffffffffffffffffffffff82620007e2565b6200082d8683620007e2565b95508019841693508086168417925050509392505050565b6000819050919050565b6000620008706200086a6200086484620006ab565b62000845565b620006ab565b9050919050565b6000819050919050565b6200088c836200084f565b620008a46200089b8262000877565b848454620007ef565b825550505050565b600090565b620008bb620008ac565b620008c881848462000881565b505050565b5b81811015620008f057620008e4600082620008b1565b600181019050620008ce565b5050565b601f8211156200093f576200090981620007bd565b6200091484620007d2565b8101602085101562000924578190505b6200093c6200093385620007d2565b830182620008cd565b50505b505050565b600082821c905092915050565b6000620009646000198460080262000944565b1980831691505092915050565b60006200097f838362000951565b9150826002028217905092915050565b6200099a826200071f565b67ffffffffffffffff811115620009b657620009b56200072a565b5b620009c2825462000788565b620009cf828285620008f4565b600060209050601f83116001811462000a075760008415620009f2578287015190505b620009fe858262000971565b86555062000a6e565b601f19841662000a1786620007bd565b60005b8281101562000a415784890151825560018201915060208501945060208101905062000a1a565b8683101562000a61578489015162000a5d601f89168262000951565b8355505b6001600288020188555050505b505050505050565b600082825260208201905092915050565b7f455243313135353a206d696e7420746f20746865207a65726f2061646472657360008201527f7300000000000000000000000000000000000000000000000000000000000000602082015250565b600062000ae560218362000a76565b915062000af28262000a87565b604082019050919050565b6000602082019050818103600083015262000b188162000ad6565b9050919050565b62000b2a81620006ab565b82525050565b600060408201905062000b47600083018562000b1f565b62000b56602083018462000b1f565b9392505050565b7f4e487b7100000000000000000000000000000000000000000000000000000000600052603260045260246000fd5b600073ffffffffffffffffffffffffffffffffffffffff82169050919050565b600062000bb98262000b8c565b9050919050565b62000bcb8162000bac565b82525050565b600081519050919050565b600082825260208201905092915050565b60005b8381101562000c0d57808201518184015260208101905062000bf0565b60008484015250505050565b6000601f19601f8301169050919050565b600062000c378262000bd1565b62000c43818562000bdc565b935062000c5581856020860162000bed565b62000c608162000c19565b840191505092915050565b600060a08201905062000c82600083018862000bc0565b62000c91602083018762000bc0565b62000ca0604083018662000b1f565b62000caf606083018562000b1f565b818103608083015262000cc3818462000c2a565b90509695505050505050565b6000604051905090565b600080fd5b60007fffffffff0000000000000000000000000000000000000000000000000000000082169050919050565b62000d158162000cde565b811462000d2157600080fd5b50565b60008151905062000d358162000d0a565b92915050565b60006020828403121562000d545762000d5362000cd9565b5b600062000d648482850162000d24565b91505092915050565b60008160e01c9050919050565b600060033d111562000d9c5760046000803e62000d9960005162000d6d565b90505b90565b62000daa8262000c19565b810181811067ffffffffffffffff8211171562000dcc5762000dcb6200072a565b5b80604052505050565b600060443d1062000e6d5762000dea62000ccf565b60043d036004823e80513d602482011167ffffffffffffffff8211171562000e1457505062000e6d565b808201805167ffffffffffffffff81111562000e34575050505062000e6d565b80602083010160043d03850181111562000e5357505050505062000e6d565b62000e648260200185018662000d9f565b82955050505050505b90565b600062000e7d826200071f565b62000e89818562000a76565b935062000e9b81856020860162000bed565b62000ea68162000c19565b840191505092915050565b6000602082019050818103600083015262000ecd818462000e70565b905092915050565b7f455243313135353a207472616e7366657220746f206e6f6e2d4552433131353560008201527f526563656976657220696d706c656d656e746572000000000000000000000000602082015250565b600062000f3360348362000a76565b915062000f408262000ed5565b604082019050919050565b6000602082019050818103600083015262000f668162000f24565b9050919050565b7f455243313135353a204552433131353552656365697665722072656a6563746560008201527f6420746f6b656e73000000000000000000000000000000000000000000000000602082015250565b600062000fcb60288362000a76565b915062000fd88262000f6d565b604082019050919050565b6000602082019050818103600083015262000ffe8162000fbc565b9050919050565b6130c180620010156000396000f3fe608060405234801561001057600080fd5b50600436106100ff5760003560e01c8063715018a611610097578063e985e9c511610066578063e985e9c51461029a578063f242432a146102ca578063f2fde38b146102e6578063f5298aca14610302576100ff565b8063715018a6146102385780638da5cb5b14610242578063a22cb46514610260578063e3e55f081461027c576100ff565b80632eb2c2d6116100d35780632eb2c2d6146101b05780633e4bee38146101cc5780634e1273f4146101ea57806356f0593a1461021a576100ff565b8062fdd58e1461010457806301ffc9a7146101345780630e89341c14610164578063156e29f614610194575b600080fd5b61011e60048036038101906101199190611bbf565b61031e565b60405161012b9190611c0e565b60405180910390f35b61014e60048036038101906101499190611c81565b6103e6565b60405161015b9190611cc9565b60405180910390f35b61017e60048036038101906101799190611ce4565b6104c8565b60405161018b9190611da1565b60405180910390f35b6101ae60048036038101906101a99190611dc3565b61055c565b005b6101ca60048036038101906101c59190612013565b610584565b005b6101d4610625565b6040516101e19190611c0e565b60405180910390f35b61020460048036038101906101ff91906121a5565b61062a565b60405161021191906122db565b60405180910390f35b610222610743565b60405161022f9190611c0e565b60405180910390f35b610240610748565b005b61024a61075c565b604051610257919061230c565b60405180910390f35b61027a60048036038101906102759190612353565b610786565b005b61028461079c565b6040516102919190611c0e565b60405180910390f35b6102b460048036038101906102af9190612393565b6107a1565b6040516102c19190611cc9565b60405180910390f35b6102e460048036038101906102df91906123d3565b610835565b005b61030060048036038101906102fb919061246a565b6108d6565b005b61031c60048036038101906103179190611dc3565b610959565b005b60008073ffffffffffffffffffffffffffffffffffffffff168373ffffffffffffffffffffffffffffffffffffffff160361038e576040517f08c379a000000000000000000000000000000000000000000000000000000000815260040161038590612509565b60405180910390fd5b60008083815260200190815260200160002060008473ffffffffffffffffffffffffffffffffffffffff1673ffffffffffffffffffffffffffffffffffffffff16815260200190815260200160002054905092915050565b60007fd9b67a26000000000000000000000000000000000000000000000000000000007bffffffffffffffffffffffffffffffffffffffffffffffffffffffff1916827bffffffffffffffffffffffffffffffffffffffffffffffffffffffff191614806104b157507f0e89341c000000000000000000000000000000000000000000000000000000007bffffffffffffffffffffffffffffffffffffffffffffffffffffffff1916827bffffffffffffffffffffffffffffffffffffffffffffffffffffffff1916145b806104c157506104c0826109e8565b5b9050919050565b6060600280546104d790612558565b80601f016020809104026020016040519081016040528092919081815260200182805461050390612558565b80156105505780601f1061052557610100808354040283529160200191610550565b820191906000526020600020905b81548152906001019060200180831161053357829003601f168201915b50505050509050919050565b610564610a52565b61057f83838360405180602001604052806000815250610ad0565b505050565b61058c610c80565b73ffffffffffffffffffffffffffffffffffffffff168573ffffffffffffffffffffffffffffffffffffffff1614806105d257506105d1856105cc610c80565b6107a1565b5b610611576040517f08c379a0000000000000000000000000000000000000000000000000000000008152600401610608906125fb565b60405180910390fd5b61061e8585858585610c88565b5050505050565b600081565b60608151835114610670576040517f08c379a00000000000000000000000000000000000000000000000000000000081526004016106679061268d565b60405180910390fd5b6000835167ffffffffffffffff81111561068d5761068c611e1b565b5b6040519080825280602002602001820160405280156106bb5781602001602082028036833780820191505090505b50905060005b8451811015610738576107088582815181106106e0576106df6126ad565b5b60200260200101518583815181106106fb576106fa6126ad565b5b602002602001015161031e565b82828151811061071b5761071a6126ad565b5b602002602001018181525050806107319061270b565b90506106c1565b508091505092915050565b600281565b610750610a52565b61075a6000610fa9565b565b6000600360009054906101000a900473ffffffffffffffffffffffffffffffffffffffff16905090565b610798610791610c80565b838361106f565b5050565b600181565b6000600160008473ffffffffffffffffffffffffffffffffffffffff1673ffffffffffffffffffffffffffffffffffffffff16815260200190815260200160002060008373ffffffffffffffffffffffffffffffffffffffff1673ffffffffffffffffffffffffffffffffffffffff16815260200190815260200160002060009054906101000a900460ff16905092915050565b61083d610c80565b73ffffffffffffffffffffffffffffffffffffffff168573ffffffffffffffffffffffffffffffffffffffff16148061088357506108828561087d610c80565b6107a1565b5b6108c2576040517f08c379a00000000000000000000000000000000000000000000000000000000081526004016108b9906125fb565b60405180910390fd5b6108cf85858585856111db565b5050505050565b6108de610a52565b600073ffffffffffffffffffffffffffffffffffffffff168173ffffffffffffffffffffffffffffffffffffffff160361094d576040517f08c379a0000000000000000000000000000000000000000000000000000000008152600401610944906127c5565b60405180910390fd5b61095681610fa9565b50565b8273ffffffffffffffffffffffffffffffffffffffff163373ffffffffffffffffffffffffffffffffffffffff161480610999575061099883336107a1565b5b6109d8576040517f08c379a00000000000000000000000000000000000000000000000000000000081526004016109cf90612831565b60405180910390fd5b6109e3838383611476565b505050565b60007f01ffc9a7000000000000000000000000000000000000000000000000000000007bffffffffffffffffffffffffffffffffffffffffffffffffffffffff1916827bffffffffffffffffffffffffffffffffffffffffffffffffffffffff1916149050919050565b610a5a610c80565b73ffffffffffffffffffffffffffffffffffffffff16610a7861075c565b73ffffffffffffffffffffffffffffffffffffffff1614610ace576040517f08c379a0000000000000000000000000000000000000000000000000000000008152600401610ac59061289d565b60405180910390fd5b565b600073ffffffffffffffffffffffffffffffffffffffff168473ffffffffffffffffffffffffffffffffffffffff1603610b3f576040517f08c379a0000000000000000000000000000000000000000000000000000000008152600401610b369061292f565b60405180910390fd5b6000610b49610c80565b90506000610b56856116bc565b90506000610b63856116bc565b9050610b7483600089858589611736565b8460008088815260200190815260200160002060008973ffffffffffffffffffffffffffffffffffffffff1673ffffffffffffffffffffffffffffffffffffffff1681526020019081526020016000206000828254610bd3919061294f565b925050819055508673ffffffffffffffffffffffffffffffffffffffff16600073ffffffffffffffffffffffffffffffffffffffff168473ffffffffffffffffffffffffffffffffffffffff167fc3d58168c5ae7397731d063d5bbf3d657854427343f4c083240f7aacaa2d0f628989604051610c51929190612983565b60405180910390a4610c688360008985858961173e565b610c7783600089898989611746565b50505050505050565b600033905090565b8151835114610ccc576040517f08c379a0000000000000000000000000000000000000000000000000000000008152600401610cc390612a1e565b60405180910390fd5b600073ffffffffffffffffffffffffffffffffffffffff168473ffffffffffffffffffffffffffffffffffffffff1603610d3b576040517f08c379a0000000000000000000000000000000000000000000000000000000008152600401610d3290612ab0565b60405180910390fd5b6000610d45610c80565b9050610d55818787878787611736565b60005b8451811015610f06576000858281518110610d7657610d756126ad565b5b602002602001015190506000858381518110610d9557610d946126ad565b5b60200260200101519050600080600084815260200190815260200160002060008b73ffffffffffffffffffffffffffffffffffffffff1673ffffffffffffffffffffffffffffffffffffffff16815260200190815260200160002054905081811015610e36576040517f08c379a0000000000000000000000000000000000000000000000000000000008152600401610e2d90612b42565b60405180910390fd5b81810360008085815260200190815260200160002060008c73ffffffffffffffffffffffffffffffffffffffff1673ffffffffffffffffffffffffffffffffffffffff168152602001908152602001600020819055508160008085815260200190815260200160002060008b73ffffffffffffffffffffffffffffffffffffffff1673ffffffffffffffffffffffffffffffffffffffff1681526020019081526020016000206000828254610eeb919061294f565b9250508190555050505080610eff9061270b565b9050610d58565b508473ffffffffffffffffffffffffffffffffffffffff168673ffffffffffffffffffffffffffffffffffffffff168273ffffffffffffffffffffffffffffffffffffffff167f4a39dc06d4c0dbc64b70af90fd698a233a518aa5d07e595d983b8c0526c8f7fb8787604051610f7d929190612b62565b60405180910390a4610f9381878787878761173e565b610fa181878787878761191d565b505050505050565b6000600360009054906101000a900473ffffffffffffffffffffffffffffffffffffffff16905081600360006101000a81548173ffffffffffffffffffffffffffffffffffffffff021916908373ffffffffffffffffffffffffffffffffffffffff1602179055508173ffffffffffffffffffffffffffffffffffffffff168173ffffffffffffffffffffffffffffffffffffffff167f8be0079c531659141344cd1fd0a4f28419497f9722a3daafe3b4186f6b6457e060405160405180910390a35050565b8173ffffffffffffffffffffffffffffffffffffffff168373ffffffffffffffffffffffffffffffffffffffff16036110dd576040517f08c379a00000000000000000000000000000000000000000000000000000000081526004016110d490612c0b565b60405180910390fd5b80600160008573ffffffffffffffffffffffffffffffffffffffff1673ffffffffffffffffffffffffffffffffffffffff16815260200190815260200160002060008473ffffffffffffffffffffffffffffffffffffffff1673ffffffffffffffffffffffffffffffffffffffff16815260200190815260200160002060006101000a81548160ff0219169083151502179055508173ffffffffffffffffffffffffffffffffffffffff168373ffffffffffffffffffffffffffffffffffffffff167f17307eab39ab6107e8899845ad3d59bd9653f200f220920489ca2b5937696c31836040516111ce9190611cc9565b60405180910390a3505050565b600073ffffffffffffffffffffffffffffffffffffffff168473ffffffffffffffffffffffffffffffffffffffff160361124a576040517f08c379a000000000000000000000000000000000000000000000000000000000815260040161124190612ab0565b60405180910390fd5b6000611254610c80565b90506000611261856116bc565b9050600061126e856116bc565b905061127e838989858589611736565b600080600088815260200190815260200160002060008a73ffffffffffffffffffffffffffffffffffffffff1673ffffffffffffffffffffffffffffffffffffffff16815260200190815260200160002054905085811015611315576040517f08c379a000000000000000000000000000000000000000000000000000000000815260040161130c90612b42565b60405180910390fd5b85810360008089815260200190815260200160002060008b73ffffffffffffffffffffffffffffffffffffffff1673ffffffffffffffffffffffffffffffffffffffff168152602001908152602001600020819055508560008089815260200190815260200160002060008a73ffffffffffffffffffffffffffffffffffffffff1673ffffffffffffffffffffffffffffffffffffffff16815260200190815260200160002060008282546113ca919061294f565b925050819055508773ffffffffffffffffffffffffffffffffffffffff168973ffffffffffffffffffffffffffffffffffffffff168573ffffffffffffffffffffffffffffffffffffffff167fc3d58168c5ae7397731d063d5bbf3d657854427343f4c083240f7aacaa2d0f628a8a604051611447929190612983565b60405180910390a461145d848a8a86868a61173e565b61146b848a8a8a8a8a611746565b505050505050505050565b600073ffffffffffffffffffffffffffffffffffffffff168373ffffffffffffffffffffffffffffffffffffffff16036114e5576040517f08c379a00000000000000000000000000000000000000000000000000000000081526004016114dc90612c9d565b60405180910390fd5b60006114ef610c80565b905060006114fc846116bc565b90506000611509846116bc565b905061152983876000858560405180602001604052806000815250611736565b600080600087815260200190815260200160002060008873ffffffffffffffffffffffffffffffffffffffff1673ffffffffffffffffffffffffffffffffffffffff168152602001908152602001600020549050848110156115c0576040517f08c379a00000000000000000000000000000000000000000000000000000000081526004016115b790612d2f565b60405180910390fd5b84810360008088815260200190815260200160002060008973ffffffffffffffffffffffffffffffffffffffff1673ffffffffffffffffffffffffffffffffffffffff16815260200190815260200160002081905550600073ffffffffffffffffffffffffffffffffffffffff168773ffffffffffffffffffffffffffffffffffffffff168573ffffffffffffffffffffffffffffffffffffffff167fc3d58168c5ae7397731d063d5bbf3d657854427343f4c083240f7aacaa2d0f62898960405161168d929190612983565b60405180910390a46116b38488600086866040518060200160405280600081525061173e565b50505050505050565b60606000600167ffffffffffffffff8111156116db576116da611e1b565b5b6040519080825280602002602001820160405280156117095781602001602082028036833780820191505090505b5090508281600081518110611721576117206126ad565b5b60200260200101818152505080915050919050565b505050505050565b505050505050565b6117658473ffffffffffffffffffffffffffffffffffffffff16611af4565b15611915578373ffffffffffffffffffffffffffffffffffffffff1663f23a6e6187878686866040518663ffffffff1660e01b81526004016117ab959493929190612da4565b6020604051808303816000875af19250505080156117e757506040513d601f19601f820116820180604052508101906117e49190612e13565b60015b61188c576117f3612e4d565b806308c379a00361184f5750611807612e6f565b806118125750611851565b806040517f08c379a00000000000000000000000000000000000000000000000000000000081526004016118469190611da1565b60405180910390fd5b505b6040517f08c379a000000000000000000000000000000000000000000000000000000000815260040161188390612f71565b60405180910390fd5b63f23a6e6160e01b7bffffffffffffffffffffffffffffffffffffffffffffffffffffffff1916817bffffffffffffffffffffffffffffffffffffffffffffffffffffffff191614611913576040517f08c379a000000000000000000000000000000000000000000000000000000000815260040161190a90613003565b60405180910390fd5b505b505050505050565b61193c8473ffffffffffffffffffffffffffffffffffffffff16611af4565b15611aec578373ffffffffffffffffffffffffffffffffffffffff1663bc197c8187878686866040518663ffffffff1660e01b8152600401611982959493929190613023565b6020604051808303816000875af19250505080156119be57506040513d601f19601f820116820180604052508101906119bb9190612e13565b60015b611a63576119ca612e4d565b806308c379a003611a2657506119de612e6f565b806119e95750611a28565b806040517f08c379a0000000000000000000000000000000000000000000000000000000008152600401611a1d9190611da1565b60405180910390fd5b505b6040517f08c379a0000000000000000000000000000000000000000000000000000000008152600401611a5a90612f71565b60405180910390fd5b63bc197c8160e01b7bffffffffffffffffffffffffffffffffffffffffffffffffffffffff1916817bffffffffffffffffffffffffffffffffffffffffffffffffffffffff191614611aea576040517f08c379a0000000000000000000000000000000000000000000000000000000008152600401611ae190613003565b60405180910390fd5b505b505050505050565b6000808273ffffffffffffffffffffffffffffffffffffffff163b119050919050565b6000604051905090565b600080fd5b600080fd5b600073ffffffffffffffffffffffffffffffffffffffff82169050919050565b6000611b5682611b2b565b9050919050565b611b6681611b4b565b8114611b7157600080fd5b50565b600081359050611b8381611b5d565b92915050565b6000819050919050565b611b9c81611b89565b8114611ba757600080fd5b50565b600081359050611bb981611b93565b92915050565b60008060408385031215611bd657611bd5611b21565b5b6000611be485828601611b74565b9250506020611bf585828601611baa565b9150509250929050565b611c0881611b89565b82525050565b6000602082019050611c236000830184611bff565b92915050565b60007fffffffff0000000000000000000000000000000000000000000000000000000082169050919050565b611c5e81611c29565b8114611c6957600080fd5b50565b600081359050611c7b81611c55565b92915050565b600060208284031215611c9757611c96611b21565b5b6000611ca584828501611c6c565b91505092915050565b60008115159050919050565b611cc381611cae565b82525050565b6000602082019050611cde6000830184611cba565b92915050565b600060208284031215611cfa57611cf9611b21565b5b6000611d0884828501611baa565b91505092915050565b600081519050919050565b600082825260208201905092915050565b60005b83811015611d4b578082015181840152602081019050611d30565b60008484015250505050565b6000601f19601f8301169050919050565b6000611d7382611d11565b611d7d8185611d1c565b9350611d8d818560208601611d2d565b611d9681611d57565b840191505092915050565b60006020820190508181036000830152611dbb8184611d68565b905092915050565b600080600060608486031215611ddc57611ddb611b21565b5b6000611dea86828701611b74565b9350506020611dfb86828701611baa565b9250506040611e0c86828701611baa565b9150509250925092565b600080fd5b7f4e487b7100000000000000000000000000000000000000000000000000000000600052604160045260246000fd5b611e5382611d57565b810181811067ffffffffffffffff82111715611e7257611e71611e1b565b5b80604052505050565b6000611e85611b17565b9050611e918282611e4a565b919050565b600067ffffffffffffffff821115611eb157611eb0611e1b565b5b602082029050602081019050919050565b600080fd5b6000611eda611ed584611e96565b611e7b565b90508083825260208201905060208402830185811115611efd57611efc611ec2565b5b835b81811015611f265780611f128882611baa565b845260208401935050602081019050611eff565b5050509392505050565b600082601f830112611f4557611f44611e16565b5b8135611f55848260208601611ec7565b91505092915050565b600080fd5b600067ffffffffffffffff821115611f7e57611f7d611e1b565b5b611f8782611d57565b9050602081019050919050565b82818337600083830152505050565b6000611fb6611fb184611f63565b611e7b565b905082815260208101848484011115611fd257611fd1611f5e565b5b611fdd848285611f94565b509392505050565b600082601f830112611ffa57611ff9611e16565b5b813561200a848260208601611fa3565b91505092915050565b600080600080600060a0868803121561202f5761202e611b21565b5b600061203d88828901611b74565b955050602061204e88828901611b74565b945050604086013567ffffffffffffffff81111561206f5761206e611b26565b5b61207b88828901611f30565b935050606086013567ffffffffffffffff81111561209c5761209b611b26565b5b6120a888828901611f30565b925050608086013567ffffffffffffffff8111156120c9576120c8611b26565b5b6120d588828901611fe5565b9150509295509295909350565b600067ffffffffffffffff8211156120fd576120fc611e1b565b5b602082029050602081019050919050565b600061212161211c846120e2565b611e7b565b9050808382526020820190506020840283018581111561214457612143611ec2565b5b835b8181101561216d57806121598882611b74565b845260208401935050602081019050612146565b5050509392505050565b600082601f83011261218c5761218b611e16565b5b813561219c84826020860161210e565b91505092915050565b600080604083850312156121bc576121bb611b21565b5b600083013567ffffffffffffffff8111156121da576121d9611b26565b5b6121e685828601612177565b925050602083013567ffffffffffffffff81111561220757612206611b26565b5b61221385828601611f30565b9150509250929050565b600081519050919050565b600082825260208201905092915050565b6000819050602082019050919050565b61225281611b89565b82525050565b60006122648383612249565b60208301905092915050565b6000602082019050919050565b60006122888261221d565b6122928185612228565b935061229d83612239565b8060005b838110156122ce5781516122b58882612258565b97506122c083612270565b9250506001810190506122a1565b5085935050505092915050565b600060208201905081810360008301526122f5818461227d565b905092915050565b61230681611b4b565b82525050565b600060208201905061232160008301846122fd565b92915050565b61233081611cae565b811461233b57600080fd5b50565b60008135905061234d81612327565b92915050565b6000806040838503121561236a57612369611b21565b5b600061237885828601611b74565b92505060206123898582860161233e565b9150509250929050565b600080604083850312156123aa576123a9611b21565b5b60006123b885828601611b74565b92505060206123c985828601611b74565b9150509250929050565b600080600080600060a086880312156123ef576123ee611b21565b5b60006123fd88828901611b74565b955050602061240e88828901611b74565b945050604061241f88828901611baa565b935050606061243088828901611baa565b925050608086013567ffffffffffffffff81111561245157612450611b26565b5b61245d88828901611fe5565b9150509295509295909350565b6000602082840312156124805761247f611b21565b5b600061248e84828501611b74565b91505092915050565b7f455243313135353a2061646472657373207a65726f206973206e6f742061207660008201527f616c6964206f776e657200000000000000000000000000000000000000000000602082015250565b60006124f3602a83611d1c565b91506124fe82612497565b604082019050919050565b60006020820190508181036000830152612522816124e6565b9050919050565b7f4e487b7100000000000000000000000000000000000000000000000000000000600052602260045260246000fd5b6000600282049050600182168061257057607f821691505b60208210810361258357612582612529565b5b50919050565b7f455243313135353a2063616c6c6572206973206e6f7420746f6b656e206f776e60008201527f6572206f7220617070726f766564000000000000000000000000000000000000602082015250565b60006125e5602e83611d1c565b91506125f082612589565b604082019050919050565b60006020820190508181036000830152612614816125d8565b9050919050565b7f455243313135353a206163636f756e747320616e6420696473206c656e67746860008201527f206d69736d617463680000000000000000000000000000000000000000000000602082015250565b6000612677602983611d1c565b91506126828261261b565b604082019050919050565b600060208201905081810360008301526126a68161266a565b9050919050565b7f4e487b7100000000000000000000000000000000000000000000000000000000600052603260045260246000fd5b7f4e487b7100000000000000000000000000000000000000000000000000000000600052601160045260246000fd5b600061271682611b89565b91507fffffffffffffffffffffffffffffffffffffffffffffffffffffffffffffffff8203612748576127476126dc565b5b600182019050919050565b7f4f776e61626c653a206e6577206f776e657220697320746865207a65726f206160008201527f6464726573730000000000000000000000000000000000000000000000000000602082015250565b60006127af602683611d1c565b91506127ba82612753565b604082019050919050565b600060208201905081810360008301526127de816127a2565b9050919050565b7f4e6f7420617070726f7665640000000000000000000000000000000000000000600082015250565b600061281b600c83611d1c565b9150612826826127e5565b602082019050919050565b6000602082019050818103600083015261284a8161280e565b9050919050565b7f4f776e61626c653a2063616c6c6572206973206e6f7420746865206f776e6572600082015250565b6000612887602083611d1c565b915061289282612851565b602082019050919050565b600060208201905081810360008301526128b68161287a565b9050919050565b7f455243313135353a206d696e7420746f20746865207a65726f2061646472657360008201527f7300000000000000000000000000000000000000000000000000000000000000602082015250565b6000612919602183611d1c565b9150612924826128bd565b604082019050919050565b600060208201905081810360008301526129488161290c565b9050919050565b600061295a82611b89565b915061296583611b89565b925082820190508082111561297d5761297c6126dc565b5b92915050565b60006040820190506129986000830185611bff565b6129a56020830184611bff565b9392505050565b7f455243313135353a2069647320616e6420616d6f756e7473206c656e6774682060008201527f6d69736d61746368000000000000000000000000000000000000000000000000602082015250565b6000612a08602883611d1c565b9150612a13826129ac565b604082019050919050565b60006020820190508181036000830152612a37816129fb565b9050919050565b7f455243313135353a207472616e7366657220746f20746865207a65726f20616460008201527f6472657373000000000000000000000000000000000000000000000000000000602082015250565b6000612a9a602583611d1c565b9150612aa582612a3e565b604082019050919050565b60006020820190508181036000830152612ac981612a8d565b9050919050565b7f455243313135353a20696e73756666696369656e742062616c616e636520666f60008201527f72207472616e7366657200000000000000000000000000000000000000000000602082015250565b6000612b2c602a83611d1c565b9150612b3782612ad0565b604082019050919050565b60006020820190508181036000830152612b5b81612b1f565b9050919050565b60006040820190508181036000830152612b7c818561227d565b90508181036020830152612b90818461227d565b90509392505050565b7f455243313135353a2073657474696e6720617070726f76616c2073746174757360008201527f20666f722073656c660000000000000000000000000000000000000000000000602082015250565b6000612bf5602983611d1c565b9150612c0082612b99565b604082019050919050565b60006020820190508181036000830152612c2481612be8565b9050919050565b7f455243313135353a206275726e2066726f6d20746865207a65726f206164647260008201527f6573730000000000000000000000000000000000000000000000000000000000602082015250565b6000612c87602383611d1c565b9150612c9282612c2b565b604082019050919050565b60006020820190508181036000830152612cb681612c7a565b9050919050565b7f455243313135353a206275726e20616d6f756e7420657863656564732062616c60008201527f616e636500000000000000000000000000000000000000000000000000000000602082015250565b6000612d19602483611d1c565b9150612d2482612cbd565b604082019050919050565b60006020820190508181036000830152612d4881612d0c565b9050919050565b600081519050919050565b600082825260208201905092915050565b6000612d7682612d4f565b612d808185612d5a565b9350612d90818560208601611d2d565b612d9981611d57565b840191505092915050565b600060a082019050612db960008301886122fd565b612dc660208301876122fd565b612dd36040830186611bff565b612de06060830185611bff565b8181036080830152612df28184612d6b565b90509695505050505050565b600081519050612e0d81611c55565b92915050565b600060208284031215612e2957612e28611b21565b5b6000612e3784828501612dfe565b91505092915050565b60008160e01c9050919050565b600060033d1115612e6c5760046000803e612e69600051612e40565b90505b90565b600060443d10612efc57612e81611b17565b60043d036004823e80513d602482011167ffffffffffffffff82111715612ea9575050612efc565b808201805167ffffffffffffffff811115612ec75750505050612efc565b80602083010160043d038501811115612ee4575050505050612efc565b612ef382602001850186611e4a565b82955050505050505b90565b7f455243313135353a207472616e7366657220746f206e6f6e2d4552433131353560008201527f526563656976657220696d706c656d656e746572000000000000000000000000602082015250565b6000612f5b603483611d1c565b9150612f6682612eff565b604082019050919050565b60006020820190508181036000830152612f8a81612f4e565b9050919050565b7f455243313135353a204552433131353552656365697665722072656a6563746560008201527f6420746f6b656e73000000000000000000000000000000000000000000000000602082015250565b6000612fed602883611d1c565b9150612ff882612f91565b604082019050919050565b6000602082019050818103600083015261301c81612fe0565b9050919050565b600060a08201905061303860008301886122fd565b61304560208301876122fd565b8181036040830152613057818661227d565b9050818103606083015261306b818561227d565b9050818103608083015261307f8184612d6b565b9050969550505050505056fea2646970667358221220e5daac15e3695e371ecefd383a29faabde8f354e5090e6af0d5be3afc57a62e064736f6c6343000813003368747470733a2f2f6578616d706c652e636f6d2f6170692f746f6b656e2f7b69647d",
  "linkReferences": {},
  "deployedLinkReferences": {}
}