{
  "_format": "hh-sol-artifact-1",
  "contractName": "CHAINLINK2",
  "sourceName": "contracts/ERC721_common.sol",
  "abi": [
    {
      "inputs": [
        {
          "internalType": "string",
          "name": "name",
          "type": "string"
        },
        {
          "internalType": "string",
          "name": "symbol",
          "type": "string"
        }
      ],
      "stateMutability": "nonpayable",
      "type": "constructor"
    },
    {
      "inputs": [],
      "name": "InvalidShortString",
      "type": "error"
    },
    {
      "inputs": [
        {
          "internalType": "string",
          "name": "str",
          "type": "string"
        }
      ],
      "name": "StringTooLong",
      "type": "error"
    },
    {
      "anonymous": false,
      "inputs": [
        {
          "indexed": true,
          "internalType": "address",
          "name": "owner",
          "type": "address"
        },
        {
          "indexed": true,
          "internalType": "address",
          "name": "approved",
          "type": "address"
        },
        {
          "indexed": true,
          "internalType": "uint256",
          "name": "tokenId",
          "type": "uint256"
        }
      ],
      "name": "Approval",
      "type": "event"
    },
    {
      "anonymous": false,
      "inputs": [
        {
          "indexed": true,
          "internalType": "address",
          "name": "owner",
          "type": "address"
        },
        {
          "indexed": true,
          "internalType": "address",
          "name": "operator",
          "type": "address"
        },
        {
          "indexed": false,
          "internalType": "bool",
          "name": "approved",
          "type": "bool"
        }
      ],
      "name": "ApprovalForAll",
      "type": "event"
    },
    {
      "anonymous": false,
      "inputs": [
        {
          "indexed": true,
          "internalType": "address",
          "name": "delegator",
          "type": "address"
        },
        {
          "indexed": true,
          "internalType": "address",
          "name": "fromDelegate",
          "type": "address"
        },
        {
          "indexed": true,
          "internalType": "address",
          "name": "toDelegate",
          "type": "address"
        }
      ],
      "name": "DelegateChanged",
      "type": "event"
    },
    {
      "anonymous": false,
      "inputs": [
        {
          "indexed": true,
          "internalType": "address",
          "name": "delegate",
          "type": "address"
        },
        {
          "indexed": false,
          "internalType": "uint256",
          "name": "previousBalance",
          "type": "uint256"
        },
        {
          "indexed": false,
          "internalType": "uint256",
          "name": "newBalance",
          "type": "uint256"
        }
      ],
      "name": "DelegateVotesChanged",
      "type": "event"
    },
    {
      "anonymous": false,
      "inputs": [],
      "name": "EIP712DomainChanged",
      "type": "event"
    },
    {
      "anonymous": false,
      "inputs": [
        {
          "indexed": true,
          "internalType": "address",
          "name": "previousOwner",
          "type": "address"
        },
        {
          "indexed": true,
          "internalType": "address",
          "name": "newOwner",
          "type": "address"
        }
      ],
      "name": "OwnershipTransferred",
      "type": "event"
    },
    {
      "anonymous": false,
      "inputs": [
        {
          "indexed": false,
          "internalType": "address",
          "name": "account",
          "type": "address"
        }
      ],
      "name": "Paused",
      "type": "event"
    },
    {
      "anonymous": false,
      "inputs": [
        {
          "indexed": true,
          "internalType": "address",
          "name": "from",
          "type": "address"
        },
        {
          "indexed": true,
          "internalType": "address",
          "name": "to",
          "type": "address"
        },
        {
          "indexed": true,
          "internalType": "uint256",
          "name": "tokenId",
          "type": "uint256"
        }
      ],
      "name": "Transfer",
      "type": "event"
    },
    {
      "anonymous": false,
      "inputs": [
        {
          "indexed": false,
          "internalType": "address",
          "name": "account",
          "type": "address"
        }
      ],
      "name": "Unpaused",
      "type": "event"
    },
    {
      "inputs": [],
      "name": "CLOCK_MODE",
      "outputs": [
        {
          "internalType": "string",
          "name": "",
          "type": "string"
        }
      ],
      "stateMutability": "view",
      "type": "function"
    },
    {
      "inputs": [],
      "name": "DOMAIN_SEPARATOR",
      "outputs": [
        {
          "internalType": "bytes32",
          "name": "",
          "type": "bytes32"
        }
      ],
      "stateMutability": "view",
      "type": "function"
    },
    {
      "inputs": [
        {
          "internalType": "address",
          "name": "to",
          "type": "address"
        },
        {
          "internalType": "uint256",
          "name": "tokenId",
          "type": "uint256"
        }
      ],
      "name": "approve",
      "outputs": [],
      "stateMutability": "nonpayable",
      "type": "function"
    },
    {
      "inputs": [
        {
          "internalType": "address",
          "name": "owner",
          "type": "address"
        }
      ],
      "name": "balanceOf",
      "outputs": [
        {
          "internalType": "uint256",
          "name": "",
          "type": "uint256"
        }
      ],
      "stateMutability": "view",
      "type": "function"
    },
    {
      "inputs": [
        {
          "internalType": "uint256",
          "name": "tokenId",
          "type": "uint256"
        }
      ],
      "name": "burn",
      "outputs": [],
      "stateMutability": "nonpayable",
      "type": "function"
    },
    {
      "inputs": [],
      "name": "clock",
      "outputs": [
        {
          "internalType": "uint48",
          "name": "",
          "type": "uint48"
        }
      ],
      "stateMutability": "view",
      "type": "function"
    },
    {
      "inputs": [
        {
          "internalType": "address",
          "name": "delegatee",
          "type": "address"
        }
      ],
      "name": "delegate",
      "outputs": [],
      "stateMutability": "nonpayable",
      "type": "function"
    },
    {
      "inputs": [
        {
          "internalType": "address",
          "name": "delegatee",
          "type": "address"
        },
        {
          "internalType": "uint256",
          "name": "nonce",
          "type": "uint256"
        },
        {
          "internalType": "uint256",
          "name": "expiry",
          "type": "uint256"
        },
        {
          "internalType": "uint8",
          "name": "v",
          "type": "uint8"
        },
        {
          "internalType": "bytes32",
          "name": "r",
          "type": "bytes32"
        },
        {
          "internalType": "bytes32",
          "name": "s",
          "type": "bytes32"
        }
      ],
      "name": "delegateBySig",
      "outputs": [],
      "stateMutability": "nonpayable",
      "type": "function"
    },
    {
      "inputs": [
        {
          "internalType": "address",
          "name": "account",
          "type": "address"
        }
      ],
      "name": "delegates",
      "outputs": [
        {
          "internalType": "address",
          "name": "",
          "type": "address"
        }
      ],
      "stateMutability": "view",
      "type": "function"
    },
    {
      "inputs": [],
      "name": "eip712Domain",
      "outputs": [
        {
          "internalType": "bytes1",
          "name": "fields",
          "type": "bytes1"
        },
        {
          "internalType": "string",
          "name": "name",
          "type": "string"
        },
        {
          "internalType": "string",
          "name": "version",
          "type": "string"
        },
        {
          "internalType": "uint256",
          "name": "chainId",
          "type": "uint256"
        },
        {
          "internalType": "address",
          "name": "verifyingContract",
          "type": "address"
        },
        {
          "internalType": "bytes32",
          "name": "salt",
          "type": "bytes32"
        },
        {
          "internalType": "uint256[]",
          "name": "extensions",
          "type": "uint256[]"
        }
      ],
      "stateMutability": "view",
      "type": "function"
    },
    {
      "inputs": [
        {
          "internalType": "uint256",
          "name": "tokenId",
          "type": "uint256"
        }
      ],
      "name": "getApproved",
      "outputs": [
        {
          "internalType": "address",
          "name": "",
          "type": "address"
        }
      ],
      "stateMutability": "view",
      "type": "function"
    },
    {
      "inputs": [
        {
          "internalType": "uint256",
          "name": "timepoint",
          "type": "uint256"
        }
      ],
      "name": "getPastTotalSupply",
      "outputs": [
        {
          "internalType": "uint256",
          "name": "",
          "type": "uint256"
        }
      ],
      "stateMutability": "view",
      "type": "function"
    },
    {
      "inputs": [
        {
          "internalType": "address",
          "name": "account",
          "type": "address"
        },
        {
          "internalType": "uint256",
          "name": "timepoint",
          "type": "uint256"
        }
      ],
      "name": "getPastVotes",
      "outputs": [
        {
          "internalType": "uint256",
          "name": "",
          "type": "uint256"
        }
      ],
      "stateMutability": "view",
      "type": "function"
    },
    {
      "inputs": [
        {
          "internalType": "address",
          "name": "account",
          "type": "address"
        }
      ],
      "name": "getVotes",
      "outputs": [
        {
          "internalType": "uint256",
          "name": "",
          "type": "uint256"
        }
      ],
      "stateMutability": "view",
      "type": "function"
    },
    {
      "inputs": [
        {
          "internalType": "address",
          "name": "owner",
          "type": "address"
        },
        {
          "internalType": "address",
          "name": "operator",
          "type": "address"
        }
      ],
      "name": "isApprovedForAll",
      "outputs": [
        {
          "internalType": "bool",
          "name": "",
          "type": "bool"
        }
      ],
      "stateMutability": "view",
      "type": "function"
    },
    {
      "inputs": [],
      "name": "name",
      "outputs": [
        {
          "internalType": "string",
          "name": "",
          "type": "string"
        }
      ],
      "stateMutability": "view",
      "type": "function"
    },
    {
      "inputs": [
        {
          "internalType": "address",
          "name": "owner",
          "type": "address"
        }
      ],
      "name": "nonces",
      "outputs": [
        {
          "internalType": "uint256",
          "name": "",
          "type": "uint256"
        }
      ],
      "stateMutability": "view",
      "type": "function"
    },
    {
      "inputs": [],
      "name": "owner",
      "outputs": [
        {
          "internalType": "address",
          "name": "",
          "type": "address"
        }
      ],
      "stateMutability": "view",
      "type": "function"
    },
    {
      "inputs": [
        {
          "internalType": "uint256",
          "name": "tokenId",
          "type": "uint256"
        }
      ],
      "name": "ownerOf",
      "outputs": [
        {
          "internalType": "address",
          "name": "",
          "type": "address"
        }
      ],
      "stateMutability": "view",
      "type": "function"
    },
    {
      "inputs": [],
      "name": "pause",
      "outputs": [],
      "stateMutability": "nonpayable",
      "type": "function"
    },
    {
      "inputs": [],
      "name": "paused",
      "outputs": [
        {
          "internalType": "bool",
          "name": "",
          "type": "bool"
        }
      ],
      "stateMutability": "view",
      "type": "function"
    },
    {
      "inputs": [],
      "name": "renounceOwnership",
      "outputs": [],
      "stateMutability": "nonpayable",
      "type": "function"
    },
    {
      "inputs": [
        {
          "internalType": "address",
          "name": "to",
          "type": "address"
        }
      ],
      "name": "safeMint",
      "outputs": [],
      "stateMutability": "nonpayable",
      "type": "function"
    },
    {
      "inputs": [
        {
          "internalType": "address",
          "name": "from",
          "type": "address"
        },
        {
          "internalType": "address",
          "name": "to",
          "type": "address"
        },
        {
          "internalType": "uint256",
          "name": "tokenId",
          "type": "uint256"
        }
      ],
      "name": "safeTransferFrom",
      "outputs": [],
      "stateMutability": "nonpayable",
      "type": "function"
    },
    {
      "inputs": [
        {
          "internalType": "address",
          "name": "from",
          "type": "address"
        },
        {
          "internalType": "address",
          "name": "to",
          "type": "address"
        },
        {
          "internalType": "uint256",
          "name": "tokenId",
          "type": "uint256"
        },
        {
          "internalType": "bytes",
          "name": "data",
          "type": "bytes"
        }
      ],
      "name": "safeTransferFrom",
      "outputs": [],
      "stateMutability": "nonpayable",
      "type": "function"
    },
    {
      "inputs": [
        {
          "internalType": "address",
          "name": "operator",
          "type": "address"
        },
        {
          "internalType": "bool",
          "name": "approved",
          "type": "bool"
        }
      ],
      "name": "setApprovalForAll",
      "outputs": [],
      "stateMutability": "nonpayable",
      "type": "function"
    },
    {
      "inputs": [
        {
          "internalType": "bytes4",
          "name": "interfaceId",
          "type": "bytes4"
        }
      ],
      "name": "supportsInterface",
      "outputs": [
        {
          "internalType": "bool",
          "name": "",
          "type": "bool"
        }
      ],
      "stateMutability": "view",
      "type": "function"
    },
    {
      "inputs": [],
      "name": "symbol",
      "outputs": [
        {
          "internalType": "string",
          "name": "",
          "type": "string"
        }
      ],
      "stateMutability": "view",
      "type": "function"
    },
    {
      "inputs": [
        {
          "internalType": "uint256",
          "name": "index",
          "type": "uint256"
        }
      ],
      "name": "tokenByIndex",
      "outputs": [
        {
          "internalType": "uint256",
          "name": "",
          "type": "uint256"
        }
      ],
      "stateMutability": "view",
      "type": "function"
    },
    {
      "inputs": [
        {
          "internalType": "address",
          "name": "owner",
          "type": "address"
        },
        {
          "internalType": "uint256",
          "name": "index",
          "type": "uint256"
        }
      ],
      "name": "tokenOfOwnerByIndex",
      "outputs": [
        {
          "internalType": "uint256",
          "name": "",
          "type": "uint256"
        }
      ],
      "stateMutability": "view",
      "type": "function"
    },
    {
      "inputs": [
        {
          "internalType": "uint256",
          "name": "tokenId",
          "type": "uint256"
        }
      ],
      "name": "tokenURI",
      "outputs": [
        {
          "internalType": "string",
          "name": "",
          "type": "string"
        }
      ],
      "stateMutability": "view",
      "type": "function"
    },
    {
      "inputs": [],
      "name": "totalSupply",
      "outputs": [
        {
          "internalType": "uint256",
          "name": "",
          "type": "uint256"
        }
      ],
      "stateMutability": "view",
      "type": "function"
    },
    {
      "inputs": [
        {
          "internalType": "address",
          "name": "from",
          "type": "address"
        },
        {
          "internalType": "address",
          "name": "to",
          "type": "address"
        },
        {
          "internalType": "uint256",
          "name": "tokenId",
          "type": "uint256"
        }
      ],
      "name": "transferFrom",
      "outputs": [],
      "stateMutability": "nonpayable",
      "type": "function"
    },
    {
      "inputs": [
        {
          "internalType": "address",
          "name": "newOwner",
          "type": "address"
        }
      ],
      "name": "transferOwnership",
      "outputs": [],
      "stateMutability": "nonpayable",
      "type": "function"
    },
    {
      "inputs": [],
      "name": "unpause",
      "outputs": [],
      "stateMutability": "nonpayable",
      "type": "function"
    }
  ],
  "bytecode": "0x6101606040523480156200001257600080fd5b506040516200675638038062006756833981810160405281019062000038919062000517565b816040518060400160405280600181526020017f310000000000000000000000000000000000000000000000000000000000000081525083838160009081620000829190620007e7565b508060019081620000949190620007e7565b5050506000600a60006101000a81548160ff021916908315150217905550620000d2620000c66200018a60201b60201c565b6200019260201b60201c565b620000e8600b836200025860201b90919060201c565b610120818152505062000106600c826200025860201b90919060201c565b6101408181525050818051906020012060e08181525050808051906020012061010081815250504660a0818152505062000145620002b060201b60201c565b608081815250503073ffffffffffffffffffffffffffffffffffffffff1660c08173ffffffffffffffffffffffffffffffffffffffff16815250505050505062000ab4565b600033905090565b6000600a60019054906101000a900473ffffffffffffffffffffffffffffffffffffffff16905081600a60016101000a81548173ffffffffffffffffffffffffffffffffffffffff021916908373ffffffffffffffffffffffffffffffffffffffff1602179055508173ffffffffffffffffffffffffffffffffffffffff168173ffffffffffffffffffffffffffffffffffffffff167f8be0079c531659141344cd1fd0a4f28419497f9722a3daafe3b4186f6b6457e060405160405180910390a35050565b60006020835110156200027e5762000276836200030d60201b60201c565b9050620002aa565b8262000290836200037a60201b60201c565b6000019081620002a19190620007e7565b5060ff60001b90505b92915050565b60007f8b73c3c69bb8fe3d512ecc4cf759cc79239f7b179b0ffacaa9a75d522b39400f60e051610100514630604051602001620002f29594939291906200093f565b60405160208183030381529060405280519060200120905090565b600080829050601f815111156200035d57826040517f305a27a9000000000000000000000000000000000000000000000000000000008152600401620003549190620009ee565b60405180910390fd5b8051816200036b9062000a44565b60001c1760001b915050919050565b6000819050919050565b6000604051905090565b600080fd5b600080fd5b600080fd5b600080fd5b6000601f19601f8301169050919050565b7f4e487b7100000000000000000000000000000000000000000000000000000000600052604160045260246000fd5b620003ed82620003a2565b810181811067ffffffffffffffff821117156200040f576200040e620003b3565b5b80604052505050565b60006200042462000384565b9050620004328282620003e2565b919050565b600067ffffffffffffffff821115620004555762000454620003b3565b5b6200046082620003a2565b9050602081019050919050565b60005b838110156200048d57808201518184015260208101905062000470565b60008484015250505050565b6000620004b0620004aa8462000437565b62000418565b905082815260208101848484011115620004cf57620004ce6200039d565b5b620004dc8482856200046d565b509392505050565b600082601f830112620004fc57620004fb62000398565b5b81516200050e84826020860162000499565b91505092915050565b600080604083850312156200053157620005306200038e565b5b600083015167ffffffffffffffff81111562000552576200055162000393565b5b6200056085828601620004e4565b925050602083015167ffffffffffffffff81111562000584576200058362000393565b5b6200059285828601620004e4565b9150509250929050565b600081519050919050565b7f4e487b7100000000000000000000000000000000000000000000000000000000600052602260045260246000fd5b60006002820490506001821680620005ef57607f821691505b602082108103620006055762000604620005a7565b5b50919050565b60008190508160005260206000209050919050565b60006020601f8301049050919050565b600082821b905092915050565b6000600883026200066f7fffffffffffffffffffffffffffffffffffffffffffffffffffffffffffffffff8262000630565b6200067b868362000630565b95508019841693508086168417925050509392505050565b6000819050919050565b6000819050919050565b6000620006c8620006c2620006bc8462000693565b6200069d565b62000693565b9050919050565b6000819050919050565b620006e483620006a7565b620006fc620006f382620006cf565b8484546200063d565b825550505050565b600090565b6200071362000704565b62000720818484620006d9565b505050565b5b8181101562000748576200073c60008262000709565b60018101905062000726565b5050565b601f821115620007975762000761816200060b565b6200076c8462000620565b810160208510156200077c578190505b620007946200078b8562000620565b83018262000725565b50505b505050565b600082821c905092915050565b6000620007bc600019846008026200079c565b1980831691505092915050565b6000620007d78383620007a9565b9150826002028217905092915050565b620007f2826200059c565b67ffffffffffffffff8111156200080e576200080d620003b3565b5b6200081a8254620005d6565b620008278282856200074c565b600060209050601f8311600181146200085f57600084156200084a578287015190505b620008568582620007c9565b865550620008c6565b601f1984166200086f866200060b565b60005b82811015620008995784890151825560018201915060208501945060208101905062000872565b86831015620008b95784890151620008b5601f891682620007a9565b8355505b6001600288020188555050505b505050505050565b6000819050919050565b620008e381620008ce565b82525050565b620008f48162000693565b82525050565b600073ffffffffffffffffffffffffffffffffffffffff82169050919050565b60006200092782620008fa565b9050919050565b62000939816200091a565b82525050565b600060a082019050620009566000830188620008d8565b620009656020830187620008d8565b620009746040830186620008d8565b620009836060830185620008e9565b6200099260808301846200092e565b9695505050505050565b600082825260208201905092915050565b6000620009ba826200059c565b620009c681856200099c565b9350620009d88185602086016200046d565b620009e381620003a2565b840191505092915050565b6000602082019050818103600083015262000a0a8184620009ad565b905092915050565b600081519050919050565b6000819050602082019050919050565b600062000a3b8251620008ce565b80915050919050565b600062000a518262000a12565b8262000a5d8462000a1d565b905062000a6a8162000a2d565b9250602082101562000aad5762000aa87fffffffffffffffffffffffffffffffffffffffffffffffffffffffffffffffff8360200360080262000630565b831692505b5050919050565b60805160a05160c05160e051610100516101205161014051615c4762000b0f6000396000610f1301526000610edf015260006126ea015260006126c9015260006119af01526000611a0501526000611a2e0152615c476000f3fe608060405234801561001057600080fd5b50600436106102115760003560e01c80635c975abb1161012557806391ddadf4116100ad578063b88d4fde1161007c578063b88d4fde1461061c578063c3cda52014610638578063c87b56dd14610654578063e985e9c514610684578063f2fde38b146106b457610211565b806391ddadf41461059457806395d89b41146105b25780639ab24eb0146105d0578063a22cb4651461060057610211565b80637ecebe00116100f45780637ecebe00146104e85780638456cb591461051857806384b0196e146105225780638da5cb5b146105465780638e539e8c1461056457610211565b80635c975abb146104605780636352211e1461047e57806370a08231146104ae578063715018a6146104de57610211565b80633a46b1a8116101a857806342966c681161017757806342966c68146103aa5780634bf5d7e9146103c65780634f6ccce7146103e4578063587cde1e146104145780635c19a95c1461044457610211565b80633a46b1a8146103385780633f4ba83a1461036857806340d097c31461037257806342842e0e1461038e57610211565b806318160ddd116101e457806318160ddd146102b057806323b872dd146102ce5780632f745c59146102ea5780633644e5151461031a57610211565b806301ffc9a71461021657806306fdde0314610246578063081812fc14610264578063095ea7b314610294575b600080fd5b610230600480360381019061022b919061406a565b6106d0565b60405161023d91906140b2565b60405180910390f35b61024e6106e2565b60405161025b919061415d565b60405180910390f35b61027e600480360381019061027991906141b5565b610774565b60405161028b9190614223565b60405180910390f35b6102ae60048036038101906102a9919061426a565b6107ba565b005b6102b86108d1565b6040516102c591906142b9565b60405180910390f35b6102e860048036038101906102e391906142d4565b6108de565b005b61030460048036038101906102ff919061426a565b61093e565b60405161031191906142b9565b60405180910390f35b6103226109e3565b60405161032f9190614340565b60405180910390f35b610352600480360381019061034d919061426a565b6109f2565b60405161035f91906142b9565b60405180910390f35b610370610ac4565b005b61038c6004803603810190610387919061435b565b610ad6565b005b6103a860048036038101906103a391906142d4565b610b04565b005b6103c460048036038101906103bf91906141b5565b610b24565b005b6103ce610b80565b6040516103db919061415d565b60405180910390f35b6103fe60048036038101906103f991906141b5565b610c0e565b60405161040b91906142b9565b60405180910390f35b61042e6004803603810190610429919061435b565b610c7f565b60405161043b9190614223565b60405180910390f35b61045e6004803603810190610459919061435b565b610ce8565b005b610468610d02565b60405161047591906140b2565b60405180910390f35b610498600480360381019061049391906141b5565b610d19565b6040516104a59190614223565b60405180910390f35b6104c860048036038101906104c3919061435b565b610d9f565b6040516104d591906142b9565b60405180910390f35b6104e6610e56565b005b61050260048036038101906104fd919061435b565b610e6a565b60405161050f91906142b9565b60405180910390f35b610520610eba565b005b61052a610ecc565b60405161053d9796959493929190614481565b60405180910390f35b61054e610fce565b60405161055b9190614223565b60405180910390f35b61057e600480360381019061057991906141b5565b610ff8565b60405161058b91906142b9565b60405180910390f35b61059c61108c565b6040516105a99190614526565b60405180910390f35b6105ba61109c565b6040516105c7919061415d565b60405180910390f35b6105ea60048036038101906105e5919061435b565b61112e565b6040516105f791906142b9565b60405180910390f35b61061a6004803603810190610615919061456d565b61119c565b005b610636600480360381019061063191906146e2565b6111b2565b005b610652600480360381019061064d91906147ca565b611214565b005b61066e600480360381019061066991906141b5565b611318565b60405161067b919061415d565b60405180910390f35b61069e60048036038101906106999190614857565b611380565b6040516106ab91906140b2565b60405180910390f35b6106ce60048036038101906106c9919061435b565b611414565b005b60006106db82611497565b9050919050565b6060600080546106f1906148c6565b80601f016020809104026020016040519081016040528092919081815260200182805461071d906148c6565b801561076a5780601f1061073f5761010080835404028352916020019161076a565b820191906000526020600020905b81548152906001019060200180831161074d57829003601f168201915b5050505050905090565b600061077f82611511565b6004600083815260200190815260200160002060009054906101000a900473ffffffffffffffffffffffffffffffffffffffff169050919050565b60006107c582610d19565b90508073ffffffffffffffffffffffffffffffffffffffff168373ffffffffffffffffffffffffffffffffffffffff1603610835576040517f08c379a000000000000000000000000000000000000000000000000000000000815260040161082c90614969565b60405180910390fd5b8073ffffffffffffffffffffffffffffffffffffffff1661085461155c565b73ffffffffffffffffffffffffffffffffffffffff16148061088357506108828161087d61155c565b611380565b5b6108c2576040517f08c379a00000000000000000000000000000000000000000000000000000000081526004016108b9906149fb565b60405180910390fd5b6108cc8383611564565b505050565b6000600880549050905090565b6108ef6108e961155c565b8261161d565b61092e576040517f08c379a000000000000000000000000000000000000000000000000000000000815260040161092590614a8d565b60405180910390fd5b6109398383836116b2565b505050565b600061094983610d9f565b821061098a576040517f08c379a000000000000000000000000000000000000000000000000000000000815260040161098190614b1f565b60405180910390fd5b600660008473ffffffffffffffffffffffffffffffffffffffff1673ffffffffffffffffffffffffffffffffffffffff168152602001908152602001600020600083815260200190815260200160002054905092915050565b60006109ed6119ab565b905090565b60006109fc61108c565b65ffffffffffff168210610a45576040517f08c379a0000000000000000000000000000000000000000000000000000000008152600401610a3c90614b8b565b60405180910390fd5b610a9e610a5183611a62565b600e60008673ffffffffffffffffffffffffffffffffffffffff1673ffffffffffffffffffffffffffffffffffffffff168152602001908152602001600020611ab590919063ffffffff16565b7bffffffffffffffffffffffffffffffffffffffffffffffffffffffff16905092915050565b610acc611bab565b610ad4611c29565b565b610ade611bab565b6000610aea6011611c8c565b9050610af66011611c9a565b610b008282611cb0565b5050565b610b1f838383604051806020016040528060008152506111b2565b505050565b610b35610b2f61155c565b8261161d565b610b74576040517f08c379a0000000000000000000000000000000000000000000000000000000008152600401610b6b90614a8d565b60405180910390fd5b610b7d81611cce565b50565b606043610b8b61108c565b65ffffffffffff1614610bd3576040517f08c379a0000000000000000000000000000000000000000000000000000000008152600401610bca90614bf7565b60405180910390fd5b6040518060400160405280601d81526020017f6d6f64653d626c6f636b6e756d6265722666726f6d3d64656661756c74000000815250905090565b6000610c186108d1565b8210610c59576040517f08c379a0000000000000000000000000000000000000000000000000000000008152600401610c5090614c89565b60405180910390fd5b60088281548110610c6d57610c6c614ca9565b5b90600052602060002001549050919050565b6000600d60008373ffffffffffffffffffffffffffffffffffffffff1673ffffffffffffffffffffffffffffffffffffffff16815260200190815260200160002060009054906101000a900473ffffffffffffffffffffffffffffffffffffffff169050919050565b6000610cf261155c565b9050610cfe8183611e1c565b5050565b6000600a60009054906101000a900460ff16905090565b600080610d2583611f30565b9050600073ffffffffffffffffffffffffffffffffffffffff168173ffffffffffffffffffffffffffffffffffffffff1603610d96576040517f08c379a0000000000000000000000000000000000000000000000000000000008152600401610d8d90614d24565b60405180910390fd5b80915050919050565b60008073ffffffffffffffffffffffffffffffffffffffff168273ffffffffffffffffffffffffffffffffffffffff1603610e0f576040517f08c379a0000000000000000000000000000000000000000000000000000000008152600401610e0690614db6565b60405180910390fd5b600360008373ffffffffffffffffffffffffffffffffffffffff1673ffffffffffffffffffffffffffffffffffffffff168152602001908152602001600020549050919050565b610e5e611bab565b610e686000611f6d565b565b6000610eb3601060008473ffffffffffffffffffffffffffffffffffffffff1673ffffffffffffffffffffffffffffffffffffffff168152602001908152602001600020611c8c565b9050919050565b610ec2611bab565b610eca612033565b565b600060608060008060006060610f0c600b7f000000000000000000000000000000000000000000000000000000000000000061209690919063ffffffff16565b610f40600c7f000000000000000000000000000000000000000000000000000000000000000061209690919063ffffffff16565b46306000801b600067ffffffffffffffff811115610f6157610f606145b7565b5b604051908082528060200260200182016040528015610f8f5781602001602082028036833780820191505090505b507f0f00000000000000000000000000000000000000000000000000000000000000959493929190965096509650965096509650965090919293949596565b6000600a60019054906101000a900473ffffffffffffffffffffffffffffffffffffffff16905090565b600061100261108c565b65ffffffffffff16821061104b576040517f08c379a000000000000000000000000000000000000000000000000000000000815260040161104290614b8b565b60405180910390fd5b61106761105783611a62565b600f611ab590919063ffffffff16565b7bffffffffffffffffffffffffffffffffffffffffffffffffffffffff169050919050565b600061109743612146565b905090565b6060600180546110ab906148c6565b80601f01602080910402602001604051908101604052809291908181526020018280546110d7906148c6565b80156111245780601f106110f957610100808354040283529160200191611124565b820191906000526020600020905b81548152906001019060200180831161110757829003601f168201915b5050505050905090565b6000611177600e60008473ffffffffffffffffffffffffffffffffffffffff1673ffffffffffffffffffffffffffffffffffffffff16815260200190815260200160002061219b565b7bffffffffffffffffffffffffffffffffffffffffffffffffffffffff169050919050565b6111ae6111a761155c565b8383612205565b5050565b6111c36111bd61155c565b8361161d565b611202576040517f08c379a00000000000000000000000000000000000000000000000000000000081526004016111f990614a8d565b60405180910390fd5b61120e84848484612371565b50505050565b83421115611257576040517f08c379a000000000000000000000000000000000000000000000000000000000815260040161124e90614e22565b60405180910390fd5b60006112b96112b17fe48329057bfd03d55e49b547132e39cffd9c1820ad7b9d4c5307691425d15adf8989896040516020016112969493929190614e42565b604051602081830303815290604052805190602001206123cd565b8585856123e7565b90506112c481612412565b8614611305576040517f08c379a00000000000000000000000000000000000000000000000000000000081526004016112fc90614ed3565b60405180910390fd5b61130f8188611e1c565b50505050505050565b606061132382611511565b600061132d612470565b9050600081511161134d5760405180602001604052806000815250611378565b8061135784612487565b604051602001611368929190614f2f565b6040516020818303038152906040525b915050919050565b6000600560008473ffffffffffffffffffffffffffffffffffffffff1673ffffffffffffffffffffffffffffffffffffffff16815260200190815260200160002060008373ffffffffffffffffffffffffffffffffffffffff1673ffffffffffffffffffffffffffffffffffffffff16815260200190815260200160002060009054906101000a900460ff16905092915050565b61141c611bab565b600073ffffffffffffffffffffffffffffffffffffffff168173ffffffffffffffffffffffffffffffffffffffff160361148b576040517f08c379a000000000000000000000000000000000000000000000000000000000815260040161148290614fc5565b60405180910390fd5b61149481611f6d565b50565b60007f780e9d63000000000000000000000000000000000000000000000000000000007bffffffffffffffffffffffffffffffffffffffffffffffffffffffff1916827bffffffffffffffffffffffffffffffffffffffffffffffffffffffff1916148061150a575061150982612555565b5b9050919050565b61151a81612637565b611559576040517f08c379a000000000000000000000000000000000000000000000000000000000815260040161155090614d24565b60405180910390fd5b50565b600033905090565b816004600083815260200190815260200160002060006101000a81548173ffffffffffffffffffffffffffffffffffffffff021916908373ffffffffffffffffffffffffffffffffffffffff160217905550808273ffffffffffffffffffffffffffffffffffffffff166115d783610d19565b73ffffffffffffffffffffffffffffffffffffffff167f8c5be1e5ebec7d5bd14f71427d1e84f3dd0314c0f7b2291e5b200ac8c7c3b92560405160405180910390a45050565b60008061162983610d19565b90508073ffffffffffffffffffffffffffffffffffffffff168473ffffffffffffffffffffffffffffffffffffffff16148061166b575061166a8185611380565b5b806116a957508373ffffffffffffffffffffffffffffffffffffffff1661169184610774565b73ffffffffffffffffffffffffffffffffffffffff16145b91505092915050565b8273ffffffffffffffffffffffffffffffffffffffff166116d282610d19565b73ffffffffffffffffffffffffffffffffffffffff1614611728576040517f08c379a000000000000000000000000000000000000000000000000000000000815260040161171f90615057565b60405180910390fd5b600073ffffffffffffffffffffffffffffffffffffffff168273ffffffffffffffffffffffffffffffffffffffff1603611797576040517f08c379a000000000000000000000000000000000000000000000000000000000815260040161178e906150e9565b60405180910390fd5b6117a48383836001612678565b8273ffffffffffffffffffffffffffffffffffffffff166117c482610d19565b73ffffffffffffffffffffffffffffffffffffffff161461181a576040517f08c379a000000000000000000000000000000000000000000000000000000000815260040161181190615057565b60405180910390fd5b6004600082815260200190815260200160002060006101000a81549073ffffffffffffffffffffffffffffffffffffffff02191690556001600360008573ffffffffffffffffffffffffffffffffffffffff1673ffffffffffffffffffffffffffffffffffffffff168152602001908152602001600020600082825403925050819055506001600360008473ffffffffffffffffffffffffffffffffffffffff1673ffffffffffffffffffffffffffffffffffffffff16815260200190815260200160002060008282540192505081905550816002600083815260200190815260200160002060006101000a81548173ffffffffffffffffffffffffffffffffffffffff021916908373ffffffffffffffffffffffffffffffffffffffff160217905550808273ffffffffffffffffffffffffffffffffffffffff168473ffffffffffffffffffffffffffffffffffffffff167fddf252ad1be2c89b69c2b068fc378daa952ba7f163c4a11628f55a4df523b3ef60405160405180910390a46119a68383836001612692565b505050565b60007f000000000000000000000000000000000000000000000000000000000000000073ffffffffffffffffffffffffffffffffffffffff163073ffffffffffffffffffffffffffffffffffffffff16148015611a2757507f000000000000000000000000000000000000000000000000000000000000000046145b15611a54577f00000000000000000000000000000000000000000000000000000000000000009050611a5f565b611a5c6126a4565b90505b90565b600063ffffffff8016821115611aad576040517f08c379a0000000000000000000000000000000000000000000000000000000008152600401611aa49061517b565b60405180910390fd5b819050919050565b600080836000018054905090506000808290506005831115611b37576000611adc8461273a565b84611ae791906151ca565b9050611af68760000182612833565b60000160009054906101000a900463ffffffff1663ffffffff168663ffffffff161015611b2557809150611b35565b600181611b3291906151fe565b92505b505b6000611b4887600001878585612848565b905060008114611b9c57611b6b87600001600183611b6691906151ca565b612833565b60000160049054906101000a90047bffffffffffffffffffffffffffffffffffffffffffffffffffffffff16611b9f565b60005b94505050505092915050565b611bb361155c565b73ffffffffffffffffffffffffffffffffffffffff16611bd1610fce565b73ffffffffffffffffffffffffffffffffffffffff1614611c27576040517f08c379a0000000000000000000000000000000000000000000000000000000008152600401611c1e9061527e565b60405180910390fd5b565b611c316128bb565b6000600a60006101000a81548160ff0219169083151502179055507f5db9ee0a495bf2e6ff9c91a7834c1ba4fdd244a5e8aa4e537bd38aeae4b073aa611c7561155c565b604051611c829190614223565b60405180910390a1565b600081600001549050919050565b6001816000016000828254019250508190555050565b611cca828260405180602001604052806000815250612904565b5050565b6000611cd982610d19565b9050611ce9816000846001612678565b611cf282610d19565b90506004600083815260200190815260200160002060006101000a81549073ffffffffffffffffffffffffffffffffffffffff02191690556001600360008373ffffffffffffffffffffffffffffffffffffffff1673ffffffffffffffffffffffffffffffffffffffff168152602001908152602001600020600082825403925050819055506002600083815260200190815260200160002060006101000a81549073ffffffffffffffffffffffffffffffffffffffff021916905581600073ffffffffffffffffffffffffffffffffffffffff168273ffffffffffffffffffffffffffffffffffffffff167fddf252ad1be2c89b69c2b068fc378daa952ba7f163c4a11628f55a4df523b3ef60405160405180910390a4611e18816000846001612692565b5050565b6000611e2783610c7f565b905081600d60008573ffffffffffffffffffffffffffffffffffffffff1673ffffffffffffffffffffffffffffffffffffffff16815260200190815260200160002060006101000a81548173ffffffffffffffffffffffffffffffffffffffff021916908373ffffffffffffffffffffffffffffffffffffffff1602179055508173ffffffffffffffffffffffffffffffffffffffff168173ffffffffffffffffffffffffffffffffffffffff168473ffffffffffffffffffffffffffffffffffffffff167f3134e8a2e6d97e929a7e54011ea5485d7d196dd5f0ba4d4ef95803e8e3fc257f60405160405180910390a4611f2b8183611f268661295f565b612971565b505050565b60006002600083815260200190815260200160002060009054906101000a900473ffffffffffffffffffffffffffffffffffffffff169050919050565b6000600a60019054906101000a900473ffffffffffffffffffffffffffffffffffffffff16905081600a60016101000a81548173ffffffffffffffffffffffffffffffffffffffff021916908373ffffffffffffffffffffffffffffffffffffffff1602179055508173ffffffffffffffffffffffffffffffffffffffff168173ffffffffffffffffffffffffffffffffffffffff167f8be0079c531659141344cd1fd0a4f28419497f9722a3daafe3b4186f6b6457e060405160405180910390a35050565b61203b612bf2565b6001600a60006101000a81548160ff0219169083151502179055507f62e78cea01bee320cd4e420270b5ea74000d11b0c9f74754ebdbfc544b05a25861207f61155c565b60405161208c9190614223565b60405180910390a1565b606060ff60001b83146120b3576120ac83612c3c565b9050612140565b8180546120bf906148c6565b80601f01602080910402602001604051908101604052809291908181526020018280546120eb906148c6565b80156121385780601f1061210d57610100808354040283529160200191612138565b820191906000526020600020905b81548152906001019060200180831161211b57829003601f168201915b505050505090505b92915050565b600065ffffffffffff8016821115612193576040517f08c379a000000000000000000000000000000000000000000000000000000000815260040161218a90615310565b60405180910390fd5b819050919050565b60008082600001805490509050600081146121fa576121c9836000016001836121c491906151ca565b612833565b60000160049054906101000a90047bffffffffffffffffffffffffffffffffffffffffffffffffffffffff166121fd565b60005b915050919050565b8173ffffffffffffffffffffffffffffffffffffffff168373ffffffffffffffffffffffffffffffffffffffff1603612273576040517f08c379a000000000000000000000000000000000000000000000000000000000815260040161226a9061537c565b60405180910390fd5b80600560008573ffffffffffffffffffffffffffffffffffffffff1673ffffffffffffffffffffffffffffffffffffffff16815260200190815260200160002060008473ffffffffffffffffffffffffffffffffffffffff1673ffffffffffffffffffffffffffffffffffffffff16815260200190815260200160002060006101000a81548160ff0219169083151502179055508173ffffffffffffffffffffffffffffffffffffffff168373ffffffffffffffffffffffffffffffffffffffff167f17307eab39ab6107e8899845ad3d59bd9653f200f220920489ca2b5937696c318360405161236491906140b2565b60405180910390a3505050565b61237c8484846116b2565b61238884848484612cb0565b6123c7576040517f08c379a00000000000000000000000000000000000000000000000000000000081526004016123be9061540e565b60405180910390fd5b50505050565b60006123e06123da6119ab565b83612e37565b9050919050565b60008060006123f887878787612e78565b9150915061240581612f5a565b8192505050949350505050565b600080601060008473ffffffffffffffffffffffffffffffffffffffff1673ffffffffffffffffffffffffffffffffffffffff168152602001908152602001600020905061245f81611c8c565b915061246a81611c9a565b50919050565b606060405180602001604052806000815250905090565b606060006001612496846130c0565b01905060008167ffffffffffffffff8111156124b5576124b46145b7565b5b6040519080825280601f01601f1916602001820160405280156124e75781602001600182028036833780820191505090505b509050600082602001820190505b60011561254a578080600190039150507f3031323334353637383961626364656600000000000000000000000000000000600a86061a8153600a858161253e5761253d61542e565b5b049450600085036124f5575b819350505050919050565b60007f80ac58cd000000000000000000000000000000000000000000000000000000007bffffffffffffffffffffffffffffffffffffffffffffffffffffffff1916827bffffffffffffffffffffffffffffffffffffffffffffffffffffffff1916148061262057507f5b5e139f000000000000000000000000000000000000000000000000000000007bffffffffffffffffffffffffffffffffffffffffffffffffffffffff1916827bffffffffffffffffffffffffffffffffffffffffffffffffffffffff1916145b80612630575061262f82613213565b5b9050919050565b60008073ffffffffffffffffffffffffffffffffffffffff1661265983611f30565b73ffffffffffffffffffffffffffffffffffffffff1614159050919050565b612680612bf2565b61268c8484848461327d565b50505050565b61269e848484846133db565b50505050565b60007f8b73c3c69bb8fe3d512ecc4cf759cc79239f7b179b0ffacaa9a75d522b39400f7f00000000000000000000000000000000000000000000000000000000000000007f0000000000000000000000000000000000000000000000000000000000000000463060405160200161271f95949392919061545d565b60405160208183030381529060405280519060200120905090565b600080820361274c576000905061282e565b60006001612759846133f8565b901c6001901b905060018184816127735761277261542e565b5b048201901c9050600181848161278c5761278b61542e565b5b048201901c905060018184816127a5576127a461542e565b5b048201901c905060018184816127be576127bd61542e565b5b048201901c905060018184816127d7576127d661542e565b5b048201901c905060018184816127f0576127ef61542e565b5b048201901c905060018184816128095761280861542e565b5b048201901c905061282a818285816128245761282361542e565b5b046134d9565b9150505b919050565b60008260005281602060002001905092915050565b60005b818310156128b057600061285f84846134f2565b90508463ffffffff166128728783612833565b60000160009054906101000a900463ffffffff1663ffffffff16111561289a578092506128aa565b6001816128a791906151fe565b93505b5061284b565b819050949350505050565b6128c3610d02565b612902576040517f08c379a00000000000000000000000000000000000000000000000000000000081526004016128f9906154fc565b60405180910390fd5b565b61290e8383613518565b61291b6000848484612cb0565b61295a576040517f08c379a00000000000000000000000000000000000000000000000000000000081526004016129519061540e565b60405180910390fd5b505050565b600061296a82610d9f565b9050919050565b8173ffffffffffffffffffffffffffffffffffffffff168373ffffffffffffffffffffffffffffffffffffffff16141580156129ad5750600081115b15612bed57600073ffffffffffffffffffffffffffffffffffffffff168373ffffffffffffffffffffffffffffffffffffffff1614612acf57600080612a3c600e60008773ffffffffffffffffffffffffffffffffffffffff1673ffffffffffffffffffffffffffffffffffffffff168152602001908152602001600020613735612a378661374b565b6137b6565b7bffffffffffffffffffffffffffffffffffffffffffffffffffffffff1691507bffffffffffffffffffffffffffffffffffffffffffffffffffffffff1691508473ffffffffffffffffffffffffffffffffffffffff167fdec2bacdd2f05b59de34da9b523dff8be42e5e38e818c82fdb0bae774387a7248383604051612ac492919061551c565b60405180910390a250505b600073ffffffffffffffffffffffffffffffffffffffff168273ffffffffffffffffffffffffffffffffffffffff1614612bec57600080612b59600e60008673ffffffffffffffffffffffffffffffffffffffff1673ffffffffffffffffffffffffffffffffffffffff168152602001908152602001600020613806612b548661374b565b6137b6565b7bffffffffffffffffffffffffffffffffffffffffffffffffffffffff1691507bffffffffffffffffffffffffffffffffffffffffffffffffffffffff1691508373ffffffffffffffffffffffffffffffffffffffff167fdec2bacdd2f05b59de34da9b523dff8be42e5e38e818c82fdb0bae774387a7248383604051612be192919061551c565b60405180910390a250505b5b505050565b612bfa610d02565b15612c3a576040517f08c379a0000000000000000000000000000000000000000000000000000000008152600401612c3190615591565b60405180910390fd5b565b60606000612c498361381c565b90506000602067ffffffffffffffff811115612c6857612c676145b7565b5b6040519080825280601f01601f191660200182016040528015612c9a5781602001600182028036833780820191505090505b5090508181528360208201528092505050919050565b6000612cd18473ffffffffffffffffffffffffffffffffffffffff1661386c565b15612e2a578373ffffffffffffffffffffffffffffffffffffffff1663150b7a02612cfa61155c565b8786866040518563ffffffff1660e01b8152600401612d1c9493929190615606565b6020604051808303816000875af1925050508015612d5857506040513d601f19601f82011682018060405250810190612d559190615667565b60015b612dda573d8060008114612d88576040519150601f19603f3d011682016040523d82523d6000602084013e612d8d565b606091505b506000815103612dd2576040517f08c379a0000000000000000000000000000000000000000000000000000000008152600401612dc99061540e565b60405180910390fd5b805181602001fd5b63150b7a0260e01b7bffffffffffffffffffffffffffffffffffffffffffffffffffffffff1916817bffffffffffffffffffffffffffffffffffffffffffffffffffffffff191614915050612e2f565b600190505b949350505050565b60006040517f190100000000000000000000000000000000000000000000000000000000000081528360028201528260228201526042812091505092915050565b6000807f7fffffffffffffffffffffffffffffff5d576e7357a4501ddfe92f46681b20a08360001c1115612eb3576000600391509150612f51565b600060018787878760405160008152602001604052604051612ed894939291906156a3565b6020604051602081039080840390855afa158015612efa573d6000803e3d6000fd5b505050602060405103519050600073ffffffffffffffffffffffffffffffffffffffff168173ffffffffffffffffffffffffffffffffffffffff1603612f4857600060019250925050612f51565b80600092509250505b94509492505050565b60006004811115612f6e57612f6d6156e8565b5b816004811115612f8157612f806156e8565b5b03156130bd5760016004811115612f9b57612f9a6156e8565b5b816004811115612fae57612fad6156e8565b5b03612fee576040517f08c379a0000000000000000000000000000000000000000000000000000000008152600401612fe590615763565b60405180910390fd5b60026004811115613002576130016156e8565b5b816004811115613015576130146156e8565b5b03613055576040517f08c379a000000000000000000000000000000000000000000000000000000000815260040161304c906157cf565b60405180910390fd5b60036004811115613069576130686156e8565b5b81600481111561307c5761307b6156e8565b5b036130bc576040517f08c379a00000000000000000000000000000000000000000000000000000000081526004016130b390615861565b60405180910390fd5b5b50565b600080600090507a184f03e93ff9f4daa797ed6e38ed64bf6a1f010000000000000000831061311e577a184f03e93ff9f4daa797ed6e38ed64bf6a1f01000000000000000083816131145761311361542e565b5b0492506040810190505b6d04ee2d6d415b85acef8100000000831061315b576d04ee2d6d415b85acef810000000083816131515761315061542e565b5b0492506020810190505b662386f26fc10000831061318a57662386f26fc1000083816131805761317f61542e565b5b0492506010810190505b6305f5e10083106131b3576305f5e10083816131a9576131a861542e565b5b0492506008810190505b61271083106131d85761271083816131ce576131cd61542e565b5b0492506004810190505b606483106131fb57606483816131f1576131f061542e565b5b0492506002810190505b600a831061320a576001810190505b80915050919050565b60007f01ffc9a7000000000000000000000000000000000000000000000000000000007bffffffffffffffffffffffffffffffffffffffffffffffffffffffff1916827bffffffffffffffffffffffffffffffffffffffffffffffffffffffff1916149050919050565b6132898484848461388f565b60018111156132cd576040517f08c379a00000000000000000000000000000000000000000000000000000000081526004016132c4906158f3565b60405180910390fd5b6000829050600073ffffffffffffffffffffffffffffffffffffffff168573ffffffffffffffffffffffffffffffffffffffff16036133145761330f81613895565b613353565b8373ffffffffffffffffffffffffffffffffffffffff168573ffffffffffffffffffffffffffffffffffffffff16146133525761335185826138de565b5b5b600073ffffffffffffffffffffffffffffffffffffffff168473ffffffffffffffffffffffffffffffffffffffff16036133955761339081613a4b565b6133d4565b8473ffffffffffffffffffffffffffffffffffffffff168473ffffffffffffffffffffffffffffffffffffffff16146133d3576133d28482613b1c565b5b5b5050505050565b6133e6848483613b9b565b6133f284848484613c55565b50505050565b600080600090506000608084901c111561341a57608083901c92506080810190505b6000604084901c111561343557604083901c92506040810190505b6000602084901c111561345057602083901c92506020810190505b6000601084901c111561346b57601083901c92506010810190505b6000600884901c111561348657600883901c92506008810190505b6000600484901c11156134a157600483901c92506004810190505b6000600284901c11156134bc57600283901c92506002810190505b6000600184901c11156134d0576001810190505b80915050919050565b60008183106134e857816134ea565b825b905092915050565b600060028284186135039190615913565b82841661351091906151fe565b905092915050565b600073ffffffffffffffffffffffffffffffffffffffff168273ffffffffffffffffffffffffffffffffffffffff1603613587576040517f08c379a000000000000000000000000000000000000000000000000000000000815260040161357e90615990565b60405180910390fd5b61359081612637565b156135d0576040517f08c379a00000000000000000000000000000000000000000000000000000000081526004016135c7906159fc565b60405180910390fd5b6135de600083836001612678565b6135e781612637565b15613627576040517f08c379a000000000000000000000000000000000000000000000000000000000815260040161361e906159fc565b60405180910390fd5b6001600360008473ffffffffffffffffffffffffffffffffffffffff1673ffffffffffffffffffffffffffffffffffffffff16815260200190815260200160002060008282540192505081905550816002600083815260200190815260200160002060006101000a81548173ffffffffffffffffffffffffffffffffffffffff021916908373ffffffffffffffffffffffffffffffffffffffff160217905550808273ffffffffffffffffffffffffffffffffffffffff16600073ffffffffffffffffffffffffffffffffffffffff167fddf252ad1be2c89b69c2b068fc378daa952ba7f163c4a11628f55a4df523b3ef60405160405180910390a4613731600083836001612692565b5050565b600081836137439190615a44565b905092915050565b60007bffffffffffffffffffffffffffffffffffffffffffffffffffffffff80168211156137ae576040517f08c379a00000000000000000000000000000000000000000000000000000000081526004016137a590615b06565b60405180910390fd5b819050919050565b6000806137fa6137d46137c761108c565b65ffffffffffff16611a62565b6137ea6137e08861219b565b868863ffffffff16565b87613c5b9092919063ffffffff16565b91509150935093915050565b600081836138149190615b26565b905092915050565b60008060ff8360001c169050601f811115613863576040517fb3512b0c00000000000000000000000000000000000000000000000000000000815260040160405180910390fd5b80915050919050565b6000808273ffffffffffffffffffffffffffffffffffffffff163b119050919050565b50505050565b6008805490506009600083815260200190815260200160002081905550600881908060018154018082558091505060019003906000526020600020016000909190919091505550565b600060016138eb84610d9f565b6138f591906151ca565b90506000600760008481526020019081526020016000205490508181146139da576000600660008673ffffffffffffffffffffffffffffffffffffffff1673ffffffffffffffffffffffffffffffffffffffff168152602001908152602001600020600084815260200190815260200160002054905080600660008773ffffffffffffffffffffffffffffffffffffffff1673ffffffffffffffffffffffffffffffffffffffff168152602001908152602001600020600084815260200190815260200160002081905550816007600083815260200190815260200160002081905550505b6007600084815260200190815260200160002060009055600660008573ffffffffffffffffffffffffffffffffffffffff1673ffffffffffffffffffffffffffffffffffffffff16815260200190815260200160002060008381526020019081526020016000206000905550505050565b60006001600880549050613a5f91906151ca565b9050600060096000848152602001908152602001600020549050600060088381548110613a8f57613a8e614ca9565b5b906000526020600020015490508060088381548110613ab157613ab0614ca9565b5b906000526020600020018190555081600960008381526020019081526020016000208190555060096000858152602001908152602001600020600090556008805480613b0057613aff615b76565b5b6001900381819060005260206000200160009055905550505050565b6000613b2783610d9f565b905081600660008573ffffffffffffffffffffffffffffffffffffffff1673ffffffffffffffffffffffffffffffffffffffff168152602001908152602001600020600083815260200190815260200160002081905550806007600084815260200190815260200160002081905550505050565b600073ffffffffffffffffffffffffffffffffffffffff168373ffffffffffffffffffffffffffffffffffffffff1603613be857613be5600f613806613be08461374b565b6137b6565b50505b600073ffffffffffffffffffffffffffffffffffffffff168273ffffffffffffffffffffffffffffffffffffffff1603613c3557613c32600f613735613c2d8461374b565b6137b6565b50505b613c50613c4184610c7f565b613c4a84610c7f565b83612971565b505050565b50505050565b600080613c6c856000018585613c78565b91509150935093915050565b6000806000858054905090506000811115613f0e576000613ca587600184613ca091906151ca565b612833565b6040518060400160405290816000820160009054906101000a900463ffffffff1663ffffffff1663ffffffff1681526020016000820160049054906101000a90047bffffffffffffffffffffffffffffffffffffffffffffffffffffffff167bffffffffffffffffffffffffffffffffffffffffffffffffffffffff167bffffffffffffffffffffffffffffffffffffffffffffffffffffffff168152505090508563ffffffff16816000015163ffffffff161115613d99576040517f08c379a0000000000000000000000000000000000000000000000000000000008152600401613d9090615bf1565b60405180910390fd5b8563ffffffff16816000015163ffffffff1603613e1d5784613dc788600185613dc291906151ca565b612833565b60000160046101000a8154817bffffffffffffffffffffffffffffffffffffffffffffffffffffffff02191690837bffffffffffffffffffffffffffffffffffffffffffffffffffffffff160217905550613efd565b8660405180604001604052808863ffffffff168152602001877bffffffffffffffffffffffffffffffffffffffffffffffffffffffff168152509080600181540180825580915050600190039060005260206000200160009091909190915060008201518160000160006101000a81548163ffffffff021916908363ffffffff16021790555060208201518160000160046101000a8154817bffffffffffffffffffffffffffffffffffffffffffffffffffffffff02191690837bffffffffffffffffffffffffffffffffffffffffffffffffffffffff16021790555050505b806020015185935093505050613ff6565b8560405180604001604052808763ffffffff168152602001867bffffffffffffffffffffffffffffffffffffffffffffffffffffffff168152509080600181540180825580915050600190039060005260206000200160009091909190915060008201518160000160006101000a81548163ffffffff021916908363ffffffff16021790555060208201518160000160046101000a8154817bffffffffffffffffffffffffffffffffffffffffffffffffffffffff02191690837bffffffffffffffffffffffffffffffffffffffffffffffffffffffff160217905550505060008492509250505b935093915050565b6000604051905090565b600080fd5b600080fd5b60007fffffffff0000000000000000000000000000000000000000000000000000000082169050919050565b61404781614012565b811461405257600080fd5b50565b6000813590506140648161403e565b92915050565b6000602082840312156140805761407f614008565b5b600061408e84828501614055565b91505092915050565b60008115159050919050565b6140ac81614097565b82525050565b60006020820190506140c760008301846140a3565b92915050565b600081519050919050565b600082825260208201905092915050565b60005b838110156141075780820151818401526020810190506140ec565b60008484015250505050565b6000601f19601f8301169050919050565b600061412f826140cd565b61413981856140d8565b93506141498185602086016140e9565b61415281614113565b840191505092915050565b600060208201905081810360008301526141778184614124565b905092915050565b6000819050919050565b6141928161417f565b811461419d57600080fd5b50565b6000813590506141af81614189565b92915050565b6000602082840312156141cb576141ca614008565b5b60006141d9848285016141a0565b91505092915050565b600073ffffffffffffffffffffffffffffffffffffffff82169050919050565b600061420d826141e2565b9050919050565b61421d81614202565b82525050565b60006020820190506142386000830184614214565b92915050565b61424781614202565b811461425257600080fd5b50565b6000813590506142648161423e565b92915050565b6000806040838503121561428157614280614008565b5b600061428f85828601614255565b92505060206142a0858286016141a0565b9150509250929050565b6142b38161417f565b82525050565b60006020820190506142ce60008301846142aa565b92915050565b6000806000606084860312156142ed576142ec614008565b5b60006142fb86828701614255565b935050602061430c86828701614255565b925050604061431d868287016141a0565b9150509250925092565b6000819050919050565b61433a81614327565b82525050565b60006020820190506143556000830184614331565b92915050565b60006020828403121561437157614370614008565b5b600061437f84828501614255565b91505092915050565b60007fff0000000000000000000000000000000000000000000000000000000000000082169050919050565b6143bd81614388565b82525050565b600081519050919050565b600082825260208201905092915050565b6000819050602082019050919050565b6143f88161417f565b82525050565b600061440a83836143ef565b60208301905092915050565b6000602082019050919050565b600061442e826143c3565b61443881856143ce565b9350614443836143df565b8060005b8381101561447457815161445b88826143fe565b975061446683614416565b925050600181019050614447565b5085935050505092915050565b600060e082019050614496600083018a6143b4565b81810360208301526144a88189614124565b905081810360408301526144bc8188614124565b90506144cb60608301876142aa565b6144d86080830186614214565b6144e560a0830185614331565b81810360c08301526144f78184614423565b905098975050505050505050565b600065ffffffffffff82169050919050565b61452081614505565b82525050565b600060208201905061453b6000830184614517565b92915050565b61454a81614097565b811461455557600080fd5b50565b60008135905061456781614541565b92915050565b6000806040838503121561458457614583614008565b5b600061459285828601614255565b92505060206145a385828601614558565b9150509250929050565b600080fd5b600080fd5b7f4e487b7100000000000000000000000000000000000000000000000000000000600052604160045260246000fd5b6145ef82614113565b810181811067ffffffffffffffff8211171561460e5761460d6145b7565b5b80604052505050565b6000614621613ffe565b905061462d82826145e6565b919050565b600067ffffffffffffffff82111561464d5761464c6145b7565b5b61465682614113565b9050602081019050919050565b82818337600083830152505050565b600061468561468084614632565b614617565b9050828152602081018484840111156146a1576146a06145b2565b5b6146ac848285614663565b509392505050565b600082601f8301126146c9576146c86145ad565b5b81356146d9848260208601614672565b91505092915050565b600080600080608085870312156146fc576146fb614008565b5b600061470a87828801614255565b945050602061471b87828801614255565b935050604061472c878288016141a0565b925050606085013567ffffffffffffffff81111561474d5761474c61400d565b5b614759878288016146b4565b91505092959194509250565b600060ff82169050919050565b61477b81614765565b811461478657600080fd5b50565b60008135905061479881614772565b92915050565b6147a781614327565b81146147b257600080fd5b50565b6000813590506147c48161479e565b92915050565b60008060008060008060c087890312156147e7576147e6614008565b5b60006147f589828a01614255565b965050602061480689828a016141a0565b955050604061481789828a016141a0565b945050606061482889828a01614789565b935050608061483989828a016147b5565b92505060a061484a89828a016147b5565b9150509295509295509295565b6000806040838503121561486e5761486d614008565b5b600061487c85828601614255565b925050602061488d85828601614255565b9150509250929050565b7f4e487b7100000000000000000000000000000000000000000000000000000000600052602260045260246000fd5b600060028204905060018216806148de57607f821691505b6020821081036148f1576148f0614897565b5b50919050565b7f4552433732313a20617070726f76616c20746f2063757272656e74206f776e6560008201527f7200000000000000000000000000000000000000000000000000000000000000602082015250565b60006149536021836140d8565b915061495e826148f7565b604082019050919050565b6000602082019050818103600083015261498281614946565b9050919050565b7f4552433732313a20617070726f76652063616c6c6572206973206e6f7420746f60008201527f6b656e206f776e6572206f7220617070726f76656420666f7220616c6c000000602082015250565b60006149e5603d836140d8565b91506149f082614989565b604082019050919050565b60006020820190508181036000830152614a14816149d8565b9050919050565b7f4552433732313a2063616c6c6572206973206e6f7420746f6b656e206f776e6560008201527f72206f7220617070726f76656400000000000000000000000000000000000000602082015250565b6000614a77602d836140d8565b9150614a8282614a1b565b604082019050919050565b60006020820190508181036000830152614aa681614a6a565b9050919050565b7f455243373231456e756d657261626c653a206f776e657220696e646578206f7560008201527f74206f6620626f756e6473000000000000000000000000000000000000000000602082015250565b6000614b09602b836140d8565b9150614b1482614aad565b604082019050919050565b60006020820190508181036000830152614b3881614afc565b9050919050565b7f566f7465733a20667574757265206c6f6f6b7570000000000000000000000000600082015250565b6000614b756014836140d8565b9150614b8082614b3f565b602082019050919050565b60006020820190508181036000830152614ba481614b68565b9050919050565b7f566f7465733a2062726f6b656e20636c6f636b206d6f64650000000000000000600082015250565b6000614be16018836140d8565b9150614bec82614bab565b602082019050919050565b60006020820190508181036000830152614c1081614bd4565b9050919050565b7f455243373231456e756d657261626c653a20676c6f62616c20696e646578206f60008201527f7574206f6620626f756e64730000000000000000000000000000000000000000602082015250565b6000614c73602c836140d8565b9150614c7e82614c17565b604082019050919050565b60006020820190508181036000830152614ca281614c66565b9050919050565b7f4e487b7100000000000000000000000000000000000000000000000000000000600052603260045260246000fd5b7f4552433732313a20696e76616c696420746f6b656e2049440000000000000000600082015250565b6000614d0e6018836140d8565b9150614d1982614cd8565b602082019050919050565b60006020820190508181036000830152614d3d81614d01565b9050919050565b7f4552433732313a2061646472657373207a65726f206973206e6f74206120766160008201527f6c6964206f776e65720000000000000000000000000000000000000000000000602082015250565b6000614da06029836140d8565b9150614dab82614d44565b604082019050919050565b60006020820190508181036000830152614dcf81614d93565b9050919050565b7f566f7465733a207369676e617475726520657870697265640000000000000000600082015250565b6000614e0c6018836140d8565b9150614e1782614dd6565b602082019050919050565b60006020820190508181036000830152614e3b81614dff565b9050919050565b6000608082019050614e576000830187614331565b614e646020830186614214565b614e7160408301856142aa565b614e7e60608301846142aa565b95945050505050565b7f566f7465733a20696e76616c6964206e6f6e6365000000000000000000000000600082015250565b6000614ebd6014836140d8565b9150614ec882614e87565b602082019050919050565b60006020820190508181036000830152614eec81614eb0565b9050919050565b600081905092915050565b6000614f09826140cd565b614f138185614ef3565b9350614f238185602086016140e9565b80840191505092915050565b6000614f3b8285614efe565b9150614f478284614efe565b91508190509392505050565b7f4f776e61626c653a206e6577206f776e657220697320746865207a65726f206160008201527f6464726573730000000000000000000000000000000000000000000000000000602082015250565b6000614faf6026836140d8565b9150614fba82614f53565b604082019050919050565b60006020820190508181036000830152614fde81614fa2565b9050919050565b7f4552433732313a207472616e736665722066726f6d20696e636f72726563742060008201527f6f776e6572000000000000000000000000000000000000000000000000000000602082015250565b60006150416025836140d8565b915061504c82614fe5565b604082019050919050565b6000602082019050818103600083015261507081615034565b9050919050565b7f4552433732313a207472616e7366657220746f20746865207a65726f2061646460008201527f7265737300000000000000000000000000000000000000000000000000000000602082015250565b60006150d36024836140d8565b91506150de82615077565b604082019050919050565b60006020820190508181036000830152615102816150c6565b9050919050565b7f53616665436173743a2076616c756520646f65736e27742066697420696e203360008201527f3220626974730000000000000000000000000000000000000000000000000000602082015250565b60006151656026836140d8565b915061517082615109565b604082019050919050565b6000602082019050818103600083015261519481615158565b9050919050565b7f4e487b7100000000000000000000000000000000000000000000000000000000600052601160045260246000fd5b60006151d58261417f565b91506151e08361417f565b92508282039050818111156151f8576151f761519b565b5b92915050565b60006152098261417f565b91506152148361417f565b925082820190508082111561522c5761522b61519b565b5b92915050565b7f4f776e61626c653a2063616c6c6572206973206e6f7420746865206f776e6572600082015250565b60006152686020836140d8565b915061527382615232565b602082019050919050565b600060208201905081810360008301526152978161525b565b9050919050565b7f53616665436173743a2076616c756520646f65736e27742066697420696e203460008201527f3820626974730000000000000000000000000000000000000000000000000000602082015250565b60006152fa6026836140d8565b91506153058261529e565b604082019050919050565b60006020820190508181036000830152615329816152ed565b9050919050565b7f4552433732313a20617070726f766520746f2063616c6c657200000000000000600082015250565b60006153666019836140d8565b915061537182615330565b602082019050919050565b6000602082019050818103600083015261539581615359565b9050919050565b7f4552433732313a207472616e7366657220746f206e6f6e20455243373231526560008201527f63656976657220696d706c656d656e7465720000000000000000000000000000602082015250565b60006153f86032836140d8565b91506154038261539c565b604082019050919050565b60006020820190508181036000830152615427816153eb565b9050919050565b7f4e487b7100000000000000000000000000000000000000000000000000000000600052601260045260246000fd5b600060a0820190506154726000830188614331565b61547f6020830187614331565b61548c6040830186614331565b61549960608301856142aa565b6154a66080830184614214565b9695505050505050565b7f5061757361626c653a206e6f7420706175736564000000000000000000000000600082015250565b60006154e66014836140d8565b91506154f1826154b0565b602082019050919050565b60006020820190508181036000830152615515816154d9565b9050919050565b600060408201905061553160008301856142aa565b61553e60208301846142aa565b9392505050565b7f5061757361626c653a2070617573656400000000000000000000000000000000600082015250565b600061557b6010836140d8565b915061558682615545565b602082019050919050565b600060208201905081810360008301526155aa8161556e565b9050919050565b600081519050919050565b600082825260208201905092915050565b60006155d8826155b1565b6155e281856155bc565b93506155f28185602086016140e9565b6155fb81614113565b840191505092915050565b600060808201905061561b6000830187614214565b6156286020830186614214565b61563560408301856142aa565b818103606083015261564781846155cd565b905095945050505050565b6000815190506156618161403e565b92915050565b60006020828403121561567d5761567c614008565b5b600061568b84828501615652565b91505092915050565b61569d81614765565b82525050565b60006080820190506156b86000830187614331565b6156c56020830186615694565b6156d26040830185614331565b6156df6060830184614331565b95945050505050565b7f4e487b7100000000000000000000000000000000000000000000000000000000600052602160045260246000fd5b7f45434453413a20696e76616c6964207369676e61747572650000000000000000600082015250565b600061574d6018836140d8565b915061575882615717565b602082019050919050565b6000602082019050818103600083015261577c81615740565b9050919050565b7f45434453413a20696e76616c6964207369676e6174757265206c656e67746800600082015250565b60006157b9601f836140d8565b91506157c482615783565b602082019050919050565b600060208201905081810360008301526157e8816157ac565b9050919050565b7f45434453413a20696e76616c6964207369676e6174757265202773272076616c60008201527f7565000000000000000000000000000000000000000000000000000000000000602082015250565b600061584b6022836140d8565b9150615856826157ef565b604082019050919050565b6000602082019050818103600083015261587a8161583e565b9050919050565b7f455243373231456e756d657261626c653a20636f6e736563757469766520747260008201527f616e7366657273206e6f7420737570706f727465640000000000000000000000602082015250565b60006158dd6035836140d8565b91506158e882615881565b604082019050919050565b6000602082019050818103600083015261590c816158d0565b9050919050565b600061591e8261417f565b91506159298361417f565b9250826159395761593861542e565b5b828204905092915050565b7f4552433732313a206d696e7420746f20746865207a65726f2061646472657373600082015250565b600061597a6020836140d8565b915061598582615944565b602082019050919050565b600060208201905081810360008301526159a98161596d565b9050919050565b7f4552433732313a20746f6b656e20616c7265616479206d696e74656400000000600082015250565b60006159e6601c836140d8565b91506159f1826159b0565b602082019050919050565b60006020820190508181036000830152615a15816159d9565b9050919050565b60007bffffffffffffffffffffffffffffffffffffffffffffffffffffffff82169050919050565b6000615a4f82615a1c565b9150615a5a83615a1c565b925082820390507bffffffffffffffffffffffffffffffffffffffffffffffffffffffff811115615a8e57615a8d61519b565b5b92915050565b7f53616665436173743a2076616c756520646f65736e27742066697420696e203260008201527f3234206269747300000000000000000000000000000000000000000000000000602082015250565b6000615af06027836140d8565b9150615afb82615a94565b604082019050919050565b60006020820190508181036000830152615b1f81615ae3565b9050919050565b6000615b3182615a1c565b9150615b3c83615a1c565b925082820190507bffffffffffffffffffffffffffffffffffffffffffffffffffffffff811115615b7057615b6f61519b565b5b92915050565b7f4e487b7100000000000000000000000000000000000000000000000000000000600052603160045260246000fd5b7f436865636b706f696e743a2064656372656173696e67206b6579730000000000600082015250565b6000615bdb601b836140d8565b9150615be682615ba5565b602082019050919050565b60006020820190508181036000830152615c0a81615bce565b905091905056fea2646970667358221220add23b8f1b5c6bcce552f5804af2234d19735e4020a49be63e4655bb36a72b9364736f6c63430008130033",
  "linkReferences": {},
  "deployedLinkReferences": {}
}