{
  "_format": "hh-sol-artifact-1",
  "contractName": "SignatureWhitelist",
  "sourceName": "contracts/NFT-Signature.sol",
  "abi": [
    {
      "inputs": [
        {
          "internalType": "string",
          "name": "name",
          "type": "string"
        },
        {
          "internalType": "string",
          "name": "symbol",
          "type": "string"
        },
        {
          "internalType": "address",
          "name": "systemAddress",
          "type": "address"
        }
      ],
      "stateMutability": "nonpayable",
      "type": "constructor"
    },
    {
      "anonymous": false,
      "inputs": [
        {
          "indexed": true,
          "internalType": "address",
          "name": "owner",
          "type": "address"
        },
        {
          "indexed": true,
          "internalType": "address",
          "name": "approved",
          "type": "address"
        },
        {
          "indexed": true,
          "internalType": "uint256",
          "name": "tokenId",
          "type": "uint256"
        }
      ],
      "name": "Approval",
      "type": "event"
    },
    {
      "anonymous": false,
      "inputs": [
        {
          "indexed": true,
          "internalType": "address",
          "name": "owner",
          "type": "address"
        },
        {
          "indexed": true,
          "internalType": "address",
          "name": "operator",
          "type": "address"
        },
        {
          "indexed": false,
          "internalType": "bool",
          "name": "approved",
          "type": "bool"
        }
      ],
      "name": "ApprovalForAll",
      "type": "event"
    },
    {
      "anonymous": false,
      "inputs": [
        {
          "indexed": true,
          "internalType": "address",
          "name": "previousOwner",
          "type": "address"
        },
        {
          "indexed": true,
          "internalType": "address",
          "name": "newOwner",
          "type": "address"
        }
      ],
      "name": "OwnershipTransferred",
      "type": "event"
    },
    {
      "anonymous": false,
      "inputs": [
        {
          "indexed": true,
          "internalType": "address",
          "name": "from",
          "type": "address"
        },
        {
          "indexed": true,
          "internalType": "address",
          "name": "to",
          "type": "address"
        },
        {
          "indexed": true,
          "internalType": "uint256",
          "name": "tokenId",
          "type": "uint256"
        }
      ],
      "name": "Transfer",
      "type": "event"
    },
    {
      "inputs": [
        {
          "internalType": "address",
          "name": "to",
          "type": "address"
        },
        {
          "internalType": "uint256",
          "name": "tokenId",
          "type": "uint256"
        }
      ],
      "name": "approve",
      "outputs": [],
      "stateMutability": "nonpayable",
      "type": "function"
    },
    {
      "inputs": [
        {
          "internalType": "address",
          "name": "owner",
          "type": "address"
        }
      ],
      "name": "balanceOf",
      "outputs": [
        {
          "internalType": "uint256",
          "name": "",
          "type": "uint256"
        }
      ],
      "stateMutability": "view",
      "type": "function"
    },
    {
      "inputs": [
        {
          "internalType": "uint256",
          "name": "tokenId",
          "type": "uint256"
        }
      ],
      "name": "getApproved",
      "outputs": [
        {
          "internalType": "address",
          "name": "",
          "type": "address"
        }
      ],
      "stateMutability": "view",
      "type": "function"
    },
    {
      "inputs": [
        {
          "internalType": "address",
          "name": "sender",
          "type": "address"
        },
        {
          "internalType": "uint256",
          "name": "tokenId",
          "type": "uint256"
        }
      ],
      "name": "hashTransaction",
      "outputs": [
        {
          "internalType": "bytes32",
          "name": "",
          "type": "bytes32"
        }
      ],
      "stateMutability": "pure",
      "type": "function"
    },
    {
      "inputs": [
        {
          "internalType": "address",
          "name": "owner",
          "type": "address"
        },
        {
          "internalType": "address",
          "name": "operator",
          "type": "address"
        }
      ],
      "name": "isApprovedForAll",
      "outputs": [
        {
          "internalType": "bool",
          "name": "",
          "type": "bool"
        }
      ],
      "stateMutability": "view",
      "type": "function"
    },
    {
      "inputs": [
        {
          "internalType": "bytes32",
          "name": "hash",
          "type": "bytes32"
        },
        {
          "internalType": "bytes",
          "name": "signature",
          "type": "bytes"
        }
      ],
      "name": "matchSigner",
      "outputs": [
        {
          "internalType": "bool",
          "name": "",
          "type": "bool"
        }
      ],
      "stateMutability": "view",
      "type": "function"
    },
    {
      "inputs": [
        {
          "internalType": "uint256",
          "name": "tokenId",
          "type": "uint256"
        },
        {
          "internalType": "bytes",
          "name": "signature",
          "type": "bytes"
        }
      ],
      "name": "mint",
      "outputs": [],
      "stateMutability": "nonpayable",
      "type": "function"
    },
    {
      "inputs": [],
      "name": "name",
      "outputs": [
        {
          "internalType": "string",
          "name": "",
          "type": "string"
        }
      ],
      "stateMutability": "view",
      "type": "function"
    },
    {
      "inputs": [],
      "name": "owner",
      "outputs": [
        {
          "internalType": "address",
          "name": "",
          "type": "address"
        }
      ],
      "stateMutability": "view",
      "type": "function"
    },
    {
      "inputs": [
        {
          "internalType": "uint256",
          "name": "tokenId",
          "type": "uint256"
        }
      ],
      "name": "ownerOf",
      "outputs": [
        {
          "internalType": "address",
          "name": "",
          "type": "address"
        }
      ],
      "stateMutability": "view",
      "type": "function"
    },
    {
      "inputs": [],
      "name": "renounceOwnership",
      "outputs": [],
      "stateMutability": "nonpayable",
      "type": "function"
    },
    {
      "inputs": [
        {
          "internalType": "address",
          "name": "from",
          "type": "address"
        },
        {
          "internalType": "address",
          "name": "to",
          "type": "address"
        },
        {
          "internalType": "uint256",
          "name": "tokenId",
          "type": "uint256"
        }
      ],
      "name": "safeTransferFrom",
      "outputs": [],
      "stateMutability": "nonpayable",
      "type": "function"
    },
    {
      "inputs": [
        {
          "internalType": "address",
          "name": "from",
          "type": "address"
        },
        {
          "internalType": "address",
          "name": "to",
          "type": "address"
        },
        {
          "internalType": "uint256",
          "name": "tokenId",
          "type": "uint256"
        },
        {
          "internalType": "bytes",
          "name": "data",
          "type": "bytes"
        }
      ],
      "name": "safeTransferFrom",
      "outputs": [],
      "stateMutability": "nonpayable",
      "type": "function"
    },
    {
      "inputs": [
        {
          "internalType": "address",
          "name": "operator",
          "type": "address"
        },
        {
          "internalType": "bool",
          "name": "approved",
          "type": "bool"
        }
      ],
      "name": "setApprovalForAll",
      "outputs": [],
      "stateMutability": "nonpayable",
      "type": "function"
    },
    {
      "inputs": [
        {
          "internalType": "address",
          "name": "systemAddress",
          "type": "address"
        }
      ],
      "name": "setSystemAddress",
      "outputs": [],
      "stateMutability": "nonpayable",
      "type": "function"
    },
    {
      "inputs": [
        {
          "internalType": "bytes4",
          "name": "interfaceId",
          "type": "bytes4"
        }
      ],
      "name": "supportsInterface",
      "outputs": [
        {
          "internalType": "bool",
          "name": "",
          "type": "bool"
        }
      ],
      "stateMutability": "view",
      "type": "function"
    },
    {
      "inputs": [],
      "name": "symbol",
      "outputs": [
        {
          "internalType": "string",
          "name": "",
          "type": "string"
        }
      ],
      "stateMutability": "view",
      "type": "function"
    },
    {
      "inputs": [
        {
          "internalType": "uint256",
          "name": "index",
          "type": "uint256"
        }
      ],
      "name": "tokenByIndex",
      "outputs": [
        {
          "internalType": "uint256",
          "name": "",
          "type": "uint256"
        }
      ],
      "stateMutability": "view",
      "type": "function"
    },
    {
      "inputs": [
        {
          "internalType": "address",
          "name": "owner",
          "type": "address"
        },
        {
          "internalType": "uint256",
          "name": "index",
          "type": "uint256"
        }
      ],
      "name": "tokenOfOwnerByIndex",
      "outputs": [
        {
          "internalType": "uint256",
          "name": "",
          "type": "uint256"
        }
      ],
      "stateMutability": "view",
      "type": "function"
    },
    {
      "inputs": [
        {
          "internalType": "uint256",
          "name": "tokenId",
          "type": "uint256"
        }
      ],
      "name": "tokenURI",
      "outputs": [
        {
          "internalType": "string",
          "name": "",
          "type": "string"
        }
      ],
      "stateMutability": "view",
      "type": "function"
    },
    {
      "inputs": [],
      "name": "totalSupply",
      "outputs": [
        {
          "internalType": "uint256",
          "name": "",
          "type": "uint256"
        }
      ],
      "stateMutability": "view",
      "type": "function"
    },
    {
      "inputs": [
        {
          "internalType": "address",
          "name": "from",
          "type": "address"
        },
        {
          "internalType": "address",
          "name": "to",
          "type": "address"
        },
        {
          "internalType": "uint256",
          "name": "tokenId",
          "type": "uint256"
        }
      ],
      "name": "transferFrom",
      "outputs": [],
      "stateMutability": "nonpayable",
      "type": "function"
    },
    {
      "inputs": [
        {
          "internalType": "address",
          "name": "newOwner",
          "type": "address"
        }
      ],
      "name": "transferOwnership",
      "outputs": [],
      "stateMutability": "nonpayable",
      "type": "function"
    }
  ],
  "bytecode": "0x60806040523480156200001157600080fd5b50604051620041af380380620041af83398181016040528101906200003791906200038f565b828281600090816200004a919062000674565b5080600190816200005c919062000674565b5050506200007f62000073620000c960201b60201c565b620000d160201b60201c565b80600b60006101000a81548173ffffffffffffffffffffffffffffffffffffffff021916908373ffffffffffffffffffffffffffffffffffffffff1602179055505050506200075b565b600033905090565b6000600a60009054906101000a900473ffffffffffffffffffffffffffffffffffffffff16905081600a60006101000a81548173ffffffffffffffffffffffffffffffffffffffff021916908373ffffffffffffffffffffffffffffffffffffffff1602179055508173ffffffffffffffffffffffffffffffffffffffff168173ffffffffffffffffffffffffffffffffffffffff167f8be0079c531659141344cd1fd0a4f28419497f9722a3daafe3b4186f6b6457e060405160405180910390a35050565b6000604051905090565b600080fd5b600080fd5b600080fd5b600080fd5b6000601f19601f8301169050919050565b7f4e487b7100000000000000000000000000000000000000000000000000000000600052604160045260246000fd5b6200020082620001b5565b810181811067ffffffffffffffff82111715620002225762000221620001c6565b5b80604052505050565b60006200023762000197565b9050620002458282620001f5565b919050565b600067ffffffffffffffff821115620002685762000267620001c6565b5b6200027382620001b5565b9050602081019050919050565b60005b83811015620002a057808201518184015260208101905062000283565b60008484015250505050565b6000620002c3620002bd846200024a565b6200022b565b905082815260208101848484011115620002e257620002e1620001b0565b5b620002ef84828562000280565b509392505050565b600082601f8301126200030f576200030e620001ab565b5b815162000321848260208601620002ac565b91505092915050565b600073ffffffffffffffffffffffffffffffffffffffff82169050919050565b600062000357826200032a565b9050919050565b62000369816200034a565b81146200037557600080fd5b50565b60008151905062000389816200035e565b92915050565b600080600060608486031215620003ab57620003aa620001a1565b5b600084015167ffffffffffffffff811115620003cc57620003cb620001a6565b5b620003da86828701620002f7565b935050602084015167ffffffffffffffff811115620003fe57620003fd620001a6565b5b6200040c86828701620002f7565b92505060406200041f8682870162000378565b9150509250925092565b600081519050919050565b7f4e487b7100000000000000000000000000000000000000000000000000000000600052602260045260246000fd5b600060028204905060018216806200047c57607f821691505b60208210810362000492576200049162000434565b5b50919050565b60008190508160005260206000209050919050565b60006020601f8301049050919050565b600082821b905092915050565b600060088302620004fc7fffffffffffffffffffffffffffffffffffffffffffffffffffffffffffffffff82620004bd565b620005088683620004bd565b95508019841693508086168417925050509392505050565b6000819050919050565b6000819050919050565b6000620005556200054f620005498462000520565b6200052a565b62000520565b9050919050565b6000819050919050565b620005718362000534565b6200058962000580826200055c565b848454620004ca565b825550505050565b600090565b620005a062000591565b620005ad81848462000566565b505050565b5b81811015620005d557620005c960008262000596565b600181019050620005b3565b5050565b601f8211156200062457620005ee8162000498565b620005f984620004ad565b8101602085101562000609578190505b620006216200061885620004ad565b830182620005b2565b50505b505050565b600082821c905092915050565b6000620006496000198460080262000629565b1980831691505092915050565b600062000664838362000636565b9150826002028217905092915050565b6200067f8262000429565b67ffffffffffffffff8111156200069b576200069a620001c6565b5b620006a7825462000463565b620006b4828285620005d9565b600060209050601f831160018114620006ec5760008415620006d7578287015190505b620006e3858262000656565b86555062000753565b601f198416620006fc8662000498565b60005b828110156200072657848901518255600182019150602085019450602081019050620006ff565b8683101562000746578489015162000742601f89168262000636565b8355505b6001600288020188555050505b505050505050565b613a44806200076b6000396000f3fe608060405234801561001057600080fd5b506004361061014d5760003560e01c806370a08231116100c3578063b88d4fde1161007c578063b88d4fde146103b0578063c87b56dd146103cc578063db7fd408146103fc578063dd8d74d814610418578063e985e9c514610448578063f2fde38b146104785761014d565b806370a08231146102ee578063715018a61461031e5780638da5cb5b1461032857806395d89b4114610346578063a22cb46514610364578063ac91984e146103805761014d565b806318160ddd1161011557806318160ddd1461020857806323b872dd146102265780632f745c591461024257806342842e0e146102725780634f6ccce71461028e5780636352211e146102be5761014d565b806301ffc9a714610152578063062101971461018257806306fdde031461019e578063081812fc146101bc578063095ea7b3146101ec575b600080fd5b61016c600480360381019061016791906125b8565b610494565b6040516101799190612600565b60405180910390f35b61019c60048036038101906101979190612679565b61050e565b005b6101a661055a565b6040516101b39190612736565b60405180910390f35b6101d660048036038101906101d1919061278e565b6105ec565b6040516101e391906127ca565b60405180910390f35b610206600480360381019061020191906127e5565b610632565b005b610210610749565b60405161021d9190612834565b60405180910390f35b610240600480360381019061023b919061284f565b610756565b005b61025c600480360381019061025791906127e5565b6107b6565b6040516102699190612834565b60405180910390f35b61028c6004803603810190610287919061284f565b61085b565b005b6102a860048036038101906102a3919061278e565b61087b565b6040516102b59190612834565b60405180910390f35b6102d860048036038101906102d3919061278e565b6108ec565b6040516102e591906127ca565b60405180910390f35b61030860048036038101906103039190612679565b610972565b6040516103159190612834565b60405180910390f35b610326610a29565b005b610330610a3d565b60405161033d91906127ca565b60405180910390f35b61034e610a67565b60405161035b9190612736565b60405180910390f35b61037e600480360381019061037991906128ce565b610af9565b005b61039a600480360381019061039591906127e5565b610b0f565b6040516103a79190612927565b60405180910390f35b6103ca60048036038101906103c59190612a77565b610b42565b005b6103e660048036038101906103e1919061278e565b610ba4565b6040516103f39190612736565b60405180910390f35b61041660048036038101906104119190612afa565b610c0c565b005b610432600480360381019061042d9190612b82565b610c72565b60405161043f9190612600565b60405180910390f35b610462600480360381019061045d9190612bde565b610ce7565b60405161046f9190612600565b60405180910390f35b610492600480360381019061048d9190612679565b610d7b565b005b60007f780e9d63000000000000000000000000000000000000000000000000000000007bffffffffffffffffffffffffffffffffffffffffffffffffffffffff1916827bffffffffffffffffffffffffffffffffffffffffffffffffffffffff19161480610507575061050682610dfe565b5b9050919050565b610516610ee0565b80600b60006101000a81548173ffffffffffffffffffffffffffffffffffffffff021916908373ffffffffffffffffffffffffffffffffffffffff16021790555050565b60606000805461056990612c4d565b80601f016020809104026020016040519081016040528092919081815260200182805461059590612c4d565b80156105e25780601f106105b7576101008083540402835291602001916105e2565b820191906000526020600020905b8154815290600101906020018083116105c557829003601f168201915b5050505050905090565b60006105f782610f5e565b6004600083815260200190815260200160002060009054906101000a900473ffffffffffffffffffffffffffffffffffffffff169050919050565b600061063d826108ec565b90508073ffffffffffffffffffffffffffffffffffffffff168373ffffffffffffffffffffffffffffffffffffffff16036106ad576040517f08c379a00000000000000000000000000000000000000000000000000000000081526004016106a490612cf0565b60405180910390fd5b8073ffffffffffffffffffffffffffffffffffffffff166106cc610fa9565b73ffffffffffffffffffffffffffffffffffffffff1614806106fb57506106fa816106f5610fa9565b610ce7565b5b61073a576040517f08c379a000000000000000000000000000000000000000000000000000000000815260040161073190612d82565b60405180910390fd5b6107448383610fb1565b505050565b6000600880549050905090565b610767610761610fa9565b8261106a565b6107a6576040517f08c379a000000000000000000000000000000000000000000000000000000000815260040161079d90612e14565b60405180910390fd5b6107b18383836110ff565b505050565b60006107c183610972565b8210610802576040517f08c379a00000000000000000000000000000000000000000000000000000000081526004016107f990612ea6565b60405180910390fd5b600660008473ffffffffffffffffffffffffffffffffffffffff1673ffffffffffffffffffffffffffffffffffffffff168152602001908152602001600020600083815260200190815260200160002054905092915050565b61087683838360405180602001604052806000815250610b42565b505050565b6000610885610749565b82106108c6576040517f08c379a00000000000000000000000000000000000000000000000000000000081526004016108bd90612f38565b60405180910390fd5b600882815481106108da576108d9612f58565b5b90600052602060002001549050919050565b6000806108f8836113f8565b9050600073ffffffffffffffffffffffffffffffffffffffff168173ffffffffffffffffffffffffffffffffffffffff1603610969576040517f08c379a000000000000000000000000000000000000000000000000000000000815260040161096090612fd3565b60405180910390fd5b80915050919050565b60008073ffffffffffffffffffffffffffffffffffffffff168273ffffffffffffffffffffffffffffffffffffffff16036109e2576040517f08c379a00000000000000000000000000000000000000000000000000000000081526004016109d990613065565b60405180910390fd5b600360008373ffffffffffffffffffffffffffffffffffffffff1673ffffffffffffffffffffffffffffffffffffffff168152602001908152602001600020549050919050565b610a31610ee0565b610a3b6000611435565b565b6000600a60009054906101000a900473ffffffffffffffffffffffffffffffffffffffff16905090565b606060018054610a7690612c4d565b80601f0160208091040260200160405190810160405280929190818152602001828054610aa290612c4d565b8015610aef5780601f10610ac457610100808354040283529160200191610aef565b820191906000526020600020905b815481529060010190602001808311610ad257829003601f168201915b5050505050905090565b610b0b610b04610fa9565b83836114fb565b5050565b60008282604051602001610b249291906130ee565b60405160208183030381529060405280519060200120905092915050565b610b53610b4d610fa9565b8361106a565b610b92576040517f08c379a0000000000000000000000000000000000000000000000000000000008152600401610b8990612e14565b60405180910390fd5b610b9e84848484611667565b50505050565b6060610baf82610f5e565b6000610bb96116c3565b90506000815111610bd95760405180602001604052806000815250610c04565b80610be3846116da565b604051602001610bf4929190613156565b6040516020818303038152906040525b915050919050565b6000610c183384610b0f565b9050610c248183610c72565b610c63576040517f08c379a0000000000000000000000000000000000000000000000000000000008152600401610c5a906131c6565b60405180910390fd5b610c6d33846117a8565b505050565b6000610c8f82610c81856117c6565b6117fc90919063ffffffff16565b73ffffffffffffffffffffffffffffffffffffffff16600b60009054906101000a900473ffffffffffffffffffffffffffffffffffffffff1673ffffffffffffffffffffffffffffffffffffffff1614905092915050565b6000600560008473ffffffffffffffffffffffffffffffffffffffff1673ffffffffffffffffffffffffffffffffffffffff16815260200190815260200160002060008373ffffffffffffffffffffffffffffffffffffffff1673ffffffffffffffffffffffffffffffffffffffff16815260200190815260200160002060009054906101000a900460ff16905092915050565b610d83610ee0565b600073ffffffffffffffffffffffffffffffffffffffff168173ffffffffffffffffffffffffffffffffffffffff1603610df2576040517f08c379a0000000000000000000000000000000000000000000000000000000008152600401610de990613258565b60405180910390fd5b610dfb81611435565b50565b60007f80ac58cd000000000000000000000000000000000000000000000000000000007bffffffffffffffffffffffffffffffffffffffffffffffffffffffff1916827bffffffffffffffffffffffffffffffffffffffffffffffffffffffff19161480610ec957507f5b5e139f000000000000000000000000000000000000000000000000000000007bffffffffffffffffffffffffffffffffffffffffffffffffffffffff1916827bffffffffffffffffffffffffffffffffffffffffffffffffffffffff1916145b80610ed95750610ed882611823565b5b9050919050565b610ee8610fa9565b73ffffffffffffffffffffffffffffffffffffffff16610f06610a3d565b73ffffffffffffffffffffffffffffffffffffffff1614610f5c576040517f08c379a0000000000000000000000000000000000000000000000000000000008152600401610f53906132c4565b60405180910390fd5b565b610f678161188d565b610fa6576040517f08c379a0000000000000000000000000000000000000000000000000000000008152600401610f9d90612fd3565b60405180910390fd5b50565b600033905090565b816004600083815260200190815260200160002060006101000a81548173ffffffffffffffffffffffffffffffffffffffff021916908373ffffffffffffffffffffffffffffffffffffffff160217905550808273ffffffffffffffffffffffffffffffffffffffff16611024836108ec565b73ffffffffffffffffffffffffffffffffffffffff167f8c5be1e5ebec7d5bd14f71427d1e84f3dd0314c0f7b2291e5b200ac8c7c3b92560405160405180910390a45050565b600080611076836108ec565b90508073ffffffffffffffffffffffffffffffffffffffff168473ffffffffffffffffffffffffffffffffffffffff1614806110b857506110b78185610ce7565b5b806110f657508373ffffffffffffffffffffffffffffffffffffffff166110de846105ec565b73ffffffffffffffffffffffffffffffffffffffff16145b91505092915050565b8273ffffffffffffffffffffffffffffffffffffffff1661111f826108ec565b73ffffffffffffffffffffffffffffffffffffffff1614611175576040517f08c379a000000000000000000000000000000000000000000000000000000000815260040161116c90613356565b60405180910390fd5b600073ffffffffffffffffffffffffffffffffffffffff168273ffffffffffffffffffffffffffffffffffffffff16036111e4576040517f08c379a00000000000000000000000000000000000000000000000000000000081526004016111db906133e8565b60405180910390fd5b6111f183838360016118ce565b8273ffffffffffffffffffffffffffffffffffffffff16611211826108ec565b73ffffffffffffffffffffffffffffffffffffffff1614611267576040517f08c379a000000000000000000000000000000000000000000000000000000000815260040161125e90613356565b60405180910390fd5b6004600082815260200190815260200160002060006101000a81549073ffffffffffffffffffffffffffffffffffffffff02191690556001600360008573ffffffffffffffffffffffffffffffffffffffff1673ffffffffffffffffffffffffffffffffffffffff168152602001908152602001600020600082825403925050819055506001600360008473ffffffffffffffffffffffffffffffffffffffff1673ffffffffffffffffffffffffffffffffffffffff16815260200190815260200160002060008282540192505081905550816002600083815260200190815260200160002060006101000a81548173ffffffffffffffffffffffffffffffffffffffff021916908373ffffffffffffffffffffffffffffffffffffffff160217905550808273ffffffffffffffffffffffffffffffffffffffff168473ffffffffffffffffffffffffffffffffffffffff167fddf252ad1be2c89b69c2b068fc378daa952ba7f163c4a11628f55a4df523b3ef60405160405180910390a46113f38383836001611a2c565b505050565b60006002600083815260200190815260200160002060009054906101000a900473ffffffffffffffffffffffffffffffffffffffff169050919050565b6000600a60009054906101000a900473ffffffffffffffffffffffffffffffffffffffff16905081600a60006101000a81548173ffffffffffffffffffffffffffffffffffffffff021916908373ffffffffffffffffffffffffffffffffffffffff1602179055508173ffffffffffffffffffffffffffffffffffffffff168173ffffffffffffffffffffffffffffffffffffffff167f8be0079c531659141344cd1fd0a4f28419497f9722a3daafe3b4186f6b6457e060405160405180910390a35050565b8173ffffffffffffffffffffffffffffffffffffffff168373ffffffffffffffffffffffffffffffffffffffff1603611569576040517f08c379a000000000000000000000000000000000000000000000000000000000815260040161156090613454565b60405180910390fd5b80600560008573ffffffffffffffffffffffffffffffffffffffff1673ffffffffffffffffffffffffffffffffffffffff16815260200190815260200160002060008473ffffffffffffffffffffffffffffffffffffffff1673ffffffffffffffffffffffffffffffffffffffff16815260200190815260200160002060006101000a81548160ff0219169083151502179055508173ffffffffffffffffffffffffffffffffffffffff168373ffffffffffffffffffffffffffffffffffffffff167f17307eab39ab6107e8899845ad3d59bd9653f200f220920489ca2b5937696c318360405161165a9190612600565b60405180910390a3505050565b6116728484846110ff565b61167e84848484611a32565b6116bd576040517f08c379a00000000000000000000000000000000000000000000000000000000081526004016116b4906134e6565b60405180910390fd5b50505050565b606060405180602001604052806000815250905090565b6060600060016116e984611bb9565b01905060008167ffffffffffffffff8111156117085761170761294c565b5b6040519080825280601f01601f19166020018201604052801561173a5781602001600182028036833780820191505090505b509050600082602001820190505b60011561179d578080600190039150507f3031323334353637383961626364656600000000000000000000000000000000600a86061a8153600a858161179157611790613506565b5b04945060008503611748575b819350505050919050565b6117c2828260405180602001604052806000815250611d0c565b5050565b60007f19457468657265756d205369676e6564204d6573736167653a0a33320000000060005281601c52603c6000209050919050565b600080600061180b8585611d67565b9150915061181881611db8565b819250505092915050565b60007f01ffc9a7000000000000000000000000000000000000000000000000000000007bffffffffffffffffffffffffffffffffffffffffffffffffffffffff1916827bffffffffffffffffffffffffffffffffffffffffffffffffffffffff1916149050919050565b60008073ffffffffffffffffffffffffffffffffffffffff166118af836113f8565b73ffffffffffffffffffffffffffffffffffffffff1614159050919050565b6118da84848484611f1e565b600181111561191e576040517f08c379a0000000000000000000000000000000000000000000000000000000008152600401611915906135a7565b60405180910390fd5b6000829050600073ffffffffffffffffffffffffffffffffffffffff168573ffffffffffffffffffffffffffffffffffffffff16036119655761196081611f24565b6119a4565b8373ffffffffffffffffffffffffffffffffffffffff168573ffffffffffffffffffffffffffffffffffffffff16146119a3576119a28582611f6d565b5b5b600073ffffffffffffffffffffffffffffffffffffffff168473ffffffffffffffffffffffffffffffffffffffff16036119e6576119e1816120da565b611a25565b8473ffffffffffffffffffffffffffffffffffffffff168473ffffffffffffffffffffffffffffffffffffffff1614611a2457611a2384826121ab565b5b5b5050505050565b50505050565b6000611a538473ffffffffffffffffffffffffffffffffffffffff1661222a565b15611bac578373ffffffffffffffffffffffffffffffffffffffff1663150b7a02611a7c610fa9565b8786866040518563ffffffff1660e01b8152600401611a9e949392919061361c565b6020604051808303816000875af1925050508015611ada57506040513d601f19601f82011682018060405250810190611ad7919061367d565b60015b611b5c573d8060008114611b0a576040519150601f19603f3d011682016040523d82523d6000602084013e611b0f565b606091505b506000815103611b54576040517f08c379a0000000000000000000000000000000000000000000000000000000008152600401611b4b906134e6565b60405180910390fd5b805181602001fd5b63150b7a0260e01b7bffffffffffffffffffffffffffffffffffffffffffffffffffffffff1916817bffffffffffffffffffffffffffffffffffffffffffffffffffffffff191614915050611bb1565b600190505b949350505050565b600080600090507a184f03e93ff9f4daa797ed6e38ed64bf6a1f0100000000000000008310611c17577a184f03e93ff9f4daa797ed6e38ed64bf6a1f0100000000000000008381611c0d57611c0c613506565b5b0492506040810190505b6d04ee2d6d415b85acef81000000008310611c54576d04ee2d6d415b85acef81000000008381611c4a57611c49613506565b5b0492506020810190505b662386f26fc100008310611c8357662386f26fc100008381611c7957611c78613506565b5b0492506010810190505b6305f5e1008310611cac576305f5e1008381611ca257611ca1613506565b5b0492506008810190505b6127108310611cd1576127108381611cc757611cc6613506565b5b0492506004810190505b60648310611cf45760648381611cea57611ce9613506565b5b0492506002810190505b600a8310611d03576001810190505b80915050919050565b611d16838361224d565b611d236000848484611a32565b611d62576040517f08c379a0000000000000000000000000000000000000000000000000000000008152600401611d59906134e6565b60405180910390fd5b505050565b6000806041835103611da85760008060006020860151925060408601519150606086015160001a9050611d9c8782858561246a565b94509450505050611db1565b60006002915091505b9250929050565b60006004811115611dcc57611dcb6136aa565b5b816004811115611ddf57611dde6136aa565b5b0315611f1b5760016004811115611df957611df86136aa565b5b816004811115611e0c57611e0b6136aa565b5b03611e4c576040517f08c379a0000000000000000000000000000000000000000000000000000000008152600401611e4390613725565b60405180910390fd5b60026004811115611e6057611e5f6136aa565b5b816004811115611e7357611e726136aa565b5b03611eb3576040517f08c379a0000000000000000000000000000000000000000000000000000000008152600401611eaa90613791565b60405180910390fd5b60036004811115611ec757611ec66136aa565b5b816004811115611eda57611ed96136aa565b5b03611f1a576040517f08c379a0000000000000000000000000000000000000000000000000000000008152600401611f1190613823565b60405180910390fd5b5b50565b50505050565b6008805490506009600083815260200190815260200160002081905550600881908060018154018082558091505060019003906000526020600020016000909190919091505550565b60006001611f7a84610972565b611f849190613872565b9050600060076000848152602001908152602001600020549050818114612069576000600660008673ffffffffffffffffffffffffffffffffffffffff1673ffffffffffffffffffffffffffffffffffffffff168152602001908152602001600020600084815260200190815260200160002054905080600660008773ffffffffffffffffffffffffffffffffffffffff1673ffffffffffffffffffffffffffffffffffffffff168152602001908152602001600020600084815260200190815260200160002081905550816007600083815260200190815260200160002081905550505b6007600084815260200190815260200160002060009055600660008573ffffffffffffffffffffffffffffffffffffffff1673ffffffffffffffffffffffffffffffffffffffff16815260200190815260200160002060008381526020019081526020016000206000905550505050565b600060016008805490506120ee9190613872565b905060006009600084815260200190815260200160002054905060006008838154811061211e5761211d612f58565b5b9060005260206000200154905080600883815481106121405761213f612f58565b5b90600052602060002001819055508160096000838152602001908152602001600020819055506009600085815260200190815260200160002060009055600880548061218f5761218e6138a6565b5b6001900381819060005260206000200160009055905550505050565b60006121b683610972565b905081600660008573ffffffffffffffffffffffffffffffffffffffff1673ffffffffffffffffffffffffffffffffffffffff168152602001908152602001600020600083815260200190815260200160002081905550806007600084815260200190815260200160002081905550505050565b6000808273ffffffffffffffffffffffffffffffffffffffff163b119050919050565b600073ffffffffffffffffffffffffffffffffffffffff168273ffffffffffffffffffffffffffffffffffffffff16036122bc576040517f08c379a00000000000000000000000000000000000000000000000000000000081526004016122b390613921565b60405180910390fd5b6122c58161188d565b15612305576040517f08c379a00000000000000000000000000000000000000000000000000000000081526004016122fc9061398d565b60405180910390fd5b6123136000838360016118ce565b61231c8161188d565b1561235c576040517f08c379a00000000000000000000000000000000000000000000000000000000081526004016123539061398d565b60405180910390fd5b6001600360008473ffffffffffffffffffffffffffffffffffffffff1673ffffffffffffffffffffffffffffffffffffffff16815260200190815260200160002060008282540192505081905550816002600083815260200190815260200160002060006101000a81548173ffffffffffffffffffffffffffffffffffffffff021916908373ffffffffffffffffffffffffffffffffffffffff160217905550808273ffffffffffffffffffffffffffffffffffffffff16600073ffffffffffffffffffffffffffffffffffffffff167fddf252ad1be2c89b69c2b068fc378daa952ba7f163c4a11628f55a4df523b3ef60405160405180910390a4612466600083836001611a2c565b5050565b6000807f7fffffffffffffffffffffffffffffff5d576e7357a4501ddfe92f46681b20a08360001c11156124a5576000600391509150612543565b6000600187878787604051600081526020016040526040516124ca94939291906139c9565b6020604051602081039080840390855afa1580156124ec573d6000803e3d6000fd5b505050602060405103519050600073ffffffffffffffffffffffffffffffffffffffff168173ffffffffffffffffffffffffffffffffffffffff160361253a57600060019250925050612543565b80600092509250505b94509492505050565b6000604051905090565b600080fd5b600080fd5b60007fffffffff0000000000000000000000000000000000000000000000000000000082169050919050565b61259581612560565b81146125a057600080fd5b50565b6000813590506125b28161258c565b92915050565b6000602082840312156125ce576125cd612556565b5b60006125dc848285016125a3565b91505092915050565b60008115159050919050565b6125fa816125e5565b82525050565b600060208201905061261560008301846125f1565b92915050565b600073ffffffffffffffffffffffffffffffffffffffff82169050919050565b60006126468261261b565b9050919050565b6126568161263b565b811461266157600080fd5b50565b6000813590506126738161264d565b92915050565b60006020828403121561268f5761268e612556565b5b600061269d84828501612664565b91505092915050565b600081519050919050565b600082825260208201905092915050565b60005b838110156126e05780820151818401526020810190506126c5565b60008484015250505050565b6000601f19601f8301169050919050565b6000612708826126a6565b61271281856126b1565b93506127228185602086016126c2565b61272b816126ec565b840191505092915050565b6000602082019050818103600083015261275081846126fd565b905092915050565b6000819050919050565b61276b81612758565b811461277657600080fd5b50565b60008135905061278881612762565b92915050565b6000602082840312156127a4576127a3612556565b5b60006127b284828501612779565b91505092915050565b6127c48161263b565b82525050565b60006020820190506127df60008301846127bb565b92915050565b600080604083850312156127fc576127fb612556565b5b600061280a85828601612664565b925050602061281b85828601612779565b9150509250929050565b61282e81612758565b82525050565b60006020820190506128496000830184612825565b92915050565b60008060006060848603121561286857612867612556565b5b600061287686828701612664565b935050602061288786828701612664565b925050604061289886828701612779565b9150509250925092565b6128ab816125e5565b81146128b657600080fd5b50565b6000813590506128c8816128a2565b92915050565b600080604083850312156128e5576128e4612556565b5b60006128f385828601612664565b9250506020612904858286016128b9565b9150509250929050565b6000819050919050565b6129218161290e565b82525050565b600060208201905061293c6000830184612918565b92915050565b600080fd5b600080fd5b7f4e487b7100000000000000000000000000000000000000000000000000000000600052604160045260246000fd5b612984826126ec565b810181811067ffffffffffffffff821117156129a3576129a261294c565b5b80604052505050565b60006129b661254c565b90506129c2828261297b565b919050565b600067ffffffffffffffff8211156129e2576129e161294c565b5b6129eb826126ec565b9050602081019050919050565b82818337600083830152505050565b6000612a1a612a15846129c7565b6129ac565b905082815260208101848484011115612a3657612a35612947565b5b612a418482856129f8565b509392505050565b600082601f830112612a5e57612a5d612942565b5b8135612a6e848260208601612a07565b91505092915050565b60008060008060808587031215612a9157612a90612556565b5b6000612a9f87828801612664565b9450506020612ab087828801612664565b9350506040612ac187828801612779565b925050606085013567ffffffffffffffff811115612ae257612ae161255b565b5b612aee87828801612a49565b91505092959194509250565b60008060408385031215612b1157612b10612556565b5b6000612b1f85828601612779565b925050602083013567ffffffffffffffff811115612b4057612b3f61255b565b5b612b4c85828601612a49565b9150509250929050565b612b5f8161290e565b8114612b6a57600080fd5b50565b600081359050612b7c81612b56565b92915050565b60008060408385031215612b9957612b98612556565b5b6000612ba785828601612b6d565b925050602083013567ffffffffffffffff811115612bc857612bc761255b565b5b612bd485828601612a49565b9150509250929050565b60008060408385031215612bf557612bf4612556565b5b6000612c0385828601612664565b9250506020612c1485828601612664565b9150509250929050565b7f4e487b7100000000000000000000000000000000000000000000000000000000600052602260045260246000fd5b60006002820490506001821680612c6557607f821691505b602082108103612c7857612c77612c1e565b5b50919050565b7f4552433732313a20617070726f76616c20746f2063757272656e74206f776e6560008201527f7200000000000000000000000000000000000000000000000000000000000000602082015250565b6000612cda6021836126b1565b9150612ce582612c7e565b604082019050919050565b60006020820190508181036000830152612d0981612ccd565b9050919050565b7f4552433732313a20617070726f76652063616c6c6572206973206e6f7420746f60008201527f6b656e206f776e6572206f7220617070726f76656420666f7220616c6c000000602082015250565b6000612d6c603d836126b1565b9150612d7782612d10565b604082019050919050565b60006020820190508181036000830152612d9b81612d5f565b9050919050565b7f4552433732313a2063616c6c6572206973206e6f7420746f6b656e206f776e6560008201527f72206f7220617070726f76656400000000000000000000000000000000000000602082015250565b6000612dfe602d836126b1565b9150612e0982612da2565b604082019050919050565b60006020820190508181036000830152612e2d81612df1565b9050919050565b7f455243373231456e756d657261626c653a206f776e657220696e646578206f7560008201527f74206f6620626f756e6473000000000000000000000000000000000000000000602082015250565b6000612e90602b836126b1565b9150612e9b82612e34565b604082019050919050565b60006020820190508181036000830152612ebf81612e83565b9050919050565b7f455243373231456e756d657261626c653a20676c6f62616c20696e646578206f60008201527f7574206f6620626f756e64730000000000000000000000000000000000000000602082015250565b6000612f22602c836126b1565b9150612f2d82612ec6565b604082019050919050565b60006020820190508181036000830152612f5181612f15565b9050919050565b7f4e487b7100000000000000000000000000000000000000000000000000000000600052603260045260246000fd5b7f4552433732313a20696e76616c696420746f6b656e2049440000000000000000600082015250565b6000612fbd6018836126b1565b9150612fc882612f87565b602082019050919050565b60006020820190508181036000830152612fec81612fb0565b9050919050565b7f4552433732313a2061646472657373207a65726f206973206e6f74206120766160008201527f6c6964206f776e65720000000000000000000000000000000000000000000000602082015250565b600061304f6029836126b1565b915061305a82612ff3565b604082019050919050565b6000602082019050818103600083015261307e81613042565b9050919050565b60008160601b9050919050565b600061309d82613085565b9050919050565b60006130af82613092565b9050919050565b6130c76130c28261263b565b6130a4565b82525050565b6000819050919050565b6130e86130e382612758565b6130cd565b82525050565b60006130fa82856130b6565b60148201915061310a82846130d7565b6020820191508190509392505050565b600081905092915050565b6000613130826126a6565b61313a818561311a565b935061314a8185602086016126c2565b80840191505092915050565b60006131628285613125565b915061316e8284613125565b91508190509392505050565b7f496e76616c6964207369676e6174757265210000000000000000000000000000600082015250565b60006131b06012836126b1565b91506131bb8261317a565b602082019050919050565b600060208201905081810360008301526131df816131a3565b9050919050565b7f4f776e61626c653a206e6577206f776e657220697320746865207a65726f206160008201527f6464726573730000000000000000000000000000000000000000000000000000602082015250565b60006132426026836126b1565b915061324d826131e6565b604082019050919050565b6000602082019050818103600083015261327181613235565b9050919050565b7f4f776e61626c653a2063616c6c6572206973206e6f7420746865206f776e6572600082015250565b60006132ae6020836126b1565b91506132b982613278565b602082019050919050565b600060208201905081810360008301526132dd816132a1565b9050919050565b7f4552433732313a207472616e736665722066726f6d20696e636f72726563742060008201527f6f776e6572000000000000000000000000000000000000000000000000000000602082015250565b60006133406025836126b1565b915061334b826132e4565b604082019050919050565b6000602082019050818103600083015261336f81613333565b9050919050565b7f4552433732313a207472616e7366657220746f20746865207a65726f2061646460008201527f7265737300000000000000000000000000000000000000000000000000000000602082015250565b60006133d26024836126b1565b91506133dd82613376565b604082019050919050565b60006020820190508181036000830152613401816133c5565b9050919050565b7f4552433732313a20617070726f766520746f2063616c6c657200000000000000600082015250565b600061343e6019836126b1565b915061344982613408565b602082019050919050565b6000602082019050818103600083015261346d81613431565b9050919050565b7f4552433732313a207472616e7366657220746f206e6f6e20455243373231526560008201527f63656976657220696d706c656d656e7465720000000000000000000000000000602082015250565b60006134d06032836126b1565b91506134db82613474565b604082019050919050565b600060208201905081810360008301526134ff816134c3565b9050919050565b7f4e487b7100000000000000000000000000000000000000000000000000000000600052601260045260246000fd5b7f455243373231456e756d657261626c653a20636f6e736563757469766520747260008201527f616e7366657273206e6f7420737570706f727465640000000000000000000000602082015250565b60006135916035836126b1565b915061359c82613535565b604082019050919050565b600060208201905081810360008301526135c081613584565b9050919050565b600081519050919050565b600082825260208201905092915050565b60006135ee826135c7565b6135f881856135d2565b93506136088185602086016126c2565b613611816126ec565b840191505092915050565b600060808201905061363160008301876127bb565b61363e60208301866127bb565b61364b6040830185612825565b818103606083015261365d81846135e3565b905095945050505050565b6000815190506136778161258c565b92915050565b60006020828403121561369357613692612556565b5b60006136a184828501613668565b91505092915050565b7f4e487b7100000000000000000000000000000000000000000000000000000000600052602160045260246000fd5b7f45434453413a20696e76616c6964207369676e61747572650000000000000000600082015250565b600061370f6018836126b1565b915061371a826136d9565b602082019050919050565b6000602082019050818103600083015261373e81613702565b9050919050565b7f45434453413a20696e76616c6964207369676e6174757265206c656e67746800600082015250565b600061377b601f836126b1565b915061378682613745565b602082019050919050565b600060208201905081810360008301526137aa8161376e565b9050919050565b7f45434453413a20696e76616c6964207369676e6174757265202773272076616c60008201527f7565000000000000000000000000000000000000000000000000000000000000602082015250565b600061380d6022836126b1565b9150613818826137b1565b604082019050919050565b6000602082019050818103600083015261383c81613800565b9050919050565b7f4e487b7100000000000000000000000000000000000000000000000000000000600052601160045260246000fd5b600061387d82612758565b915061388883612758565b92508282039050818111156138a05761389f613843565b5b92915050565b7f4e487b7100000000000000000000000000000000000000000000000000000000600052603160045260246000fd5b7f4552433732313a206d696e7420746f20746865207a65726f2061646472657373600082015250565b600061390b6020836126b1565b9150613916826138d5565b602082019050919050565b6000602082019050818103600083015261393a816138fe565b9050919050565b7f4552433732313a20746f6b656e20616c7265616479206d696e74656400000000600082015250565b6000613977601c836126b1565b915061398282613941565b602082019050919050565b600060208201905081810360008301526139a68161396a565b9050919050565b600060ff82169050919050565b6139c3816139ad565b82525050565b60006080820190506139de6000830187612918565b6139eb60208301866139ba565b6139f86040830185612918565b613a056060830184612918565b9594505050505056fea264697066735822122006758ff7745603a131bd2a61ea6f02a54d854d6149d8ec80aacb37a4128d2a4c64736f6c63430008130033",
  "linkReferences": {},
  "deployedLinkReferences": {}
}