{
  "_format": "hh-sol-artifact-1",
  "contractName": "NFT712",
  "sourceName": "contracts/NFT-712.sol",
  "abi": [
    {
      "inputs": [
        {
          "internalType": "string",
          "name": "name",
          "type": "string"
        },
        {
          "internalType": "string",
          "name": "symbol",
          "type": "string"
        }
      ],
      "stateMutability": "nonpayable",
      "type": "constructor"
    },
    {
      "anonymous": false,
      "inputs": [
        {
          "indexed": true,
          "internalType": "address",
          "name": "owner",
          "type": "address"
        },
        {
          "indexed": true,
          "internalType": "address",
          "name": "approved",
          "type": "address"
        },
        {
          "indexed": true,
          "internalType": "uint256",
          "name": "tokenId",
          "type": "uint256"
        }
      ],
      "name": "Approval",
      "type": "event"
    },
    {
      "anonymous": false,
      "inputs": [
        {
          "indexed": true,
          "internalType": "address",
          "name": "owner",
          "type": "address"
        },
        {
          "indexed": true,
          "internalType": "address",
          "name": "operator",
          "type": "address"
        },
        {
          "indexed": false,
          "internalType": "bool",
          "name": "approved",
          "type": "bool"
        }
      ],
      "name": "ApprovalForAll",
      "type": "event"
    },
    {
      "anonymous": false,
      "inputs": [
        {
          "indexed": true,
          "internalType": "address",
          "name": "account",
          "type": "address"
        },
        {
          "indexed": true,
          "internalType": "uint256",
          "name": "tokenId",
          "type": "uint256"
        }
      ],
      "name": "Minted",
      "type": "event"
    },
    {
      "anonymous": false,
      "inputs": [
        {
          "indexed": true,
          "internalType": "address",
          "name": "from",
          "type": "address"
        },
        {
          "indexed": true,
          "internalType": "address",
          "name": "to",
          "type": "address"
        },
        {
          "indexed": true,
          "internalType": "uint256",
          "name": "tokenId",
          "type": "uint256"
        }
      ],
      "name": "Transfer",
      "type": "event"
    },
    {
      "inputs": [
        {
          "internalType": "address",
          "name": "to",
          "type": "address"
        },
        {
          "internalType": "uint256",
          "name": "tokenId",
          "type": "uint256"
        }
      ],
      "name": "approve",
      "outputs": [],
      "stateMutability": "nonpayable",
      "type": "function"
    },
    {
      "inputs": [
        {
          "internalType": "address",
          "name": "owner",
          "type": "address"
        }
      ],
      "name": "balanceOf",
      "outputs": [
        {
          "internalType": "uint256",
          "name": "",
          "type": "uint256"
        }
      ],
      "stateMutability": "view",
      "type": "function"
    },
    {
      "inputs": [
        {
          "internalType": "uint256",
          "name": "tokenId",
          "type": "uint256"
        }
      ],
      "name": "getApproved",
      "outputs": [
        {
          "internalType": "address",
          "name": "",
          "type": "address"
        }
      ],
      "stateMutability": "view",
      "type": "function"
    },
    {
      "inputs": [
        {
          "internalType": "address",
          "name": "owner",
          "type": "address"
        },
        {
          "internalType": "address",
          "name": "operator",
          "type": "address"
        }
      ],
      "name": "isApprovedForAll",
      "outputs": [
        {
          "internalType": "bool",
          "name": "",
          "type": "bool"
        }
      ],
      "stateMutability": "view",
      "type": "function"
    },
    {
      "inputs": [
        {
          "internalType": "uint256",
          "name": "tokenId",
          "type": "uint256"
        },
        {
          "internalType": "uint8",
          "name": "v",
          "type": "uint8"
        },
        {
          "internalType": "bytes32",
          "name": "r",
          "type": "bytes32"
        },
        {
          "internalType": "bytes32",
          "name": "s",
          "type": "bytes32"
        }
      ],
      "name": "mint",
      "outputs": [],
      "stateMutability": "nonpayable",
      "type": "function"
    },
    {
      "inputs": [],
      "name": "name",
      "outputs": [
        {
          "internalType": "string",
          "name": "",
          "type": "string"
        }
      ],
      "stateMutability": "view",
      "type": "function"
    },
    {
      "inputs": [
        {
          "internalType": "uint256",
          "name": "tokenId",
          "type": "uint256"
        }
      ],
      "name": "ownerOf",
      "outputs": [
        {
          "internalType": "address",
          "name": "owner",
          "type": "address"
        }
      ],
      "stateMutability": "view",
      "type": "function"
    },
    {
      "inputs": [
        {
          "internalType": "address",
          "name": "from",
          "type": "address"
        },
        {
          "internalType": "address",
          "name": "to",
          "type": "address"
        },
        {
          "internalType": "uint256",
          "name": "tokenId",
          "type": "uint256"
        }
      ],
      "name": "safeTransferFrom",
      "outputs": [],
      "stateMutability": "nonpayable",
      "type": "function"
    },
    {
      "inputs": [
        {
          "internalType": "address",
          "name": "from",
          "type": "address"
        },
        {
          "internalType": "address",
          "name": "to",
          "type": "address"
        },
        {
          "internalType": "uint256",
          "name": "tokenId",
          "type": "uint256"
        },
        {
          "internalType": "bytes",
          "name": "_data",
          "type": "bytes"
        }
      ],
      "name": "safeTransferFrom",
      "outputs": [],
      "stateMutability": "nonpayable",
      "type": "function"
    },
    {
      "inputs": [
        {
          "internalType": "address",
          "name": "operator",
          "type": "address"
        },
        {
          "internalType": "bool",
          "name": "approved",
          "type": "bool"
        }
      ],
      "name": "setApprovalForAll",
      "outputs": [],
      "stateMutability": "nonpayable",
      "type": "function"
    },
    {
      "inputs": [
        {
          "internalType": "bytes4",
          "name": "interfaceId",
          "type": "bytes4"
        }
      ],
      "name": "supportsInterface",
      "outputs": [
        {
          "internalType": "bool",
          "name": "",
          "type": "bool"
        }
      ],
      "stateMutability": "pure",
      "type": "function"
    },
    {
      "inputs": [],
      "name": "symbol",
      "outputs": [
        {
          "internalType": "string",
          "name": "",
          "type": "string"
        }
      ],
      "stateMutability": "view",
      "type": "function"
    },
    {
      "inputs": [
        {
          "internalType": "uint256",
          "name": "tokenId",
          "type": "uint256"
        }
      ],
      "name": "tokenURI",
      "outputs": [
        {
          "internalType": "string",
          "name": "",
          "type": "string"
        }
      ],
      "stateMutability": "view",
      "type": "function"
    },
    {
      "inputs": [
        {
          "internalType": "address",
          "name": "from",
          "type": "address"
        },
        {
          "internalType": "address",
          "name": "to",
          "type": "address"
        },
        {
          "internalType": "uint256",
          "name": "tokenId",
          "type": "uint256"
        }
      ],
      "name": "transferFrom",
      "outputs": [],
      "stateMutability": "nonpayable",
      "type": "function"
    }
  ],
  "bytecode": "0x60a06040523480156200001157600080fd5b5060405162002e8c38038062002e8c833981810160405281019062000037919062000311565b818181600090816200004a9190620005e1565b5080600190816200005c9190620005e1565b505050620000ea60405180608001604052808481526020016040518060400160405280600181526020017f31000000000000000000000000000000000000000000000000000000000000008152508152602001620000bf620000f960201b60201c565b81526020013073ffffffffffffffffffffffffffffffffffffffff168152506200010660201b60201c565b60808181525050505062000796565b6000804690508091505090565b60007f8b73c3c69bb8fe3d512ecc4cf759cc79239f7b179b0ffacaa9a75d522b39400f826000015180519060200120836020015180519060200120846040015185606001516040516020016200016195949392919062000739565b604051602081830303815290604052805190602001209050919050565b6000604051905090565b600080fd5b600080fd5b600080fd5b600080fd5b6000601f19601f8301169050919050565b7f4e487b7100000000000000000000000000000000000000000000000000000000600052604160045260246000fd5b620001e7826200019c565b810181811067ffffffffffffffff82111715620002095762000208620001ad565b5b80604052505050565b60006200021e6200017e565b90506200022c8282620001dc565b919050565b600067ffffffffffffffff8211156200024f576200024e620001ad565b5b6200025a826200019c565b9050602081019050919050565b60005b83811015620002875780820151818401526020810190506200026a565b60008484015250505050565b6000620002aa620002a48462000231565b62000212565b905082815260208101848484011115620002c957620002c862000197565b5b620002d684828562000267565b509392505050565b600082601f830112620002f657620002f562000192565b5b81516200030884826020860162000293565b91505092915050565b600080604083850312156200032b576200032a62000188565b5b600083015167ffffffffffffffff8111156200034c576200034b6200018d565b5b6200035a85828601620002de565b925050602083015167ffffffffffffffff8111156200037e576200037d6200018d565b5b6200038c85828601620002de565b9150509250929050565b600081519050919050565b7f4e487b7100000000000000000000000000000000000000000000000000000000600052602260045260246000fd5b60006002820490506001821680620003e957607f821691505b602082108103620003ff57620003fe620003a1565b5b50919050565b60008190508160005260206000209050919050565b60006020601f8301049050919050565b600082821b905092915050565b600060088302620004697fffffffffffffffffffffffffffffffffffffffffffffffffffffffffffffffff826200042a565b6200047586836200042a565b95508019841693508086168417925050509392505050565b6000819050919050565b6000819050919050565b6000620004c2620004bc620004b6846200048d565b62000497565b6200048d565b9050919050565b6000819050919050565b620004de83620004a1565b620004f6620004ed82620004c9565b84845462000437565b825550505050565b600090565b6200050d620004fe565b6200051a818484620004d3565b505050565b5b8181101562000542576200053660008262000503565b60018101905062000520565b5050565b601f82111562000591576200055b8162000405565b62000566846200041a565b8101602085101562000576578190505b6200058e62000585856200041a565b8301826200051f565b50505b505050565b600082821c905092915050565b6000620005b66000198460080262000596565b1980831691505092915050565b6000620005d18383620005a3565b9150826002028217905092915050565b620005ec8262000396565b67ffffffffffffffff811115620006085762000607620001ad565b5b620006148254620003d0565b6200062182828562000546565b600060209050601f83116001811462000659576000841562000644578287015190505b620006508582620005c3565b865550620006c0565b601f198416620006698662000405565b60005b8281101562000693578489015182556001820191506020850194506020810190506200066c565b86831015620006b35784890151620006af601f891682620005a3565b8355505b6001600288020188555050505b505050505050565b6000819050919050565b620006dd81620006c8565b82525050565b620006ee816200048d565b82525050565b600073ffffffffffffffffffffffffffffffffffffffff82169050919050565b60006200072182620006f4565b9050919050565b620007338162000714565b82525050565b600060a082019050620007506000830188620006d2565b6200075f6020830187620006d2565b6200076e6040830186620006d2565b6200077d6060830185620006e3565b6200078c608083018462000728565b9695505050505050565b6080516126da620007b26000396000610dad01526126da6000f3fe608060405234801561001057600080fd5b50600436106100ea5760003560e01c80636352211e1161008c578063a22cb46511610066578063a22cb4651461025b578063b88d4fde14610277578063c87b56dd14610293578063e985e9c5146102c3576100ea565b80636352211e146101dd57806370a082311461020d57806395d89b411461023d576100ea565b8063095ea7b3116100c8578063095ea7b31461016d57806310aec4a61461018957806323b872dd146101a557806342842e0e146101c1576100ea565b806301ffc9a7146100ef57806306fdde031461011f578063081812fc1461013d575b600080fd5b61010960048036038101906101049190611793565b6102f3565b60405161011691906117db565b60405180910390f35b61012761042d565b6040516101349190611886565b60405180910390f35b610157600480360381019061015291906118de565b6104bb565b604051610164919061194c565b60405180910390f35b61018760048036038101906101829190611993565b610599565b005b6101a3600480360381019061019e9190611a42565b6106e0565b005b6101bf60048036038101906101ba9190611aa9565b61077f565b005b6101db60048036038101906101d69190611aa9565b6107e8565b005b6101f760048036038101906101f291906118de565b610808565b604051610204919061194c565b60405180910390f35b61022760048036038101906102229190611afc565b6108b4565b6040516102349190611b38565b60405180910390f35b61024561096b565b6040516102529190611886565b60405180910390f35b61027560048036038101906102709190611b7f565b6109f9565b005b610291600480360381019061028c9190611cf4565b610af6565b005b6102ad60048036038101906102a891906118de565b610b61565b6040516102ba9190611886565b60405180910390f35b6102dd60048036038101906102d89190611d77565b610c62565b6040516102ea91906117db565b60405180910390f35b60007f80ac58cd000000000000000000000000000000000000000000000000000000007bffffffffffffffffffffffffffffffffffffffffffffffffffffffff1916827bffffffffffffffffffffffffffffffffffffffffffffffffffffffff191614806103be57507f01ffc9a7000000000000000000000000000000000000000000000000000000007bffffffffffffffffffffffffffffffffffffffffffffffffffffffff1916827bffffffffffffffffffffffffffffffffffffffffffffffffffffffff1916145b8061042657507f5b5e139f000000000000000000000000000000000000000000000000000000007bffffffffffffffffffffffffffffffffffffffffffffffffffffffff1916827bffffffffffffffffffffffffffffffffffffffffffffffffffffffff1916145b9050919050565b6000805461043a90611de6565b80601f016020809104026020016040519081016040528092919081815260200182805461046690611de6565b80156104b35780601f10610488576101008083540402835291602001916104b3565b820191906000526020600020905b81548152906001019060200180831161049657829003601f168201915b505050505081565b60008073ffffffffffffffffffffffffffffffffffffffff166002600084815260200190815260200160002060009054906101000a900473ffffffffffffffffffffffffffffffffffffffff1673ffffffffffffffffffffffffffffffffffffffff160361055e576040517f08c379a000000000000000000000000000000000000000000000000000000000815260040161055590611e63565b60405180910390fd5b6004600083815260200190815260200160002060009054906101000a900473ffffffffffffffffffffffffffffffffffffffff169050919050565b60006002600083815260200190815260200160002060009054906101000a900473ffffffffffffffffffffffffffffffffffffffff1690508073ffffffffffffffffffffffffffffffffffffffff163373ffffffffffffffffffffffffffffffffffffffff1614806106915750600560008273ffffffffffffffffffffffffffffffffffffffff1673ffffffffffffffffffffffffffffffffffffffff16815260200190815260200160002060003373ffffffffffffffffffffffffffffffffffffffff1673ffffffffffffffffffffffffffffffffffffffff16815260200190815260200160002060009054906101000a900460ff165b6106d0576040517f08c379a00000000000000000000000000000000000000000000000000000000081526004016106c790611ecf565b60405180910390fd5b6106db818484610cf6565b505050565b6106ec33848484610da8565b61072b576040517f08c379a000000000000000000000000000000000000000000000000000000000815260040161072290611f3b565b60405180910390fd5b6107353385610ea4565b833373ffffffffffffffffffffffffffffffffffffffff167f30385c845b448a36257a6a1716e6ad2e1bc2cbe333cde1e69fe849ad6511adfe60405160405180910390a350505050565b600061078a82610808565b90506107978133846110be565b6107d6576040517f08c379a00000000000000000000000000000000000000000000000000000000081526004016107cd90611fa7565b60405180910390fd5b6107e2818585856111f2565b50505050565b61080383838360405180602001604052806000815250610af6565b505050565b60006002600083815260200190815260200160002060009054906101000a900473ffffffffffffffffffffffffffffffffffffffff169050600073ffffffffffffffffffffffffffffffffffffffff168173ffffffffffffffffffffffffffffffffffffffff16036108af576040517f08c379a00000000000000000000000000000000000000000000000000000000081526004016108a690611e63565b60405180910390fd5b919050565b60008073ffffffffffffffffffffffffffffffffffffffff168273ffffffffffffffffffffffffffffffffffffffff1603610924576040517f08c379a000000000000000000000000000000000000000000000000000000000815260040161091b90612013565b60405180910390fd5b600360008373ffffffffffffffffffffffffffffffffffffffff1673ffffffffffffffffffffffffffffffffffffffff168152602001908152602001600020549050919050565b6001805461097890611de6565b80601f01602080910402602001604051908101604052809291908181526020018280546109a490611de6565b80156109f15780601f106109c6576101008083540402835291602001916109f1565b820191906000526020600020905b8154815290600101906020018083116109d457829003601f168201915b505050505081565b80600560003373ffffffffffffffffffffffffffffffffffffffff1673ffffffffffffffffffffffffffffffffffffffff16815260200190815260200160002060008473ffffffffffffffffffffffffffffffffffffffff1673ffffffffffffffffffffffffffffffffffffffff16815260200190815260200160002060006101000a81548160ff0219169083151502179055508173ffffffffffffffffffffffffffffffffffffffff163373ffffffffffffffffffffffffffffffffffffffff167f17307eab39ab6107e8899845ad3d59bd9653f200f220920489ca2b5937696c3183604051610aea91906117db565b60405180910390a35050565b6000610b0183610808565b9050610b0e8133856110be565b610b4d576040517f08c379a0000000000000000000000000000000000000000000000000000000008152600401610b4490611fa7565b60405180910390fd5b610b5a818686868661143c565b5050505050565b6060600073ffffffffffffffffffffffffffffffffffffffff166002600084815260200190815260200160002060009054906101000a900473ffffffffffffffffffffffffffffffffffffffff1673ffffffffffffffffffffffffffffffffffffffff1603610c05576040517f08c379a0000000000000000000000000000000000000000000000000000000008152600401610bfc9061207f565b60405180910390fd5b6000610c0f61149a565b90506000815111610c2f5760405180602001604052806000815250610c5a565b80610c39846114b1565b604051602001610c4a9291906120db565b6040516020818303038152906040525b915050919050565b6000600560008473ffffffffffffffffffffffffffffffffffffffff1673ffffffffffffffffffffffffffffffffffffffff16815260200190815260200160002060008373ffffffffffffffffffffffffffffffffffffffff1673ffffffffffffffffffffffffffffffffffffffff16815260200190815260200160002060009054906101000a900460ff16905092915050565b816004600083815260200190815260200160002060006101000a81548173ffffffffffffffffffffffffffffffffffffffff021916908373ffffffffffffffffffffffffffffffffffffffff160217905550808273ffffffffffffffffffffffffffffffffffffffff168473ffffffffffffffffffffffffffffffffffffffff167f8c5be1e5ebec7d5bd14f71427d1e84f3dd0314c0f7b2291e5b200ac8c7c3b92560405160405180910390a4505050565b6000807f000000000000000000000000000000000000000000000000000000000000000086604051602001610ddd919061194c565b60405160208183030381529060405280519060200120604051602001610e0492919061216c565b6040516020818303038152906040528051906020012090508573ffffffffffffffffffffffffffffffffffffffff1660018287878760405160008152602001604052604051610e5694939291906121c1565b6020604051602081039080840390855afa158015610e78573d6000803e3d6000fd5b5050506020604051035173ffffffffffffffffffffffffffffffffffffffff1614915050949350505050565b600073ffffffffffffffffffffffffffffffffffffffff168273ffffffffffffffffffffffffffffffffffffffff1603610f13576040517f08c379a0000000000000000000000000000000000000000000000000000000008152600401610f0a90612252565b60405180910390fd5b600073ffffffffffffffffffffffffffffffffffffffff166002600083815260200190815260200160002060009054906101000a900473ffffffffffffffffffffffffffffffffffffffff1673ffffffffffffffffffffffffffffffffffffffff1614610fb5576040517f08c379a0000000000000000000000000000000000000000000000000000000008152600401610fac906122be565b60405180910390fd5b6001600360008473ffffffffffffffffffffffffffffffffffffffff1673ffffffffffffffffffffffffffffffffffffffff1681526020019081526020016000206000828254611005919061230d565b92505081905550816002600083815260200190815260200160002060006101000a81548173ffffffffffffffffffffffffffffffffffffffff021916908373ffffffffffffffffffffffffffffffffffffffff160217905550808273ffffffffffffffffffffffffffffffffffffffff16600073ffffffffffffffffffffffffffffffffffffffff167fddf252ad1be2c89b69c2b068fc378daa952ba7f163c4a11628f55a4df523b3ef60405160405180910390a45050565b60008373ffffffffffffffffffffffffffffffffffffffff168373ffffffffffffffffffffffffffffffffffffffff16148061115857508273ffffffffffffffffffffffffffffffffffffffff166004600084815260200190815260200160002060009054906101000a900473ffffffffffffffffffffffffffffffffffffffff1673ffffffffffffffffffffffffffffffffffffffff16145b806111e95750600560008573ffffffffffffffffffffffffffffffffffffffff1673ffffffffffffffffffffffffffffffffffffffff16815260200190815260200160002060008473ffffffffffffffffffffffffffffffffffffffff1673ffffffffffffffffffffffffffffffffffffffff16815260200190815260200160002060009054906101000a900460ff165b90509392505050565b8373ffffffffffffffffffffffffffffffffffffffff168373ffffffffffffffffffffffffffffffffffffffff1614611260576040517f08c379a00000000000000000000000000000000000000000000000000000000081526004016112579061238d565b60405180910390fd5b600073ffffffffffffffffffffffffffffffffffffffff168273ffffffffffffffffffffffffffffffffffffffff16036112cf576040517f08c379a00000000000000000000000000000000000000000000000000000000081526004016112c6906123f9565b60405180910390fd5b6112db84600083610cf6565b6001600360008573ffffffffffffffffffffffffffffffffffffffff1673ffffffffffffffffffffffffffffffffffffffff168152602001908152602001600020600082825461132b9190612419565b925050819055506001600360008473ffffffffffffffffffffffffffffffffffffffff1673ffffffffffffffffffffffffffffffffffffffff1681526020019081526020016000206000828254611382919061230d565b92505081905550816002600083815260200190815260200160002060006101000a81548173ffffffffffffffffffffffffffffffffffffffff021916908373ffffffffffffffffffffffffffffffffffffffff160217905550808273ffffffffffffffffffffffffffffffffffffffff168473ffffffffffffffffffffffffffffffffffffffff167fddf252ad1be2c89b69c2b068fc378daa952ba7f163c4a11628f55a4df523b3ef60405160405180910390a450505050565b611448858585856111f2565b61145484848484611611565b611493576040517f08c379a000000000000000000000000000000000000000000000000000000000815260040161148a90612499565b60405180910390fd5b5050505050565b606060405180602001604052806000815250905090565b6060600082036114f8576040518060400160405280600181526020017f3000000000000000000000000000000000000000000000000000000000000000815250905061160c565b600082905060005b6000821461152a578080611513906124b9565b915050600a826115239190612530565b9150611500565b60008167ffffffffffffffff81111561154657611545611bc9565b5b6040519080825280601f01601f1916602001820160405280156115785781602001600182028036833780820191505090505b5090505b60008514611605576001826115919190612419565b9150600a856115a09190612561565b60306115ac919061230d565b60f81b8183815181106115c2576115c1612592565b5b60200101907effffffffffffffffffffffffffffffffffffffffffffffffffffffffffffff1916908160001a905350600a856115fe9190612530565b945061157c565b8093505050505b919050565b60006116328473ffffffffffffffffffffffffffffffffffffffff16611714565b156117075763150b7a0260e01b7bffffffffffffffffffffffffffffffffffffffffffffffffffffffff19168473ffffffffffffffffffffffffffffffffffffffff1663150b7a02338887876040518563ffffffff1660e01b815260040161169d9493929190612616565b6020604051808303816000875af11580156116bc573d6000803e3d6000fd5b505050506040513d601f19601f820116820180604052508101906116e09190612677565b7bffffffffffffffffffffffffffffffffffffffffffffffffffffffff191614905061170c565b600190505b949350505050565b600080823b905060008111915050919050565b6000604051905090565b600080fd5b600080fd5b60007fffffffff0000000000000000000000000000000000000000000000000000000082169050919050565b6117708161173b565b811461177b57600080fd5b50565b60008135905061178d81611767565b92915050565b6000602082840312156117a9576117a8611731565b5b60006117b78482850161177e565b91505092915050565b60008115159050919050565b6117d5816117c0565b82525050565b60006020820190506117f060008301846117cc565b92915050565b600081519050919050565b600082825260208201905092915050565b60005b83811015611830578082015181840152602081019050611815565b60008484015250505050565b6000601f19601f8301169050919050565b6000611858826117f6565b6118628185611801565b9350611872818560208601611812565b61187b8161183c565b840191505092915050565b600060208201905081810360008301526118a0818461184d565b905092915050565b6000819050919050565b6118bb816118a8565b81146118c657600080fd5b50565b6000813590506118d8816118b2565b92915050565b6000602082840312156118f4576118f3611731565b5b6000611902848285016118c9565b91505092915050565b600073ffffffffffffffffffffffffffffffffffffffff82169050919050565b60006119368261190b565b9050919050565b6119468161192b565b82525050565b6000602082019050611961600083018461193d565b92915050565b6119708161192b565b811461197b57600080fd5b50565b60008135905061198d81611967565b92915050565b600080604083850312156119aa576119a9611731565b5b60006119b88582860161197e565b92505060206119c9858286016118c9565b9150509250929050565b600060ff82169050919050565b6119e9816119d3565b81146119f457600080fd5b50565b600081359050611a06816119e0565b92915050565b6000819050919050565b611a1f81611a0c565b8114611a2a57600080fd5b50565b600081359050611a3c81611a16565b92915050565b60008060008060808587031215611a5c57611a5b611731565b5b6000611a6a878288016118c9565b9450506020611a7b878288016119f7565b9350506040611a8c87828801611a2d565b9250506060611a9d87828801611a2d565b91505092959194509250565b600080600060608486031215611ac257611ac1611731565b5b6000611ad08682870161197e565b9350506020611ae18682870161197e565b9250506040611af2868287016118c9565b9150509250925092565b600060208284031215611b1257611b11611731565b5b6000611b208482850161197e565b91505092915050565b611b32816118a8565b82525050565b6000602082019050611b4d6000830184611b29565b92915050565b611b5c816117c0565b8114611b6757600080fd5b50565b600081359050611b7981611b53565b92915050565b60008060408385031215611b9657611b95611731565b5b6000611ba48582860161197e565b9250506020611bb585828601611b6a565b9150509250929050565b600080fd5b600080fd5b7f4e487b7100000000000000000000000000000000000000000000000000000000600052604160045260246000fd5b611c018261183c565b810181811067ffffffffffffffff82111715611c2057611c1f611bc9565b5b80604052505050565b6000611c33611727565b9050611c3f8282611bf8565b919050565b600067ffffffffffffffff821115611c5f57611c5e611bc9565b5b611c688261183c565b9050602081019050919050565b82818337600083830152505050565b6000611c97611c9284611c44565b611c29565b905082815260208101848484011115611cb357611cb2611bc4565b5b611cbe848285611c75565b509392505050565b600082601f830112611cdb57611cda611bbf565b5b8135611ceb848260208601611c84565b91505092915050565b60008060008060808587031215611d0e57611d0d611731565b5b6000611d1c8782880161197e565b9450506020611d2d8782880161197e565b9350506040611d3e878288016118c9565b925050606085013567ffffffffffffffff811115611d5f57611d5e611736565b5b611d6b87828801611cc6565b91505092959194509250565b60008060408385031215611d8e57611d8d611731565b5b6000611d9c8582860161197e565b9250506020611dad8582860161197e565b9150509250929050565b7f4e487b7100000000000000000000000000000000000000000000000000000000600052602260045260246000fd5b60006002820490506001821680611dfe57607f821691505b602082108103611e1157611e10611db7565b5b50919050565b7f746f6b656e20646f65736e277420657869737400000000000000000000000000600082015250565b6000611e4d601383611801565b9150611e5882611e17565b602082019050919050565b60006020820190508181036000830152611e7c81611e40565b9050919050565b7f6e6f74206f776e6572206e6f7220617070726f76656420666f7220616c6c0000600082015250565b6000611eb9601e83611801565b9150611ec482611e83565b602082019050919050565b60006020820190508181036000830152611ee881611eac565b9050919050565b7f41646472657373206973206e6f742077686974656c6973746564000000000000600082015250565b6000611f25601a83611801565b9150611f3082611eef565b602082019050919050565b60006020820190508181036000830152611f5481611f18565b9050919050565b7f6e6f74206f776e6572206e6f7220617070726f76656400000000000000000000600082015250565b6000611f91601683611801565b9150611f9c82611f5b565b602082019050919050565b60006020820190508181036000830152611fc081611f84565b9050919050565b7f6f776e6572203d207a65726f2061646472657373000000000000000000000000600082015250565b6000611ffd601483611801565b915061200882611fc7565b602082019050919050565b6000602082019050818103600083015261202c81611ff0565b9050919050565b7f546f6b656e204e6f742045786973740000000000000000000000000000000000600082015250565b6000612069600f83611801565b915061207482612033565b602082019050919050565b600060208201905081810360008301526120988161205c565b9050919050565b600081905092915050565b60006120b5826117f6565b6120bf818561209f565b93506120cf818560208601611812565b80840191505092915050565b60006120e782856120aa565b91506120f382846120aa565b91508190509392505050565b7f1901000000000000000000000000000000000000000000000000000000000000600082015250565b600061213560028361209f565b9150612140826120ff565b600282019050919050565b6000819050919050565b61216661216182611a0c565b61214b565b82525050565b600061217782612128565b91506121838285612155565b6020820191506121938284612155565b6020820191508190509392505050565b6121ac81611a0c565b82525050565b6121bb816119d3565b82525050565b60006080820190506121d660008301876121a3565b6121e360208301866121b2565b6121f060408301856121a3565b6121fd60608301846121a3565b95945050505050565b7f6d696e7420746f207a65726f2061646472657373000000000000000000000000600082015250565b600061223c601483611801565b915061224782612206565b602082019050919050565b6000602082019050818103600083015261226b8161222f565b9050919050565b7f746f6b656e20616c7265616479206d696e746564000000000000000000000000600082015250565b60006122a8601483611801565b91506122b382612272565b602082019050919050565b600060208201905081810360008301526122d78161229b565b9050919050565b7f4e487b7100000000000000000000000000000000000000000000000000000000600052601160045260246000fd5b6000612318826118a8565b9150612323836118a8565b925082820190508082111561233b5761233a6122de565b5b92915050565b7f6e6f74206f776e65720000000000000000000000000000000000000000000000600082015250565b6000612377600983611801565b915061238282612341565b602082019050919050565b600060208201905081810360008301526123a68161236a565b9050919050565b7f7472616e7366657220746f20746865207a65726f206164647265737300000000600082015250565b60006123e3601c83611801565b91506123ee826123ad565b602082019050919050565b60006020820190508181036000830152612412816123d6565b9050919050565b6000612424826118a8565b915061242f836118a8565b9250828203905081811115612447576124466122de565b5b92915050565b7f6e6f742045524337323152656365697665720000000000000000000000000000600082015250565b6000612483601283611801565b915061248e8261244d565b602082019050919050565b600060208201905081810360008301526124b281612476565b9050919050565b60006124c4826118a8565b91507fffffffffffffffffffffffffffffffffffffffffffffffffffffffffffffffff82036124f6576124f56122de565b5b600182019050919050565b7f4e487b7100000000000000000000000000000000000000000000000000000000600052601260045260246000fd5b600061253b826118a8565b9150612546836118a8565b92508261255657612555612501565b5b828204905092915050565b600061256c826118a8565b9150612577836118a8565b92508261258757612586612501565b5b828206905092915050565b7f4e487b7100000000000000000000000000000000000000000000000000000000600052603260045260246000fd5b600081519050919050565b600082825260208201905092915050565b60006125e8826125c1565b6125f281856125cc565b9350612602818560208601611812565b61260b8161183c565b840191505092915050565b600060808201905061262b600083018761193d565b612638602083018661193d565b6126456040830185611b29565b818103606083015261265781846125dd565b905095945050505050565b60008151905061267181611767565b92915050565b60006020828403121561268d5761268c611731565b5b600061269b84828501612662565b9150509291505056fea26469706673582212208e1a5de8be7028b672421aa9a3b62c5ebf1cd85c0e03a238c52f1b439aaa03eb64736f6c63430008130033",
  "linkReferences": {},
  "deployedLinkReferences": {}
}