{
  "_format": "hh-sol-artifact-1",
  "contractName": "MerkleTreeWhiteList",
  "sourceName": "contracts/NFT-MerkleTree.sol",
  "abi": [
    {
      "inputs": [
        {
          "internalType": "string",
          "name": "name_",
          "type": "string"
        },
        {
          "internalType": "string",
          "name": "symbol_",
          "type": "string"
        },
        {
          "internalType": "bytes32",
          "name": "merkleroot_",
          "type": "bytes32"
        }
      ],
      "stateMutability": "nonpayable",
      "type": "constructor"
    },
    {
      "anonymous": false,
      "inputs": [
        {
          "indexed": true,
          "internalType": "address",
          "name": "owner",
          "type": "address"
        },
        {
          "indexed": true,
          "internalType": "address",
          "name": "approved",
          "type": "address"
        },
        {
          "indexed": true,
          "internalType": "uint256",
          "name": "tokenId",
          "type": "uint256"
        }
      ],
      "name": "Approval",
      "type": "event"
    },
    {
      "anonymous": false,
      "inputs": [
        {
          "indexed": true,
          "internalType": "address",
          "name": "owner",
          "type": "address"
        },
        {
          "indexed": true,
          "internalType": "address",
          "name": "operator",
          "type": "address"
        },
        {
          "indexed": false,
          "internalType": "bool",
          "name": "approved",
          "type": "bool"
        }
      ],
      "name": "ApprovalForAll",
      "type": "event"
    },
    {
      "anonymous": false,
      "inputs": [
        {
          "indexed": true,
          "internalType": "address",
          "name": "from",
          "type": "address"
        },
        {
          "indexed": true,
          "internalType": "address",
          "name": "to",
          "type": "address"
        },
        {
          "indexed": true,
          "internalType": "uint256",
          "name": "tokenId",
          "type": "uint256"
        }
      ],
      "name": "Transfer",
      "type": "event"
    },
    {
      "inputs": [
        {
          "internalType": "address",
          "name": "to",
          "type": "address"
        },
        {
          "internalType": "uint256",
          "name": "tokenId",
          "type": "uint256"
        }
      ],
      "name": "approve",
      "outputs": [],
      "stateMutability": "nonpayable",
      "type": "function"
    },
    {
      "inputs": [
        {
          "internalType": "address",
          "name": "owner",
          "type": "address"
        }
      ],
      "name": "balanceOf",
      "outputs": [
        {
          "internalType": "uint256",
          "name": "",
          "type": "uint256"
        }
      ],
      "stateMutability": "view",
      "type": "function"
    },
    {
      "inputs": [
        {
          "internalType": "uint256",
          "name": "tokenId",
          "type": "uint256"
        }
      ],
      "name": "getApproved",
      "outputs": [
        {
          "internalType": "address",
          "name": "",
          "type": "address"
        }
      ],
      "stateMutability": "view",
      "type": "function"
    },
    {
      "inputs": [
        {
          "internalType": "address",
          "name": "owner",
          "type": "address"
        },
        {
          "internalType": "address",
          "name": "operator",
          "type": "address"
        }
      ],
      "name": "isApprovedForAll",
      "outputs": [
        {
          "internalType": "bool",
          "name": "",
          "type": "bool"
        }
      ],
      "stateMutability": "view",
      "type": "function"
    },
    {
      "inputs": [
        {
          "internalType": "address",
          "name": "to",
          "type": "address"
        },
        {
          "internalType": "uint256",
          "name": "tokenId",
          "type": "uint256"
        },
        {
          "internalType": "bytes32[]",
          "name": "proof",
          "type": "bytes32[]"
        }
      ],
      "name": "mint",
      "outputs": [],
      "stateMutability": "nonpayable",
      "type": "function"
    },
    {
      "inputs": [
        {
          "internalType": "address",
          "name": "",
          "type": "address"
        }
      ],
      "name": "mintedAddress",
      "outputs": [
        {
          "internalType": "bool",
          "name": "",
          "type": "bool"
        }
      ],
      "stateMutability": "view",
      "type": "function"
    },
    {
      "inputs": [],
      "name": "name",
      "outputs": [
        {
          "internalType": "string",
          "name": "",
          "type": "string"
        }
      ],
      "stateMutability": "view",
      "type": "function"
    },
    {
      "inputs": [
        {
          "internalType": "uint256",
          "name": "tokenId",
          "type": "uint256"
        }
      ],
      "name": "ownerOf",
      "outputs": [
        {
          "internalType": "address",
          "name": "owner",
          "type": "address"
        }
      ],
      "stateMutability": "view",
      "type": "function"
    },
    {
      "inputs": [],
      "name": "root",
      "outputs": [
        {
          "internalType": "bytes32",
          "name": "",
          "type": "bytes32"
        }
      ],
      "stateMutability": "view",
      "type": "function"
    },
    {
      "inputs": [
        {
          "internalType": "address",
          "name": "from",
          "type": "address"
        },
        {
          "internalType": "address",
          "name": "to",
          "type": "address"
        },
        {
          "internalType": "uint256",
          "name": "tokenId",
          "type": "uint256"
        }
      ],
      "name": "safeTransferFrom",
      "outputs": [],
      "stateMutability": "nonpayable",
      "type": "function"
    },
    {
      "inputs": [
        {
          "internalType": "address",
          "name": "from",
          "type": "address"
        },
        {
          "internalType": "address",
          "name": "to",
          "type": "address"
        },
        {
          "internalType": "uint256",
          "name": "tokenId",
          "type": "uint256"
        },
        {
          "internalType": "bytes",
          "name": "_data",
          "type": "bytes"
        }
      ],
      "name": "safeTransferFrom",
      "outputs": [],
      "stateMutability": "nonpayable",
      "type": "function"
    },
    {
      "inputs": [
        {
          "internalType": "address",
          "name": "operator",
          "type": "address"
        },
        {
          "internalType": "bool",
          "name": "approved",
          "type": "bool"
        }
      ],
      "name": "setApprovalForAll",
      "outputs": [],
      "stateMutability": "nonpayable",
      "type": "function"
    },
    {
      "inputs": [
        {
          "internalType": "bytes4",
          "name": "interfaceId",
          "type": "bytes4"
        }
      ],
      "name": "supportsInterface",
      "outputs": [
        {
          "internalType": "bool",
          "name": "",
          "type": "bool"
        }
      ],
      "stateMutability": "pure",
      "type": "function"
    },
    {
      "inputs": [],
      "name": "symbol",
      "outputs": [
        {
          "internalType": "string",
          "name": "",
          "type": "string"
        }
      ],
      "stateMutability": "view",
      "type": "function"
    },
    {
      "inputs": [
        {
          "internalType": "uint256",
          "name": "tokenId",
          "type": "uint256"
        }
      ],
      "name": "tokenURI",
      "outputs": [
        {
          "internalType": "string",
          "name": "",
          "type": "string"
        }
      ],
      "stateMutability": "view",
      "type": "function"
    },
    {
      "inputs": [
        {
          "internalType": "address",
          "name": "from",
          "type": "address"
        },
        {
          "internalType": "address",
          "name": "to",
          "type": "address"
        },
        {
          "internalType": "uint256",
          "name": "tokenId",
          "type": "uint256"
        }
      ],
      "name": "transferFrom",
      "outputs": [],
      "stateMutability": "nonpayable",
      "type": "function"
    }
  ],
  "bytecode": "0x60a06040523480156200001157600080fd5b5060405162002f5c38038062002f5c83398181016040528101906200003791906200023e565b828281600090816200004a919062000523565b5080600190816200005c919062000523565b50505080608081815250505050506200060a565b6000604051905090565b600080fd5b600080fd5b600080fd5b600080fd5b6000601f19601f8301169050919050565b7f4e487b7100000000000000000000000000000000000000000000000000000000600052604160045260246000fd5b620000d9826200008e565b810181811067ffffffffffffffff82111715620000fb57620000fa6200009f565b5b80604052505050565b60006200011062000070565b90506200011e8282620000ce565b919050565b600067ffffffffffffffff8211156200014157620001406200009f565b5b6200014c826200008e565b9050602081019050919050565b60005b83811015620001795780820151818401526020810190506200015c565b60008484015250505050565b60006200019c620001968462000123565b62000104565b905082815260208101848484011115620001bb57620001ba62000089565b5b620001c884828562000159565b509392505050565b600082601f830112620001e857620001e762000084565b5b8151620001fa84826020860162000185565b91505092915050565b6000819050919050565b620002188162000203565b81146200022457600080fd5b50565b60008151905062000238816200020d565b92915050565b6000806000606084860312156200025a57620002596200007a565b5b600084015167ffffffffffffffff8111156200027b576200027a6200007f565b5b6200028986828701620001d0565b935050602084015167ffffffffffffffff811115620002ad57620002ac6200007f565b5b620002bb86828701620001d0565b9250506040620002ce8682870162000227565b9150509250925092565b600081519050919050565b7f4e487b7100000000000000000000000000000000000000000000000000000000600052602260045260246000fd5b600060028204905060018216806200032b57607f821691505b602082108103620003415762000340620002e3565b5b50919050565b60008190508160005260206000209050919050565b60006020601f8301049050919050565b600082821b905092915050565b600060088302620003ab7fffffffffffffffffffffffffffffffffffffffffffffffffffffffffffffffff826200036c565b620003b786836200036c565b95508019841693508086168417925050509392505050565b6000819050919050565b6000819050919050565b600062000404620003fe620003f884620003cf565b620003d9565b620003cf565b9050919050565b6000819050919050565b6200042083620003e3565b620004386200042f826200040b565b84845462000379565b825550505050565b600090565b6200044f62000440565b6200045c81848462000415565b505050565b5b8181101562000484576200047860008262000445565b60018101905062000462565b5050565b601f821115620004d3576200049d8162000347565b620004a8846200035c565b81016020851015620004b8578190505b620004d0620004c7856200035c565b83018262000461565b50505b505050565b600082821c905092915050565b6000620004f860001984600802620004d8565b1980831691505092915050565b6000620005138383620004e5565b9150826002028217905092915050565b6200052e82620002d8565b67ffffffffffffffff8111156200054a57620005496200009f565b5b62000556825462000312565b6200056382828562000488565b600060209050601f8311600181146200059b576000841562000586578287015190505b62000592858262000505565b86555062000602565b601f198416620005ab8662000347565b60005b82811015620005d557848901518255600182019150602085019450602081019050620005ae565b86831015620005f55784890151620005f1601f891682620004e5565b8355505b6001600288020188555050505b505050505050565b60805161292f6200062d60003960008181610e6401526112ee015261292f6000f3fe608060405234801561001057600080fd5b50600436106101005760003560e01c8063641ce14011610097578063b88d4fde11610066578063b88d4fde146102bd578063c87b56dd146102d9578063e985e9c514610309578063ebf0c7171461033957610100565b8063641ce1401461023757806370a082311461025357806395d89b4114610283578063a22cb465146102a157610100565b806323b872dd116100d357806323b872dd1461019f57806342842e0e146101bb578063630303c6146101d75780636352211e1461020757610100565b806301ffc9a71461010557806306fdde0314610135578063081812fc14610153578063095ea7b314610183575b600080fd5b61011f600480360381019061011a919061196b565b610357565b60405161012c91906119b3565b60405180910390f35b61013d610491565b60405161014a9190611a5e565b60405180910390f35b61016d60048036038101906101689190611ab6565b61051f565b60405161017a9190611b24565b60405180910390f35b61019d60048036038101906101989190611b6b565b6105fd565b005b6101b960048036038101906101b49190611bab565b610744565b005b6101d560048036038101906101d09190611bab565b6107ad565b005b6101f160048036038101906101ec9190611bfe565b6107cd565b6040516101fe91906119b3565b60405180910390f35b610221600480360381019061021c9190611ab6565b6107ed565b60405161022e9190611b24565b60405180910390f35b610251600480360381019061024c9190611c90565b610899565b005b61026d60048036038101906102689190611bfe565b610a20565b60405161027a9190611d13565b60405180910390f35b61028b610ad7565b6040516102989190611a5e565b60405180910390f35b6102bb60048036038101906102b69190611d5a565b610b65565b005b6102d760048036038101906102d29190611eca565b610c62565b005b6102f360048036038101906102ee9190611ab6565b610ccd565b6040516103009190611a5e565b60405180910390f35b610323600480360381019061031e9190611f4d565b610dce565b60405161033091906119b3565b60405180910390f35b610341610e62565b60405161034e9190611fa6565b60405180910390f35b60007f80ac58cd000000000000000000000000000000000000000000000000000000007bffffffffffffffffffffffffffffffffffffffffffffffffffffffff1916827bffffffffffffffffffffffffffffffffffffffffffffffffffffffff1916148061042257507f01ffc9a7000000000000000000000000000000000000000000000000000000007bffffffffffffffffffffffffffffffffffffffffffffffffffffffff1916827bffffffffffffffffffffffffffffffffffffffffffffffffffffffff1916145b8061048a57507f5b5e139f000000000000000000000000000000000000000000000000000000007bffffffffffffffffffffffffffffffffffffffffffffffffffffffff1916827bffffffffffffffffffffffffffffffffffffffffffffffffffffffff1916145b9050919050565b6000805461049e90611ff0565b80601f01602080910402602001604051908101604052809291908181526020018280546104ca90611ff0565b80156105175780601f106104ec57610100808354040283529160200191610517565b820191906000526020600020905b8154815290600101906020018083116104fa57829003601f168201915b505050505081565b60008073ffffffffffffffffffffffffffffffffffffffff166002600084815260200190815260200160002060009054906101000a900473ffffffffffffffffffffffffffffffffffffffff1673ffffffffffffffffffffffffffffffffffffffff16036105c2576040517f08c379a00000000000000000000000000000000000000000000000000000000081526004016105b99061206d565b60405180910390fd5b6004600083815260200190815260200160002060009054906101000a900473ffffffffffffffffffffffffffffffffffffffff169050919050565b60006002600083815260200190815260200160002060009054906101000a900473ffffffffffffffffffffffffffffffffffffffff1690508073ffffffffffffffffffffffffffffffffffffffff163373ffffffffffffffffffffffffffffffffffffffff1614806106f55750600560008273ffffffffffffffffffffffffffffffffffffffff1673ffffffffffffffffffffffffffffffffffffffff16815260200190815260200160002060003373ffffffffffffffffffffffffffffffffffffffff1673ffffffffffffffffffffffffffffffffffffffff16815260200190815260200160002060009054906101000a900460ff165b610734576040517f08c379a000000000000000000000000000000000000000000000000000000000815260040161072b906120d9565b60405180910390fd5b61073f818484610e86565b505050565b600061074f826107ed565b905061075c813384610f38565b61079b576040517f08c379a000000000000000000000000000000000000000000000000000000000815260040161079290612145565b60405180910390fd5b6107a78185858561106c565b50505050565b6107c883838360405180602001604052806000815250610c62565b505050565b60066020528060005260406000206000915054906101000a900460ff1681565b60006002600083815260200190815260200160002060009054906101000a900473ffffffffffffffffffffffffffffffffffffffff169050600073ffffffffffffffffffffffffffffffffffffffff168173ffffffffffffffffffffffffffffffffffffffff1603610894576040517f08c379a000000000000000000000000000000000000000000000000000000000815260040161088b9061206d565b60405180910390fd5b919050565b6108ec6108a5856112b6565b838380806020026020016040519081016040528093929190818152602001838360200280828437600081840152601f19601f820116905080830192505050505050506112e6565b61092b576040517f08c379a0000000000000000000000000000000000000000000000000000000008152600401610922906121b1565b60405180910390fd5b600660008573ffffffffffffffffffffffffffffffffffffffff1673ffffffffffffffffffffffffffffffffffffffff16815260200190815260200160002060009054906101000a900460ff16156109b8576040517f08c379a00000000000000000000000000000000000000000000000000000000081526004016109af9061221d565b60405180910390fd5b6001600660008673ffffffffffffffffffffffffffffffffffffffff1673ffffffffffffffffffffffffffffffffffffffff16815260200190815260200160002060006101000a81548160ff021916908315150217905550610a1a848461131b565b50505050565b60008073ffffffffffffffffffffffffffffffffffffffff168273ffffffffffffffffffffffffffffffffffffffff1603610a90576040517f08c379a0000000000000000000000000000000000000000000000000000000008152600401610a8790612289565b60405180910390fd5b600360008373ffffffffffffffffffffffffffffffffffffffff1673ffffffffffffffffffffffffffffffffffffffff168152602001908152602001600020549050919050565b60018054610ae490611ff0565b80601f0160208091040260200160405190810160405280929190818152602001828054610b1090611ff0565b8015610b5d5780601f10610b3257610100808354040283529160200191610b5d565b820191906000526020600020905b815481529060010190602001808311610b4057829003601f168201915b505050505081565b80600560003373ffffffffffffffffffffffffffffffffffffffff1673ffffffffffffffffffffffffffffffffffffffff16815260200190815260200160002060008473ffffffffffffffffffffffffffffffffffffffff1673ffffffffffffffffffffffffffffffffffffffff16815260200190815260200160002060006101000a81548160ff0219169083151502179055508173ffffffffffffffffffffffffffffffffffffffff163373ffffffffffffffffffffffffffffffffffffffff167f17307eab39ab6107e8899845ad3d59bd9653f200f220920489ca2b5937696c3183604051610c5691906119b3565b60405180910390a35050565b6000610c6d836107ed565b9050610c7a813385610f38565b610cb9576040517f08c379a0000000000000000000000000000000000000000000000000000000008152600401610cb090612145565b60405180910390fd5b610cc68186868686611535565b5050505050565b6060600073ffffffffffffffffffffffffffffffffffffffff166002600084815260200190815260200160002060009054906101000a900473ffffffffffffffffffffffffffffffffffffffff1673ffffffffffffffffffffffffffffffffffffffff1603610d71576040517f08c379a0000000000000000000000000000000000000000000000000000000008152600401610d68906122f5565b60405180910390fd5b6000610d7b611593565b90506000815111610d9b5760405180602001604052806000815250610dc6565b80610da5846115b3565b604051602001610db6929190612351565b6040516020818303038152906040525b915050919050565b6000600560008473ffffffffffffffffffffffffffffffffffffffff1673ffffffffffffffffffffffffffffffffffffffff16815260200190815260200160002060008373ffffffffffffffffffffffffffffffffffffffff1673ffffffffffffffffffffffffffffffffffffffff16815260200190815260200160002060009054906101000a900460ff16905092915050565b7f000000000000000000000000000000000000000000000000000000000000000081565b816004600083815260200190815260200160002060006101000a81548173ffffffffffffffffffffffffffffffffffffffff021916908373ffffffffffffffffffffffffffffffffffffffff160217905550808273ffffffffffffffffffffffffffffffffffffffff168473ffffffffffffffffffffffffffffffffffffffff167f8c5be1e5ebec7d5bd14f71427d1e84f3dd0314c0f7b2291e5b200ac8c7c3b92560405160405180910390a4505050565b60008373ffffffffffffffffffffffffffffffffffffffff168373ffffffffffffffffffffffffffffffffffffffff161480610fd257508273ffffffffffffffffffffffffffffffffffffffff166004600084815260200190815260200160002060009054906101000a900473ffffffffffffffffffffffffffffffffffffffff1673ffffffffffffffffffffffffffffffffffffffff16145b806110635750600560008573ffffffffffffffffffffffffffffffffffffffff1673ffffffffffffffffffffffffffffffffffffffff16815260200190815260200160002060008473ffffffffffffffffffffffffffffffffffffffff1673ffffffffffffffffffffffffffffffffffffffff16815260200190815260200160002060009054906101000a900460ff165b90509392505050565b8373ffffffffffffffffffffffffffffffffffffffff168373ffffffffffffffffffffffffffffffffffffffff16146110da576040517f08c379a00000000000000000000000000000000000000000000000000000000081526004016110d1906123c1565b60405180910390fd5b600073ffffffffffffffffffffffffffffffffffffffff168273ffffffffffffffffffffffffffffffffffffffff1603611149576040517f08c379a00000000000000000000000000000000000000000000000000000000081526004016111409061242d565b60405180910390fd5b61115584600083610e86565b6001600360008573ffffffffffffffffffffffffffffffffffffffff1673ffffffffffffffffffffffffffffffffffffffff16815260200190815260200160002060008282546111a5919061247c565b925050819055506001600360008473ffffffffffffffffffffffffffffffffffffffff1673ffffffffffffffffffffffffffffffffffffffff16815260200190815260200160002060008282546111fc91906124b0565b92505081905550816002600083815260200190815260200160002060006101000a81548173ffffffffffffffffffffffffffffffffffffffff021916908373ffffffffffffffffffffffffffffffffffffffff160217905550808273ffffffffffffffffffffffffffffffffffffffff168473ffffffffffffffffffffffffffffffffffffffff167fddf252ad1be2c89b69c2b068fc378daa952ba7f163c4a11628f55a4df523b3ef60405160405180910390a450505050565b6000816040516020016112c9919061252c565b604051602081830303815290604052805190602001209050919050565b6000611313827f000000000000000000000000000000000000000000000000000000000000000085611713565b905092915050565b600073ffffffffffffffffffffffffffffffffffffffff168273ffffffffffffffffffffffffffffffffffffffff160361138a576040517f08c379a000000000000000000000000000000000000000000000000000000000815260040161138190612593565b60405180910390fd5b600073ffffffffffffffffffffffffffffffffffffffff166002600083815260200190815260200160002060009054906101000a900473ffffffffffffffffffffffffffffffffffffffff1673ffffffffffffffffffffffffffffffffffffffff161461142c576040517f08c379a0000000000000000000000000000000000000000000000000000000008152600401611423906125ff565b60405180910390fd5b6001600360008473ffffffffffffffffffffffffffffffffffffffff1673ffffffffffffffffffffffffffffffffffffffff168152602001908152602001600020600082825461147c91906124b0565b92505081905550816002600083815260200190815260200160002060006101000a81548173ffffffffffffffffffffffffffffffffffffffff021916908373ffffffffffffffffffffffffffffffffffffffff160217905550808273ffffffffffffffffffffffffffffffffffffffff16600073ffffffffffffffffffffffffffffffffffffffff167fddf252ad1be2c89b69c2b068fc378daa952ba7f163c4a11628f55a4df523b3ef60405160405180910390a45050565b6115418585858561106c565b61154d8484848461172a565b61158c576040517f08c379a00000000000000000000000000000000000000000000000000000000081526004016115839061266b565b60405180910390fd5b5050505050565b60606040518060600160405280603681526020016128c460369139905090565b6060600082036115fa576040518060400160405280600181526020017f3000000000000000000000000000000000000000000000000000000000000000815250905061170e565b600082905060005b6000821461162c5780806116159061268b565b915050600a826116259190612702565b9150611602565b60008167ffffffffffffffff81111561164857611647611d9f565b5b6040519080825280601f01601f19166020018201604052801561167a5781602001600182028036833780820191505090505b5090505b6000851461170757600182611693919061247c565b9150600a856116a29190612733565b60306116ae91906124b0565b60f81b8183815181106116c4576116c3612764565b5b60200101907effffffffffffffffffffffffffffffffffffffffffffffffffffffffffffff1916908160001a905350600a856117009190612702565b945061167e565b8093505050505b919050565b600082611720858461182d565b1490509392505050565b600061174b8473ffffffffffffffffffffffffffffffffffffffff16611883565b156118205763150b7a0260e01b7bffffffffffffffffffffffffffffffffffffffffffffffffffffffff19168473ffffffffffffffffffffffffffffffffffffffff1663150b7a02338887876040518563ffffffff1660e01b81526004016117b694939291906127e8565b6020604051808303816000875af11580156117d5573d6000803e3d6000fd5b505050506040513d601f19601f820116820180604052508101906117f99190612849565b7bffffffffffffffffffffffffffffffffffffffffffffffffffffffff1916149050611825565b600190505b949350505050565b60008082905060005b8451811015611878576118638286838151811061185657611855612764565b5b6020026020010151611896565b915080806118709061268b565b915050611836565b508091505092915050565b600080823b905060008111915050919050565b60008183106118cd5781836040516020016118b2929190612897565b604051602081830303815290604052805190602001206118f7565b82826040516020016118e0929190612897565b604051602081830303815290604052805190602001205b905092915050565b6000604051905090565b600080fd5b600080fd5b60007fffffffff0000000000000000000000000000000000000000000000000000000082169050919050565b61194881611913565b811461195357600080fd5b50565b6000813590506119658161193f565b92915050565b60006020828403121561198157611980611909565b5b600061198f84828501611956565b91505092915050565b60008115159050919050565b6119ad81611998565b82525050565b60006020820190506119c860008301846119a4565b92915050565b600081519050919050565b600082825260208201905092915050565b60005b83811015611a085780820151818401526020810190506119ed565b60008484015250505050565b6000601f19601f8301169050919050565b6000611a30826119ce565b611a3a81856119d9565b9350611a4a8185602086016119ea565b611a5381611a14565b840191505092915050565b60006020820190508181036000830152611a788184611a25565b905092915050565b6000819050919050565b611a9381611a80565b8114611a9e57600080fd5b50565b600081359050611ab081611a8a565b92915050565b600060208284031215611acc57611acb611909565b5b6000611ada84828501611aa1565b91505092915050565b600073ffffffffffffffffffffffffffffffffffffffff82169050919050565b6000611b0e82611ae3565b9050919050565b611b1e81611b03565b82525050565b6000602082019050611b396000830184611b15565b92915050565b611b4881611b03565b8114611b5357600080fd5b50565b600081359050611b6581611b3f565b92915050565b60008060408385031215611b8257611b81611909565b5b6000611b9085828601611b56565b9250506020611ba185828601611aa1565b9150509250929050565b600080600060608486031215611bc457611bc3611909565b5b6000611bd286828701611b56565b9350506020611be386828701611b56565b9250506040611bf486828701611aa1565b9150509250925092565b600060208284031215611c1457611c13611909565b5b6000611c2284828501611b56565b91505092915050565b600080fd5b600080fd5b600080fd5b60008083601f840112611c5057611c4f611c2b565b5b8235905067ffffffffffffffff811115611c6d57611c6c611c30565b5b602083019150836020820283011115611c8957611c88611c35565b5b9250929050565b60008060008060608587031215611caa57611ca9611909565b5b6000611cb887828801611b56565b9450506020611cc987828801611aa1565b935050604085013567ffffffffffffffff811115611cea57611ce961190e565b5b611cf687828801611c3a565b925092505092959194509250565b611d0d81611a80565b82525050565b6000602082019050611d286000830184611d04565b92915050565b611d3781611998565b8114611d4257600080fd5b50565b600081359050611d5481611d2e565b92915050565b60008060408385031215611d7157611d70611909565b5b6000611d7f85828601611b56565b9250506020611d9085828601611d45565b9150509250929050565b600080fd5b7f4e487b7100000000000000000000000000000000000000000000000000000000600052604160045260246000fd5b611dd782611a14565b810181811067ffffffffffffffff82111715611df657611df5611d9f565b5b80604052505050565b6000611e096118ff565b9050611e158282611dce565b919050565b600067ffffffffffffffff821115611e3557611e34611d9f565b5b611e3e82611a14565b9050602081019050919050565b82818337600083830152505050565b6000611e6d611e6884611e1a565b611dff565b905082815260208101848484011115611e8957611e88611d9a565b5b611e94848285611e4b565b509392505050565b600082601f830112611eb157611eb0611c2b565b5b8135611ec1848260208601611e5a565b91505092915050565b60008060008060808587031215611ee457611ee3611909565b5b6000611ef287828801611b56565b9450506020611f0387828801611b56565b9350506040611f1487828801611aa1565b925050606085013567ffffffffffffffff811115611f3557611f3461190e565b5b611f4187828801611e9c565b91505092959194509250565b60008060408385031215611f6457611f63611909565b5b6000611f7285828601611b56565b9250506020611f8385828601611b56565b9150509250929050565b6000819050919050565b611fa081611f8d565b82525050565b6000602082019050611fbb6000830184611f97565b92915050565b7f4e487b7100000000000000000000000000000000000000000000000000000000600052602260045260246000fd5b6000600282049050600182168061200857607f821691505b60208210810361201b5761201a611fc1565b5b50919050565b7f746f6b656e20646f65736e277420657869737400000000000000000000000000600082015250565b60006120576013836119d9565b915061206282612021565b602082019050919050565b600060208201905081810360008301526120868161204a565b9050919050565b7f6e6f74206f776e6572206e6f7220617070726f76656420666f7220616c6c0000600082015250565b60006120c3601e836119d9565b91506120ce8261208d565b602082019050919050565b600060208201905081810360008301526120f2816120b6565b9050919050565b7f6e6f74206f776e6572206e6f7220617070726f76656400000000000000000000600082015250565b600061212f6016836119d9565b915061213a826120f9565b602082019050919050565b6000602082019050818103600083015261215e81612122565b9050919050565b7f496e76616c6964206d65726b6c652070726f6f66210000000000000000000000600082015250565b600061219b6015836119d9565b91506121a682612165565b602082019050919050565b600060208201905081810360008301526121ca8161218e565b9050919050565b7f416c7265616479206d696e746564210000000000000000000000000000000000600082015250565b6000612207600f836119d9565b9150612212826121d1565b602082019050919050565b60006020820190508181036000830152612236816121fa565b9050919050565b7f6f776e6572203d207a65726f2061646472657373000000000000000000000000600082015250565b60006122736014836119d9565b915061227e8261223d565b602082019050919050565b600060208201905081810360008301526122a281612266565b9050919050565b7f546f6b656e204e6f742045786973740000000000000000000000000000000000600082015250565b60006122df600f836119d9565b91506122ea826122a9565b602082019050919050565b6000602082019050818103600083015261230e816122d2565b9050919050565b600081905092915050565b600061232b826119ce565b6123358185612315565b93506123458185602086016119ea565b80840191505092915050565b600061235d8285612320565b91506123698284612320565b91508190509392505050565b7f6e6f74206f776e65720000000000000000000000000000000000000000000000600082015250565b60006123ab6009836119d9565b91506123b682612375565b602082019050919050565b600060208201905081810360008301526123da8161239e565b9050919050565b7f7472616e7366657220746f20746865207a65726f206164647265737300000000600082015250565b6000612417601c836119d9565b9150612422826123e1565b602082019050919050565b600060208201905081810360008301526124468161240a565b9050919050565b7f4e487b7100000000000000000000000000000000000000000000000000000000600052601160045260246000fd5b600061248782611a80565b915061249283611a80565b92508282039050818111156124aa576124a961244d565b5b92915050565b60006124bb82611a80565b91506124c683611a80565b92508282019050808211156124de576124dd61244d565b5b92915050565b60008160601b9050919050565b60006124fc826124e4565b9050919050565b600061250e826124f1565b9050919050565b61252661252182611b03565b612503565b82525050565b60006125388284612515565b60148201915081905092915050565b7f6d696e7420746f207a65726f2061646472657373000000000000000000000000600082015250565b600061257d6014836119d9565b915061258882612547565b602082019050919050565b600060208201905081810360008301526125ac81612570565b9050919050565b7f746f6b656e20616c7265616479206d696e746564000000000000000000000000600082015250565b60006125e96014836119d9565b91506125f4826125b3565b602082019050919050565b60006020820190508181036000830152612618816125dc565b9050919050565b7f6e6f742045524337323152656365697665720000000000000000000000000000600082015250565b60006126556012836119d9565b91506126608261261f565b602082019050919050565b6000602082019050818103600083015261268481612648565b9050919050565b600061269682611a80565b91507fffffffffffffffffffffffffffffffffffffffffffffffffffffffffffffffff82036126c8576126c761244d565b5b600182019050919050565b7f4e487b7100000000000000000000000000000000000000000000000000000000600052601260045260246000fd5b600061270d82611a80565b915061271883611a80565b925082612728576127276126d3565b5b828204905092915050565b600061273e82611a80565b915061274983611a80565b925082612759576127586126d3565b5b828206905092915050565b7f4e487b7100000000000000000000000000000000000000000000000000000000600052603260045260246000fd5b600081519050919050565b600082825260208201905092915050565b60006127ba82612793565b6127c4818561279e565b93506127d48185602086016119ea565b6127dd81611a14565b840191505092915050565b60006080820190506127fd6000830187611b15565b61280a6020830186611b15565b6128176040830185611d04565b818103606083015261282981846127af565b905095945050505050565b6000815190506128438161193f565b92915050565b60006020828403121561285f5761285e611909565b5b600061286d84828501612834565b91505092915050565b6000819050919050565b61289161288c82611f8d565b612876565b82525050565b60006128a38285612880565b6020820191506128b38284612880565b602082019150819050939250505056fe697066733a2f2f516d65536a53696e4870506e6d586d73704d6a776958794e367a533445397a63636172694752336a7863615774712fa2646970667358221220c84cb2ef49455fdf6ae3cf368f0a9ac4ce94d59e340da3bfd9af10aed205556764736f6c63430008130033",
  "linkReferences": {},
  "deployedLinkReferences": {}
}